Component: ARM Compiler 5.05 update 1 (build 106) Tool: armlink [4d0efa]

==============================================================================

Section Cross References

    main.o(i.led_flash) refers to systick.o(i.delay_1ms) for delay_1ms
    main.o(i.led_flash) refers to gd32f303e_eval.o(i.gd_eval_led_on) for gd_eval_led_on
    main.o(i.led_flash) refers to gd32f303e_eval.o(i.gd_eval_led_off) for gd_eval_led_off
    main.o(i.led_init) refers to gd32f303e_eval.o(i.gd_eval_led_init) for gd_eval_led_init
    main.o(i.main) refers to main.o(i.led_init) for led_init
    main.o(i.main) refers to systick.o(i.systick_config) for systick_config
    main.o(i.main) refers to main.o(i.led_flash) for led_flash
    main.o(i.main) refers to gd32f303e_eval.o(i.gd_eval_com_init) for gd_eval_com_init
    main.o(i.main) refers to main.o(i.usart_dma_config) for usart_dma_config
    main.o(i.main) refers to gd32f30x_dma.o(i.dma_channel_enable) for dma_channel_enable
    main.o(i.main) refers to gd32f30x_usart.o(i.usart_dma_transmit_config) for usart_dma_transmit_config
    main.o(i.main) refers to gd32f30x_usart.o(i.usart_dma_receive_config) for usart_dma_receive_config
    main.o(i.main) refers to gd32f30x_dma.o(i.dma_flag_get) for dma_flag_get
    main.o(i.main) refers to main.o(i.memory_compare) for memory_compare
    main.o(i.main) refers to gd32f303e_eval.o(i.gd_eval_led_on) for gd_eval_led_on
    main.o(i.main) refers to systick.o(i.delay_1ms) for delay_1ms
    main.o(i.main) refers to gd32f303e_eval.o(i.gd_eval_led_off) for gd_eval_led_off
    main.o(i.main) refers to main.o(.bss) for rx_buffer
==============================================================================

Removing Unused input sections from the image.

    Removing main.o(.rev16_text), (4 bytes).
    Removing main.o(.revsh_text), (4 bytes).
    Removing gd32f30x_it.o(.rev16_text), (4 bytes).
    Removing gd32f30x_it.o(.revsh_text), (4 bytes).
    Removing systick.o(.rev16_text), (4 bytes).
    Removing systick.o(.revsh_text), (4 bytes).
    Removing system_gd32f30x.o(.rev16_text), (4 bytes).
    Removing system_gd32f30x.o(.revsh_text), (4 bytes).
    Removing system_gd32f30x.o(i.SystemCoreClockUpdate), (184 bytes).
    Removing gd32f30x_adc.o(.rev16_text), (4 bytes).
    Removing gd32f30x_adc.o(.revsh_text), (4 bytes).
    Removing gd32f30x_adc.o(i.adc_calibration_enable), (42 bytes).
    Removing gd32f30x_adc.o(i.adc_channel_length_config), (70 bytes).
    Removing gd32f30x_adc.o(i.adc_data_alignment_config), (22 bytes).
    Removing gd32f30x_adc.o(i.adc_deinit), (88 bytes).
    Removing gd32f30x_adc.o(i.adc_disable), (10 bytes).
    Removing gd32f30x_adc.o(i.adc_discontinuous_mode_config), (76 bytes).
    Removing gd32f30x_adc.o(i.adc_dma_mode_disable), (10 bytes).
==============================================================================

Image Symbol Table

    Local Symbols

    Symbol Name                              Value     Ov Type        Size  Object(Section)

    ../clib/../cmprslib/zerorunl2.c          0x00000000   Number         0  __dczerorl2.o ABSOLUTE
    ../clib/microlib/init/entry.s            0x00000000   Number         0  entry11b.o ABSOLUTE
    ../clib/microlib/init/entry.s            0x00000000   Number         0  entry.o ABSOLUTE
    ../clib/microlib/init/entry.s            0x00000000   Number         0  entry7a.o ABSOLUTE
    ../clib/microlib/init/entry.s            0x00000000   Number         0  entry2.o ABSOLUTE
    ../clib/microlib/init/entry.s            0x00000000   Number         0  entry5.o ABSOLUTE
    ../clib/microlib/init/entry.s            0x00000000   Number         0  entry7b.o ABSOLUTE
    ../clib/microlib/init/entry.s            0x00000000   Number         0  entry8a.o ABSOLUTE
    ../clib/microlib/init/entry.s            0x00000000   Number         0  entry8b.o ABSOLUTE
    ../clib/microlib/init/entry.s            0x00000000   Number         0  entry9b.o ABSOLUTE
    ../clib/microlib/init/entry.s            0x00000000   Number         0  entry11a.o ABSOLUTE
    ../clib/microlib/init/entry.s            0x00000000   Number         0  entry10b.o ABSOLUTE
    ../clib/microlib/init/entry.s            0x00000000   Number         0  entry10a.o ABSOLUTE
    ../clib/microlib/init/entry.s            0x00000000   Number         0  entry9a.o ABSOLUTE
    ../clib/microlib/string/memcpy.c         0x00000000   Number         0  memcpya.o ABSOLUTE
    ../clib/microlib/string/memcpy.c         0x00000000   Number         0  memcpyb.o ABSOLUTE
    ..\..\..\Library\Firmware\CMSIS\GD\GD32F30x\Source\ARM\startup_gd32f30x_hd.s 0x00000000   Number         0  startup_gd32f30x_hd.o ABSOLUTE
    ..\..\..\Library\Firmware\CMSIS\GD\GD32F30x\Source\system_gd32f30x.c 0x00000000   Number         0  system_gd32f30x.o ABSOLUTE
    ..\..\..\Library\Firmware\GD32F30x_standard_peripheral\Source\gd32f30x_adc.c 0x00000000   Number         0  gd32f30x_adc.o ABSOLUTE
    ..\..\..\Library\Firmware\GD32F30x_standard_peripheral\Source\gd32f30x_bkp.c 0x00000000   Number         0  gd32f30x_bkp.o ABSOLUTE
    ..\..\..\Library\Firmware\GD32F30x_standard_peripheral\Source\gd32f30x_can.c 0x00000000   Number         0  gd32f30x_can.o ABSOLUTE
    ..\..\..\Library\Firmware\GD32F30x_standard_peripheral\Source\gd32f30x_crc.c 0x00000000   Number         0  gd32f30x_crc.o ABSOLUTE
    ..\..\..\Library\Firmware\GD32F30x_standard_peripheral\Source\gd32f30x_ctc.c 0x00000000   Number         0  gd32f30x_ctc.o ABSOLUTE
    ..\..\..\Library\Firmware\GD32F30x_standard_peripheral\Source\gd32f30x_dac.c 0x00000000   Number         0  gd32f30x_dac.o ABSOLUTE
    ..\..\..\Library\Firmware\GD32F30x_standard_peripheral\Source\gd32f30x_dbg.c 0x00000000   Number         0  gd32f30x_dbg.o ABSOLUTE
    ..\..\..\Library\Firmware\GD32F30x_standard_peripheral\Source\gd32f30x_dma.c 0x00000000   Number         0  gd32f30x_dma.o ABSOLUTE
    ..\..\..\Library\Firmware\GD32F30x_standard_peripheral\Source\gd32f30x_enet.c 0x00000000   Number         0  gd32f30x_enet.o ABSOLUTE
    ..\..\..\Library\Firmware\GD32F30x_standard_peripheral\Source\gd32f30x_exmc.c 0x00000000   Number         0  gd32f30x_exmc.o ABSOLUTE
    ..\..\..\Library\Firmware\GD32F30x_standard_peripheral\Source\gd32f30x_exti.c 0x00000000   Number         0  gd32f30x_exti.o ABSOLUTE
    ..\..\..\Library\Firmware\GD32F30x_standard_peripheral\Source\gd32f30x_fmc.c 0x00000000   Number         0  gd32f30x_fmc.o ABSOLUTE
    ..\..\..\Library\Firmware\GD32F30x_standard_peripheral\Source\gd32f30x_fwdgt.c 0x00000000   Number         0  gd32f30x_fwdgt.o ABSOLUTE
    ..\..\..\Library\Firmware\GD32F30x_standard_peripheral\Source\gd32f30x_gpio.c 0x00000000   Number         0  gd32f30x_gpio.o ABSOLUTE
    ..\..\..\Library\Firmware\GD32F30x_standard_peripheral\Source\gd32f30x_i2c.c 0x00000000   Number         0  gd32f30x_i2c.o ABSOLUTE
    ..\..\..\Library\Firmware\GD32F30x_standard_peripheral\Source\gd32f30x_misc.c 0x00000000   Number         0  gd32f30x_misc.o ABSOLUTE
    ..\..\..\Library\Firmware\GD32F30x_standard_peripheral\Source\gd32f30x_pmu.c 0x00000000   Number         0  gd32f30x_pmu.o ABSOLUTE
    ..\..\..\Library\Firmware\GD32F30x_standard_peripheral\Source\gd32f30x_rcu.c 0x00000000   Number         0  gd32f30x_rcu.o ABSOLUTE
    ..\..\..\Library\Firmware\GD32F30x_standard_peripheral\Source\gd32f30x_rtc.c 0x00000000   Number         0  gd32f30x_rtc.o ABSOLUTE
    ..\..\..\Library\Firmware\GD32F30x_standard_peripheral\Source\gd32f30x_sdio.c 0x00000000   Number         0  gd32f30x_sdio.o ABSOLUTE
    ..\..\..\Library\Firmware\GD32F30x_standard_peripheral\Source\gd32f30x_spi.c 0x00000000   Number         0  gd32f30x_spi.o ABSOLUTE
    ..\..\..\Library\Firmware\GD32F30x_standard_peripheral\Source\gd32f30x_timer.c 0x00000000   Number         0  gd32f30x_timer.o ABSOLUTE
    ..\..\..\Library\Firmware\GD32F30x_standard_peripheral\Source\gd32f30x_usart.c 0x00000000   Number         0  gd32f30x_usart.o ABSOLUTE
    ..\..\..\Library\Firmware\GD32F30x_standard_peripheral\Source\gd32f30x_wwdgt.c 0x00000000   Number         0  gd32f30x_wwdgt.o ABSOLUTE
    ..\..\..\Library\Utilities\gd32f303e_eval.c 0x00000000   Number         0  gd32f303e_eval.o ABSOLUTE
    ..\\..\\..\\Library\\Firmware\\CMSIS\\GD\\GD32F30x\\Source\\system_gd32f30x.c 0x00000000   Number         0  system_gd32f30x.o ABSOLUTE
    ..\\..\\..\\Library\\Firmware\\GD32F30x_standard_peripheral\\Source\\gd32f30x_adc.c 0x00000000   Number         0  gd32f30x_adc.o ABSOLUTE
    ..\\..\\..\\Library\\Firmware\\GD32F30x_standard_peripheral\\Source\\gd32f30x_bkp.c 0x00000000   Number         0  gd32f30x_bkp.o ABSOLUTE
    ..\\..\\..\\Library\\Firmware\\GD32F30x_standard_peripheral\\Source\\gd32f30x_can.c 0x00000000   Number         0  gd32f30x_can.o ABSOLUTE
    ..\\..\\..\\Library\\Firmware\\GD32F30x_standard_peripheral\\Source\\gd32f30x_crc.c 0x00000000   Number         0  gd32f30x_crc.o ABSOLUTE
    ..\\..\\..\\Library\\Firmware\\GD32F30x_standard_peripheral\\Source\\gd32f30x_ctc.c 0x00000000   Number         0  gd32f30x_ctc.o ABSOLUTE
    ..\\..\\..\\Library\\Firmware\\GD32F30x_standard_peripheral\\Source\\gd32f30x_dac.c 0x00000000   Number         0  gd32f30x_dac.o ABSOLUTE
    ..\\..\\..\\Library\\Firmware\\GD32F30x_standard_peripheral\\Source\\gd32f30x_dbg.c 0x00000000   Number         0  gd32f30x_dbg.o ABSOLUTE
    ..\\..\\..\\Library\\Firmware\\GD32F30x_standard_peripheral\\Source\\gd32f30x_dma.c 0x00000000   Number         0  gd32f30x_dma.o ABSOLUTE
    ..\\..\\..\\Library\\Firmware\\GD32F30x_standard_peripheral\\Source\\gd32f30x_enet.c 0x00000000   Number         0  gd32f30x_enet.o ABSOLUTE
    ..\\..\\..\\Library\\Firmware\\GD32F30x_standard_peripheral\\Source\\gd32f30x_exmc.c 0x00000000   Number         0  gd32f30x_exmc.o ABSOLUTE
    ..\\..\\..\\Library\\Firmware\\GD32F30x_standard_peripheral\\Source\\gd32f30x_exti.c 0x00000000   Number         0  gd32f30x_exti.o ABSOLUTE
    ..\\..\\..\\Library\\Firmware\\GD32F30x_standard_peripheral\\Source\\gd32f30x_fmc.c 0x00000000   Number         0  gd32f30x_fmc.o ABSOLUTE
    ..\\..\\..\\Library\\Firmware\\GD32F30x_standard_peripheral\\Source\\gd32f30x_fwdgt.c 0x00000000   Number         0  gd32f30x_fwdgt.o ABSOLUTE
    ..\\..\\..\\Library\\Firmware\\GD32F30x_standard_peripheral\\Source\\gd32f30x_gpio.c 0x00000000   Number         0  gd32f30x_gpio.o ABSOLUTE
    ..\\..\\..\\Library\\Firmware\\GD32F30x_standard_peripheral\\Source\\gd32f30x_i2c.c 0x00000000   Number         0  gd32f30x_i2c.o ABSOLUTE
    ..\\..\\..\\Library\\Firmware\\GD32F30x_standard_peripheral\\Source\\gd32f30x_misc.c 0x00000000   Number         0  gd32f30x_misc.o ABSOLUTE
    ..\\..\\..\\Library\\Firmware\\GD32F30x_standard_peripheral\\Source\\gd32f30x_pmu.c 0x00000000   Number         0  gd32f30x_pmu.o ABSOLUTE
    ..\\..\\..\\Library\\Firmware\\GD32F30x_standard_peripheral\\Source\\gd32f30x_rcu.c 0x00000000   Number         0  gd32f30x_rcu.o ABSOLUTE
    ..\\..\\..\\Library\\Firmware\\GD32F30x_standard_peripheral\\Source\\gd32f30x_rtc.c 0x00000000   Number         0  gd32f30x_rtc.o ABSOLUTE
    ..\\..\\..\\Library\\Firmware\\GD32F30x_standard_peripheral\\Source\\gd32f30x_sdio.c 0x00000000   Number         0  gd32f30x_sdio.o ABSOLUTE
    ..\\..\\..\\Library\\Firmware\\GD32F30x_standard_peripheral\\Source\\gd32f30x_spi.c 0x00000000   Number         0  gd32f30x_spi.o ABSOLUTE
    ..\\..\\..\\Library\\Firmware\\GD32F30x_standard_peripheral\\Source\\gd32f30x_timer.c 0x00000000   Number         0  gd32f30x_timer.o ABSOLUTE
    ..\\..\\..\\Library\\Firmware\\GD32F30x_standard_peripheral\\Source\\gd32f30x_usart.c 0x00000000   Number         0  gd32f30x_usart.o ABSOLUTE
    ..\\..\\..\\Library\\Firmware\\GD32F30x_standard_peripheral\\Source\\gd32f30x_wwdgt.c 0x00000000   Number         0  gd32f30x_wwdgt.o ABSOLUTE
    ..\\..\\..\\Library\\Utilities\\gd32f303e_eval.c 0x00000000   Number         0  gd32f303e_eval.o ABSOLUTE
    ..\\gd32f30x_it.c                        0x00000000   Number         0  gd32f30x_it.o ABSOLUTE
    ..\\main.c                               0x00000000   Number         0  main.o ABSOLUTE
    ..\\systick.c                            0x00000000   Number         0  systick.o ABSOLUTE
    ..\gd32f30x_it.c                         0x00000000   Number         0  gd32f30x_it.o ABSOLUTE
    ..\main.c                                0x00000000   Number         0  main.o ABSOLUTE
    ..\systick.c                             0x00000000   Number         0  systick.o ABSOLUTE
    dc.s                                     0x00000000   Number         0  dc.o ABSOLUTE
    handlers.s                               0x00000000   Number         0  handlers.o ABSOLUTE
    init.s                                   0x00000000   Number         0  init.o ABSOLUTE
    RESET                                    0x08000000   Section      304  startup_gd32f30x_hd.o(RESET)
    .ARM.Collect$$$$00000000                 0x08000130   Section        0  entry.o(.ARM.Collect$$$$00000000)
    .ARM.Collect$$$$00000001                 0x08000130   Section        4  entry2.o(.ARM.Collect$$$$00000001)
    .ARM.Collect$$$$00000004                 0x08000134   Section        4  entry5.o(.ARM.Collect$$$$00000004)
    .ARM.Collect$$$$00000008                 0x08000138   Section        0  entry7b.o(.ARM.Collect$$$$00000008)
    .ARM.Collect$$$$0000000A                 0x08000138   Section        0  entry8b.o(.ARM.Collect$$$$0000000A)
    .ARM.Collect$$$$0000000B                 0x08000138   Section        8  entry9a.o(.ARM.Collect$$$$0000000B)
    .ARM.Collect$$$$0000000D                 0x08000140   Section        0  entry10a.o(.ARM.Collect$$$$0000000D)
    .ARM.Collect$$$$0000000F                 0x08000140   Section        0  entry11a.o(.ARM.Collect$$$$0000000F)
    .ARM.Collect$$$$00002712                 0x08000140   Section        4  entry2.o(.ARM.Collect$$$$00002712)
    __lit__00000000                          0x08000140   Data           4  entry2.o(.ARM.Collect$$$$00002712)
    .text                                    0x08000144   Section       36  startup_gd32f30x_hd.o(.text)
    $v0                                      0x08000144   Number         0  startup_gd32f30x_hd.o(.text)
    .text                                    0x08000168   Section        0  memcpya.o(.text)
    .text                                    0x0800018c   Section       36  init.o(.text)
    .text                                    0x080001b0   Section        0  __dczerorl2.o(.text)
    i.BusFault_Handler                       0x08000206   Section        0  gd32f30x_it.o(i.BusFault_Handler)
    i.DebugMon_Handler                       0x0800020a   Section        0  gd32f30x_it.o(i.DebugMon_Handler)
    i.HardFault_Handler                      0x0800020c   Section        0  gd32f30x_it.o(i.HardFault_Handler)
    i.MemManage_Handler                      0x08000210   Section        0  gd32f30x_it.o(i.MemManage_Handler)
    i.NMI_Handler                            0x08000214   Section        0  gd32f30x_it.o(i.NMI_Handler)
    i.NVIC_SetPriority                       0x08000218   Section        0  systick.o(i.NVIC_SetPriority)
    NVIC_SetPriority                         0x08000219   Thumb Code    32  systick.o(i.NVIC_SetPriority)
    i.PendSV_Handler                         0x08000240   Section        0  gd32f30x_it.o(i.PendSV_Handler)
    i.SVC_Handler                            0x08000242   Section        0  gd32f30x_it.o(i.SVC_Handler)
    i.SysTick_Handler                        0x08000244   Section        0  gd32f30x_it.o(i.SysTick_Handler)
    i.SystemInit                             0x0800024c   Section        0  system_gd32f30x.o(i.SystemInit)
    i.UsageFault_Handler                     0x0800029c   Section        0  gd32f30x_it.o(i.UsageFault_Handler)
    i.__scatterload_copy                     0x080002a0   Section       14  handlers.o(i.__scatterload_copy)
    i.__scatterload_null                     0x080002ae   Section        2  handlers.o(i.__scatterload_null)
    i.__scatterload_zeroinit                 0x080002b0   Section       14  handlers.o(i.__scatterload_zeroinit)
    i.delay_1ms                              0x080002c0   Section        0  systick.o(i.delay_1ms)
    i.delay_decrement                        0x080002d4   Section        0  systick.o(i.delay_decrement)
    i.dma_channel_enable                     0x080002ec   Section        0  gd32f30x_dma.o(i.dma_channel_enable)
    i.dma_circulation_disable                0x0800031e   Section        0  gd32f30x_dma.o(i.dma_circulation_disable)
    i.dma_deinit                             0x08000350   Section        0  gd32f30x_dma.o(i.dma_deinit)
    i.dma_flag_get                           0x080003c0   Section        0  gd32f30x_dma.o(i.dma_flag_get)
    i.dma_init                               0x080003d8   Section        0  gd32f30x_dma.o(i.dma_init)
    i.dma_memory_to_memory_disable           0x0800050c   Section        0  gd32f30x_dma.o(i.dma_memory_to_memory_disable)
    i.dma_periph_and_channel_check           0x08000540   Section        0  gd32f30x_dma.o(i.dma_periph_and_channel_check)
    dma_periph_and_channel_check             0x08000541   Thumb Code    18  gd32f30x_dma.o(i.dma_periph_and_channel_check)
    i.gd_eval_com_init                       0x08000558   Section        0  gd32f303e_eval.o(i.gd_eval_com_init)
    i.gd_eval_led_init                       0x080005f0   Section        0  gd32f303e_eval.o(i.gd_eval_led_init)
    i.gd_eval_led_off                        0x08000630   Section        0  gd32f303e_eval.o(i.gd_eval_led_off)
    i.gd_eval_led_on                         0x08000648   Section        0  gd32f303e_eval.o(i.gd_eval_led_on)
    i.gpio_init                              0x08000660   Section        0  gd32f30x_gpio.o(i.gpio_init)
    i.led_flash                              0x08000704   Section        0  main.o(i.led_flash)
    i.led_init                               0x08000754   Section        0  main.o(i.led_init)
    i.main                                   0x08000770   Section        0  main.o(i.main)
    i.memory_compare                         0x08000850   Section        0  main.o(i.memory_compare)
    i.rcu_clock_freq_get                     0x08000874   Section        0  gd32f30x_rcu.o(i.rcu_clock_freq_get)
    i.rcu_periph_clock_enable                0x080009cc   Section        0  gd32f30x_rcu.o(i.rcu_periph_clock_enable)
    i.rcu_periph_reset_disable               0x080009ec   Section        0  gd32f30x_rcu.o(i.rcu_periph_reset_disable)
    i.rcu_periph_reset_enable                0x08000a0c   Section        0  gd32f30x_rcu.o(i.rcu_periph_reset_enable)
    i.system_clock_120m_hxtal                0x08000a2c   Section        0  system_gd32f30x.o(i.system_clock_120m_hxtal)
    system_clock_120m_hxtal                  0x08000a2d   Thumb Code   256  system_gd32f30x.o(i.system_clock_120m_hxtal)
    i.system_clock_config                    0x08000b3c   Section        0  system_gd32f30x.o(i.system_clock_config)
    system_clock_config                      0x08000b3d   Thumb Code     8  system_gd32f30x.o(i.system_clock_config)
    i.systick_config                         0x08000b44   Section        0  systick.o(i.systick_config)
    i.usart_baudrate_set                     0x08000b94   Section        0  gd32f30x_usart.o(i.usart_baudrate_set)
    i.usart_deinit                           0x08000c28   Section        0  gd32f30x_usart.o(i.usart_deinit)
    i.usart_dma_config                       0x08000cb8   Section        0  main.o(i.usart_dma_config)
    i.usart_dma_receive_config               0x08000d6c   Section        0  gd32f30x_usart.o(i.usart_dma_receive_config)
    i.usart_dma_transmit_config              0x08000d7c   Section        0  gd32f30x_usart.o(i.usart_dma_transmit_config)
    i.usart_enable                           0x08000d8c   Section        0  gd32f30x_usart.o(i.usart_enable)
    i.usart_receive_config                   0x08000d96   Section        0  gd32f30x_usart.o(i.usart_receive_config)
    i.usart_transmit_config                  0x08000da6   Section        0  gd32f30x_usart.o(i.usart_transmit_config)
    .data                                    0x20000000   Section      257  main.o(.data)
    .data                                    0x20000104   Section        4  systick.o(.data)
    delay                                    0x20000104   Data           4  systick.o(.data)
    .data                                    0x20000108   Section        4  system_gd32f30x.o(.data)
    .data                                    0x2000010c   Section      140  gd32f303e_eval.o(.data)
    GPIO_PORT                                0x2000010c   Data          16  gd32f303e_eval.o(.data)
    GPIO_PIN                                 0x2000011c   Data          16  gd32f303e_eval.o(.data)
    COM_CLK                                  0x2000012c   Data           4  gd32f303e_eval.o(.data)
    COM_TX_PIN                               0x20000130   Data           8  gd32f303e_eval.o(.data)
    COM_RX_PIN                               0x20000138   Data           8  gd32f303e_eval.o(.data)
    COM_GPIO_PORT                            0x20000140   Data           8  gd32f303e_eval.o(.data)
    COM_GPIO_CLK                             0x20000148   Data           4  gd32f303e_eval.o(.data)
    GPIO_CLK                                 0x2000014c   Data           8  gd32f303e_eval.o(.data)
    KEY_PORT                                 0x20000154   Data          16  gd32f303e_eval.o(.data)
    KEY_PIN                                  0x20000164   Data          16  gd32f303e_eval.o(.data)
    KEY_CLK                                  0x20000174   Data           8  gd32f303e_eval.o(.data)
    KEY_EXTI_LINE                            0x2000017c   Data          16  gd32f303e_eval.o(.data)
    KEY_PORT_SOURCE                          0x2000018c   Data           4  gd32f303e_eval.o(.data)
    KEY_PIN_SOURCE                           0x20000190   Data           4  gd32f303e_eval.o(.data)
    KEY_IRQn                                 0x20000194   Data           4  gd32f303e_eval.o(.data)
    .bss                                     0x20000198   Section      256  main.o(.bss)
    STACK                                    0x20000298   Section     1024  startup_gd32f30x_hd.o(STACK)

    Global Symbols

    Symbol Name                              Value     Ov Type        Size  Object(Section)

    BuildAttributes$$THM_ISAv4$E$P$D$K$B$S$7EM$VFPi3$EXTD16$VFPS$VFMA$PE$A:L22UL41UL21$X:L11$S22US41US21$IEEE1$IW$USESV6$~STKCKD$USESV7$~SHL$OSPACE$EBA8$MICROLIB$REQ8$PRES8$EABIv2 0x00000000   Number         0  anon$$obj.o ABSOLUTE
    __ARM_use_no_argv                        0x00000000   Number         0  main.o ABSOLUTE
    __cpp_initialize__aeabi_                  - Undefined Weak Reference
    __cxa_finalize                            - Undefined Weak Reference
    _clock_init                               - Undefined Weak Reference
    _microlib_exit                            - Undefined Weak Reference
    __Vectors_Size                           0x00000130   Number         0  startup_gd32f30x_hd.o ABSOLUTE
    __Vectors                                0x08000000   Data           4  startup_gd32f30x_hd.o(RESET)
    __Vectors_End                            0x08000130   Data           0  startup_gd32f30x_hd.o(RESET)
    __main                                   0x08000131   Thumb Code     0  entry.o(.ARM.Collect$$$$00000000)
    _main_stk                                0x08000131   Thumb Code     0  entry2.o(.ARM.Collect$$$$00000001)
    _main_scatterload                        0x08000135   Thumb Code     0  entry5.o(.ARM.Collect$$$$00000004)
    __main_after_scatterload                 0x08000139   Thumb Code     0  entry5.o(.ARM.Collect$$$$00000004)
    _main_clock                              0x08000139   Thumb Code     0  entry7b.o(.ARM.Collect$$$$00000008)
    _main_cpp_init                           0x08000139   Thumb Code     0  entry8b.o(.ARM.Collect$$$$0000000A)
    _main_init                               0x08000139   Thumb Code     0  entry9a.o(.ARM.Collect$$$$0000000B)
    __rt_final_cpp                           0x08000141   Thumb Code     0  entry10a.o(.ARM.Collect$$$$0000000D)
    __rt_final_exit                          0x08000141   Thumb Code     0  entry11a.o(.ARM.Collect$$$$0000000F)
    Reset_Handler                            0x08000145   Thumb Code     8  startup_gd32f30x_hd.o(.text)
    ADC0_1_IRQHandler                        0x0800015f   Thumb Code     0  startup_gd32f30x_hd.o(.text)
    ADC2_IRQHandler                          0x0800015f   Thumb Code     0  startup_gd32f30x_hd.o(.text)
    CAN0_EWMC_IRQHandler                     0x0800015f   Thumb Code     0  startup_gd32f30x_hd.o(.text)
    CAN0_RX1_IRQHandler                      0x0800015f   Thumb Code     0  startup_gd32f30x_hd.o(.text)
    DMA0_Channel0_IRQHandler                 0x0800015f   Thumb Code     0  startup_gd32f30x_hd.o(.text)
    DMA0_Channel1_IRQHandler                 0x0800015f   Thumb Code     0  startup_gd32f30x_hd.o(.text)
    DMA0_Channel2_IRQHandler                 0x0800015f   Thumb Code     0  startup_gd32f30x_hd.o(.text)
    DMA0_Channel3_IRQHandler                 0x0800015f   Thumb Code     0  startup_gd32f30x_hd.o(.text)
    DMA0_Channel4_IRQHandler                 0x0800015f   Thumb Code     0  startup_gd32f30x_hd.o(.text)
    DMA0_Channel5_IRQHandler                 0x0800015f   Thumb Code     0  startup_gd32f30x_hd.o(.text)
    DMA0_Channel6_IRQHandler                 0x0800015f   Thumb Code     0  startup_gd32f30x_hd.o(.text)
    DMA1_Channel0_IRQHandler                 0x0800015f   Thumb Code     0  startup_gd32f30x_hd.o(.text)
    DMA1_Channel1_IRQHandler                 0x0800015f   Thumb Code     0  startup_gd32f30x_hd.o(.text)
    DMA1_Channel2_IRQHandler                 0x0800015f   Thumb Code     0  startup_gd32f30x_hd.o(.text)
    DMA1_Channel3_4_IRQHandler               0x0800015f   Thumb Code     0  startup_gd32f30x_hd.o(.text)
    EXMC_IRQHandler                          0x0800015f   Thumb Code     0  startup_gd32f30x_hd.o(.text)
    EXTI0_IRQHandler                         0x0800015f   Thumb Code     0  startup_gd32f30x_hd.o(.text)
    EXTI10_15_IRQHandler                     0x0800015f   Thumb Code     0  startup_gd32f30x_hd.o(.text)
    EXTI1_IRQHandler                         0x0800015f   Thumb Code     0  startup_gd32f30x_hd.o(.text)
    EXTI2_IRQHandler                         0x0800015f   Thumb Code     0  startup_gd32f30x_hd.o(.text)
    EXTI3_IRQHandler                         0x0800015f   Thumb Code     0  startup_gd32f30x_hd.o(.text)
    EXTI4_IRQHandler                         0x0800015f   Thumb Code     0  startup_gd32f30x_hd.o(.text)
    EXTI5_9_IRQHandler                       0x0800015f   Thumb Code     0  startup_gd32f30x_hd.o(.text)
    FMC_IRQHandler                           0x0800015f   Thumb Code     0  startup_gd32f30x_hd.o(.text)
    I2C0_ER_IRQHandler                       0x0800015f   Thumb Code     0  startup_gd32f30x_hd.o(.text)
    I2C0_EV_IRQHandler                       0x0800015f   Thumb Code     0  startup_gd32f30x_hd.o(.text)
    I2C1_ER_IRQHandler                       0x0800015f   Thumb Code     0  startup_gd32f30x_hd.o(.text)
    I2C1_EV_IRQHandler                       0x0800015f   Thumb Code     0  startup_gd32f30x_hd.o(.text)
    LVD_IRQHandler                           0x0800015f   Thumb Code     0  startup_gd32f30x_hd.o(.text)
    RCU_CTC_IRQHandler                       0x0800015f   Thumb Code     0  startup_gd32f30x_hd.o(.text)
    RTC_Alarm_IRQHandler                     0x0800015f   Thumb Code     0  startup_gd32f30x_hd.o(.text)
    RTC_IRQHandler                           0x0800015f   Thumb Code     0  startup_gd32f30x_hd.o(.text)
    SDIO_IRQHandler                          0x0800015f   Thumb Code     0  startup_gd32f30x_hd.o(.text)
    SPI0_IRQHandler                          0x0800015f   Thumb Code     0  startup_gd32f30x_hd.o(.text)
    SPI1_IRQHandler                          0x0800015f   Thumb Code     0  startup_gd32f30x_hd.o(.text)
    SPI2_IRQHandler                          0x0800015f   Thumb Code     0  startup_gd32f30x_hd.o(.text)
    TAMPER_IRQHandler                        0x0800015f   Thumb Code     0  startup_gd32f30x_hd.o(.text)
    TIMER0_BRK_IRQHandler                    0x0800015f   Thumb Code     0  startup_gd32f30x_hd.o(.text)
    TIMER0_Channel_IRQHandler                0x0800015f   Thumb Code     0  startup_gd32f30x_hd.o(.text)
    TIMER0_TRG_CMT_IRQHandler                0x0800015f   Thumb Code     0  startup_gd32f30x_hd.o(.text)
    TIMER0_UP_IRQHandler                     0x0800015f   Thumb Code     0  startup_gd32f30x_hd.o(.text)
    TIMER1_IRQHandler                        0x0800015f   Thumb Code     0  startup_gd32f30x_hd.o(.text)
    TIMER2_IRQHandler                        0x0800015f   Thumb Code     0  startup_gd32f30x_hd.o(.text)
    TIMER3_IRQHandler                        0x0800015f   Thumb Code     0  startup_gd32f30x_hd.o(.text)
    TIMER4_IRQHandler                        0x0800015f   Thumb Code     0  startup_gd32f30x_hd.o(.text)
    TIMER5_IRQHandler                        0x0800015f   Thumb Code     0  startup_gd32f30x_hd.o(.text)
    TIMER6_IRQHandler                        0x0800015f   Thumb Code     0  startup_gd32f30x_hd.o(.text)
    TIMER7_BRK_IRQHandler                    0x0800015f   Thumb Code     0  startup_gd32f30x_hd.o(.text)
    TIMER7_Channel_IRQHandler                0x0800015f   Thumb Code     0  startup_gd32f30x_hd.o(.text)
    TIMER7_TRG_CMT_IRQHandler                0x0800015f   Thumb Code     0  startup_gd32f30x_hd.o(.text)
    TIMER7_UP_IRQHandler                     0x0800015f   Thumb Code     0  startup_gd32f30x_hd.o(.text)
    UART3_IRQHandler                         0x0800015f   Thumb Code     0  startup_gd32f30x_hd.o(.text)
    UART4_IRQHandler                         0x0800015f   Thumb Code     0  startup_gd32f30x_hd.o(.text)
    USART0_IRQHandler                        0x0800015f   Thumb Code     0  startup_gd32f30x_hd.o(.text)
    USART1_IRQHandler                        0x0800015f   Thumb Code     0  startup_gd32f30x_hd.o(.text)
    USART2_IRQHandler                        0x0800015f   Thumb Code     0  startup_gd32f30x_hd.o(.text)
    USBD_HP_CAN0_TX_IRQHandler               0x0800015f   Thumb Code     0  startup_gd32f30x_hd.o(.text)
    USBD_LP_CAN0_RX0_IRQHandler              0x0800015f   Thumb Code     0  startup_gd32f30x_hd.o(.text)
    USBD_WKUP_IRQHandler                     0x0800015f   Thumb Code     0  startup_gd32f30x_hd.o(.text)
    WWDGT_IRQHandler                         0x0800015f   Thumb Code     0  startup_gd32f30x_hd.o(.text)
    __aeabi_memcpy                           0x08000169   Thumb Code    36  memcpya.o(.text)
    __aeabi_memcpy4                          0x08000169   Thumb Code     0  memcpya.o(.text)
    __aeabi_memcpy8                          0x08000169   Thumb Code     0  memcpya.o(.text)
    __scatterload                            0x0800018d   Thumb Code    28  init.o(.text)
    __scatterload_rt2                        0x0800018d   Thumb Code     0  init.o(.text)
    __decompress                             0x080001b1   Thumb Code     0  __dczerorl2.o(.text)
    __decompress1                            0x080001b1   Thumb Code    86  __dczerorl2.o(.text)
    BusFault_Handler                         0x08000207   Thumb Code     4  gd32f30x_it.o(i.BusFault_Handler)
    DebugMon_Handler                         0x0800020b   Thumb Code     2  gd32f30x_it.o(i.DebugMon_Handler)
    HardFault_Handler                        0x0800020d   Thumb Code     4  gd32f30x_it.o(i.HardFault_Handler)
    MemManage_Handler                        0x08000211   Thumb Code     4  gd32f30x_it.o(i.MemManage_Handler)
    NMI_Handler                              0x08000215   Thumb Code     2  gd32f30x_it.o(i.NMI_Handler)
    PendSV_Handler                           0x08000241   Thumb Code     2  gd32f30x_it.o(i.PendSV_Handler)
    SVC_Handler                              0x08000243   Thumb Code     2  gd32f30x_it.o(i.SVC_Handler)
    SysTick_Handler                          0x08000245   Thumb Code     8  gd32f30x_it.o(i.SysTick_Handler)
    SystemInit                               0x0800024d   Thumb Code    66  system_gd32f30x.o(i.SystemInit)
    UsageFault_Handler                       0x0800029d   Thumb Code     4  gd32f30x_it.o(i.UsageFault_Handler)
    __scatterload_copy                       0x080002a1   Thumb Code    14  handlers.o(i.__scatterload_copy)
    __scatterload_null                       0x080002af   Thumb Code     2  handlers.o(i.__scatterload_null)
    __scatterload_zeroinit                   0x080002b1   Thumb Code    14  handlers.o(i.__scatterload_zeroinit)
    delay_1ms                                0x080002c1   Thumb Code    16  systick.o(i.delay_1ms)
    delay_decrement                          0x080002d5   Thumb Code    18  systick.o(i.delay_decrement)
    dma_channel_enable                       0x080002ed   Thumb Code    50  gd32f30x_dma.o(i.dma_channel_enable)
    dma_circulation_disable                  0x0800031f   Thumb Code    50  gd32f30x_dma.o(i.dma_circulation_disable)
    dma_deinit                               0x08000351   Thumb Code   112  gd32f30x_dma.o(i.dma_deinit)
    dma_flag_get                             0x080003c1   Thumb Code    24  gd32f30x_dma.o(i.dma_flag_get)
    dma_init                                 0x080003d9   Thumb Code   308  gd32f30x_dma.o(i.dma_init)
    dma_memory_to_memory_disable             0x0800050d   Thumb Code    50  gd32f30x_dma.o(i.dma_memory_to_memory_disable)
    gd_eval_com_init                         0x08000559   Thumb Code   122  gd32f303e_eval.o(i.gd_eval_com_init)
    gd_eval_led_init                         0x080005f1   Thumb Code    50  gd32f303e_eval.o(i.gd_eval_led_init)
    gd_eval_led_off                          0x08000631   Thumb Code    16  gd32f303e_eval.o(i.gd_eval_led_off)
    gd_eval_led_on                           0x08000649   Thumb Code    16  gd32f303e_eval.o(i.gd_eval_led_on)
    gpio_init                                0x08000661   Thumb Code   164  gd32f30x_gpio.o(i.gpio_init)
    led_flash                                0x08000705   Thumb Code    80  main.o(i.led_flash)
    led_init                                 0x08000755   Thumb Code    28  main.o(i.led_init)
    main                                     0x08000771   Thumb Code   202  main.o(i.main)
    memory_compare                           0x08000851   Thumb Code    36  main.o(i.memory_compare)
    rcu_clock_freq_get                       0x08000875   Thumb Code   310  gd32f30x_rcu.o(i.rcu_clock_freq_get)
    rcu_periph_clock_enable                  0x080009cd   Thumb Code    28  gd32f30x_rcu.o(i.rcu_periph_clock_enable)
    rcu_periph_reset_disable                 0x080009ed   Thumb Code    28  gd32f30x_rcu.o(i.rcu_periph_reset_disable)
    rcu_periph_reset_enable                  0x08000a0d   Thumb Code    28  gd32f30x_rcu.o(i.rcu_periph_reset_enable)
    systick_config                           0x08000b45   Thumb Code    74  systick.o(i.systick_config)
    usart_baudrate_set                       0x08000b95   Thumb Code   140  gd32f30x_usart.o(i.usart_baudrate_set)
    usart_deinit                             0x08000c29   Thumb Code   136  gd32f30x_usart.o(i.usart_deinit)
    usart_dma_config                         0x08000cb9   Thumb Code   162  main.o(i.usart_dma_config)
    usart_dma_receive_config                 0x08000d6d   Thumb Code    16  gd32f30x_usart.o(i.usart_dma_receive_config)
    usart_dma_transmit_config                0x08000d7d   Thumb Code    16  gd32f30x_usart.o(i.usart_dma_transmit_config)
    usart_enable                             0x08000d8d   Thumb Code    10  gd32f30x_usart.o(i.usart_enable)
    usart_receive_config                     0x08000d97   Thumb Code    16  gd32f30x_usart.o(i.usart_receive_config)
    usart_transmit_config                    0x08000da7   Thumb Code    16  gd32f30x_usart.o(i.usart_transmit_config)
    Region$$Table$$Base                      0x08000db8   Number         0  anon$$obj.o(Region$$Table)
    Region$$Table$$Limit                     0x08000dd8   Number         0  anon$$obj.o(Region$$Table)
    tx_buffer                                0x20000000   Data         256  main.o(.data)
    transfer_status                          0x20000100   Data           1  main.o(.data)
    SystemCoreClock                          0x20000108   Data           4  system_gd32f30x.o(.data)
    rx_buffer                                0x20000198   Data         256  main.o(.bss)
    __initial_sp                             0x20000698   Data           0  startup_gd32f30x_hd.o(STACK)



==============================================================================

Memory Map of the image

  Image Entry point : 0x08000131

  Load Region LR_IROM1 (Base: 0x08000000, Size: 0x00000f70, Max: 0x00080000, ABSOLUTE, COMPRESSED[0x00000f28])

    Execution Region ER_IROM1 (Base: 0x08000000, Size: 0x00000dd8, Max: 0x00080000, ABSOLUTE)

    Base Addr    Size         Type   Attr      Idx    E Section Name        Object

    0x08000000   0x00000130   Data   RO         4321    RESET               startup_gd32f30x_hd.o
    0x08000130   0x00000000   Code   RO         4326  * .ARM.Collect$$$$00000000  mc_w.l(entry.o)
    0x08000130   0x00000004   Code   RO         4333    .ARM.Collect$$$$00000001  mc_w.l(entry2.o)
    0x08000134   0x00000004   Code   RO         4336    .ARM.Collect$$$$00000004  mc_w.l(entry5.o)
    0x08000138   0x00000000   Code   RO         4338    .ARM.Collect$$$$00000008  mc_w.l(entry7b.o)
    0x08000138   0x00000000   Code   RO         4340    .ARM.Collect$$$$0000000A  mc_w.l(entry8b.o)
    0x08000138   0x00000008   Code   RO         4341    .ARM.Collect$$$$0000000B  mc_w.l(entry9a.o)
    0x08000140   0x00000000   Code   RO         4343    .ARM.Collect$$$$0000000D  mc_w.l(entry10a.o)
    0x08000140   0x00000000   Code   RO         4345    .ARM.Collect$$$$0000000F  mc_w.l(entry11a.o)
    0x08000140   0x00000004   Code   RO         4334    .ARM.Collect$$$$00002712  mc_w.l(entry2.o)
    0x08000144   0x00000024   Code   RO         4322    .text               startup_gd32f30x_hd.o
    0x08000168   0x00000024   Code   RO         4329    .text               mc_w.l(memcpya.o)
    0x0800018c   0x00000024   Code   RO         4347    .text               mc_w.l(init.o)
    0x080001b0   0x00000056   Code   RO         4357    .text               mc_w.l(__dczerorl2.o)
    0x08000206   0x00000004   Code   RO          159    i.BusFault_Handler  gd32f30x_it.o
    0x0800020a   0x00000002   Code   RO          160    i.DebugMon_Handler  gd32f30x_it.o
    0x0800020c   0x00000004   Code   RO          161    i.HardFault_Handler  gd32f30x_it.o
    0x08000210   0x00000004   Code   RO          162    i.MemManage_Handler  gd32f30x_it.o
    0x08000214   0x00000002   Code   RO          163    i.NMI_Handler       gd32f30x_it.o
    0x08000216   0x00000002   PAD
    0x08000218   0x00000028   Code   RO          246    i.NVIC_SetPriority  systick.o
    0x08000240   0x00000002   Code   RO          164    i.PendSV_Handler    gd32f30x_it.o
    0x08000242   0x00000002   Code   RO          165    i.SVC_Handler       gd32f30x_it.o
    0x08000244   0x00000008   Code   RO          166    i.SysTick_Handler   gd32f30x_it.o
    0x0800024c   0x00000050   Code   RO          290    i.SystemInit        system_gd32f30x.o
    0x0800029c   0x00000004   Code   RO          167    i.UsageFault_Handler  gd32f30x_it.o
    0x080002a0   0x0000000e   Code   RO         4351    i.__scatterload_copy  mc_w.l(handlers.o)
    0x080002ae   0x00000002   Code   RO         4352    i.__scatterload_null  mc_w.l(handlers.o)
    0x080002b0   0x0000000e   Code   RO         4353    i.__scatterload_zeroinit  mc_w.l(handlers.o)
    0x080002be   0x00000002   PAD
    0x080002c0   0x00000014   Code   RO          247    i.delay_1ms         systick.o
    0x080002d4   0x00000018   Code   RO          248    i.delay_decrement   systick.o
    0x080002ec   0x00000032   Code   RO         1360    i.dma_channel_enable  gd32f30x_dma.o
    0x0800031e   0x00000032   Code   RO         1361    i.dma_circulation_disable  gd32f30x_dma.o
    0x08000350   0x00000070   Code   RO         1363    i.dma_deinit        gd32f30x_dma.o
    0x080003c0   0x00000018   Code   RO         1365    i.dma_flag_get      gd32f30x_dma.o
    0x080003d8   0x00000134   Code   RO         1366    i.dma_init          gd32f30x_dma.o
    0x0800050c   0x00000032   Code   RO         1374    i.dma_memory_to_memory_disable  gd32f30x_dma.o
    0x0800053e   0x00000002   PAD
    0x08000540   0x00000018   Code   RO         1378    i.dma_periph_and_channel_check  gd32f30x_dma.o
    0x08000558   0x00000098   Code   RO         4263    i.gd_eval_com_init  gd32f303e_eval.o
    0x080005f0   0x00000040   Code   RO         4266    i.gd_eval_led_init  gd32f303e_eval.o
    0x08000630   0x00000018   Code   RO         4267    i.gd_eval_led_off   gd32f303e_eval.o
    0x08000648   0x00000018   Code   RO         4268    i.gd_eval_led_on    gd32f303e_eval.o
    0x08000660   0x000000a4   Code   RO         2083    i.gpio_init         gd32f30x_gpio.o
    0x08000704   0x00000050   Code   RO            3    i.led_flash         main.o
    0x08000754   0x0000001c   Code   RO            4    i.led_init          main.o
    0x08000770   0x000000e0   Code   RO            5    i.main              main.o
    0x08000850   0x00000024   Code   RO            6    i.memory_compare    main.o
    0x08000874   0x00000158   Code   RO         2596    i.rcu_clock_freq_get  gd32f30x_rcu.o
    0x080009cc   0x00000020   Code   RO         2614    i.rcu_periph_clock_enable  gd32f30x_rcu.o
    0x080009ec   0x00000020   Code   RO         2617    i.rcu_periph_reset_disable  gd32f30x_rcu.o
    0x08000a0c   0x00000020   Code   RO         2618    i.rcu_periph_reset_enable  gd32f30x_rcu.o
    0x08000a2c   0x00000110   Code   RO          291    i.system_clock_120m_hxtal  system_gd32f30x.o
    0x08000b3c   0x00000008   Code   RO          292    i.system_clock_config  system_gd32f30x.o
    0x08000b44   0x00000050   Code   RO          249    i.systick_config    systick.o
    0x08000b94   0x00000094   Code   RO         3891    i.usart_baudrate_set  gd32f30x_usart.o
    0x08000c28   0x00000090   Code   RO         3896    i.usart_deinit      gd32f30x_usart.o
    0x08000cb8   0x000000b4   Code   RO            7    i.usart_dma_config  main.o
    0x08000d6c   0x00000010   Code   RO         3898    i.usart_dma_receive_config  gd32f30x_usart.o
    0x08000d7c   0x00000010   Code   RO         3899    i.usart_dma_transmit_config  gd32f30x_usart.o
    0x08000d8c   0x0000000a   Code   RO         3900    i.usart_enable      gd32f30x_usart.o
    0x08000d96   0x00000010   Code   RO         3924    i.usart_receive_config  gd32f30x_usart.o
    0x08000da6   0x00000010   Code   RO         3938    i.usart_transmit_config  gd32f30x_usart.o
    0x08000db6   0x00000002   PAD
    0x08000db8   0x00000020   Data   RO         4349    Region$$Table       anon$$obj.o


    Execution Region RW_IRAM1 (Base: 0x20000000, Size: 0x00000698, Max: 0x00010000, ABSOLUTE, COMPRESSED[0x00000150])

    Base Addr    Size         Type   Attr      Idx    E Section Name        Object

    0x20000000   0x00000101   Data   RW            9    .data               main.o
    0x20000101   0x00000003   PAD
    0x20000104   0x00000004   Data   RW          250    .data               systick.o
    0x20000108   0x00000004   Data   RW          293    .data               system_gd32f30x.o
    0x2000010c   0x0000008c   Data   RW         4270    .data               gd32f303e_eval.o
    0x20000198   0x00000100   Zero   RW            8    .bss                main.o
    0x20000298   0x00000400   Zero   RW         4319    STACK               startup_gd32f30x_hd.o


==============================================================================

Image component sizes


      Code (inc. data)   RO Data    RW Data    ZI Data      Debug   Object Name

       264         60          0        140          0       3521   gd32f303e_eval.o
       618          6          0          0          0      10177   gd32f30x_dma.o
       164          0          0          0          0        948   gd32f30x_gpio.o
        32          0          0          0          0       4242   gd32f30x_it.o
       440         46          0          0          0      20480   gd32f30x_rcu.o
       366         16          0          0          0       5057   gd32f30x_usart.o
       548         40          0        257        256      41124   main.o
        36          8        304          0       1024        932   startup_gd32f30x_hd.o
       360         30          0          4          0       2191   system_gd32f30x.o
       164         24          0          4          0      28810   systick.o

    ----------------------------------------------------------------------
      2998        230        336        408       1280     117482   Object Totals
         0          0         32          0          0          0   (incl. Generated)
         6          0          0          3          0          0   (incl. Padding)

    ----------------------------------------------------------------------

      Code (inc. data)   RO Data    RW Data    ZI Data      Debug   Library Member Name

        86          0          0          0          0          0   __dczerorl2.o
         0          0          0          0          0          0   entry.o
         0          0          0          0          0          0   entry10a.o
         0          0          0          0          0          0   entry11a.o
         8          4          0          0          0          0   entry2.o
         4          0          0          0          0          0   entry5.o
         0          0          0          0          0          0   entry7b.o
         0          0          0          0          0          0   entry8b.o
         8          4          0          0          0          0   entry9a.o
        30          0          0          0          0          0   handlers.o
        36          8          0          0          0         68   init.o
        36          0          0          0          0         68   memcpya.o

    ----------------------------------------------------------------------
       210         16          0          0          0        136   Library Totals
         2          0          0          0          0          0   (incl. Padding)

    ----------------------------------------------------------------------

      Code (inc. data)   RO Data    RW Data    ZI Data      Debug   Library Name

       208         16          0          0          0        136   mc_w.l

    ----------------------------------------------------------------------
       210         16          0          0          0        136   Library Totals

    ----------------------------------------------------------------------

==============================================================================


      Code (inc. data)   RO Data    RW Data    ZI Data      Debug   

      3208        246        336        408       1280     114002   Grand Totals
      3208        246        336        336       1280     114002   ELF Image Totals (compressed)
      3208        246        336        336          0          0   ROM Totals

==============================================================================

    Total RO  Size (Code + RO Data)                 3544 (   3.46kB)
    Total RW  Size (RW Data + ZI Data)              1688 (   1.65kB)
    Total ROM Size (Code + RO Data + RW Data)       3880 (   3.79kB)

==============================================================================

