:020000040800F2
:10000000A0040020450100083D0200083502000858
:10001000390200082F020008C50200080000000095
:100020000000000000000000000000006B0200085B
:100030003302000800000000690200086D02000899
:100040005F0100085F0100085F0100085F01000810
:100050005F0100085F0100085F0100085F01000800
:100060005F0100085F0100085F0100085F010008F0
:100070005F0100085F0100085F0100085F010008E0
:100080005F0100085F0100085F0100085F010008D0
:100090005F0100085F0100085F0100085F010008C0
:1000A0005F0100085F0100085F0100085F010008B0
:1000B0005F0100085F0100085F0100085F010008A0
:1000C0005F0100085F0100085F0100085F01000890
:1000D0005F0100085F0100085F0100085F01000880
:1000E0005F0100085F0100085F0100085F01000870
:1000F0005F0100085F0100085F0100085F01000860
:100100005F0100085F0100085F0100085F0100084F
:100110005F0100085F0100085F0100085F0100083F
:100120005F0100085F0100085F0100085F0100082F
:10013000DFF80CD000F04AF8004800477D110008B5
:10014000A00400200648804706480047FEE7FEE777
:10015000FEE7FEE7FEE7FEE7FEE7FEE7FEE7FEE777
:1001600075020008310100082DE9F05F0546002006
:1001700092469B4688460646814640241BE0284618
:1001800041464746224600F042F853465A46C01AB6
:10019000914110D311461846224600F029F82D1A35
:1001A00067EB01084F4622460120002100F020F8AD
:1001B00017EB00094E41201EA4F10104DFDC484684
:1001C00031462A464346BDE8F09F0000064C074DE5
:1001D00006E0E06840F0010394E807009847103417
:1001E000AC42F6D3FFF7A8FF10170008301700083D
:1001F000202A04DB203A00FA02F1002070479140E7
:10020000C2F1200320FA03F3194390407047202ADB
:1002100004DB203A21FA02F00021704721FA02F3B0
:10022000D040C2F12002914008431946704700BFF8
:10023000FEE7704700BFFEE700BFFEE77047000023
:1002400010B5002807DA0A07140E054A00F00F035C
:100250001B1FD45403E00A07130E024A135410BDA7
:1002600018ED00E000E400E07047704710B500F0C2
:1002700087FA10BD10B51048006840F470000E49B0
:1002800008600E48006840F001000C49086000203A
:100290004860C86208460068094908400749086084
:1002A0004FF41F0088600846006820F48020086032
:1002B00001F048F910BD000088ED00E00010024098
:1002C000FFFFF6FE00BFFEE70FB4054B10B503A914
:1002D000044A029800F018F810BC5DF814FB000006
:1002E000890900089C00002002E008C8121F08C10C
:1002F000002AFAD170477047002001E001C1121FA7
:10030000002AFBD1704700002DE9FF4F8DB00F464A
:100310000546002606E025280BD0DDE90F129047A0
:100320006D1C761C28780028F5D111B03046BDE848
:10033000F08F0024A246A1460122EC4900E00443CC
:1003400015F8013F203B02FA03F00842F7D1287864
:100350002A2810D06FF02F022878A0F13001092947
:1003600014D80AEB8A0102EB410144F0020400EBCD
:10037000010A6D1CF0E701CF5FEA000A03D544F4DF
:100380000054CAF1000A44F002046D1C28782E289B
:1003900017D115F8010F44F004042A280ED06FF08D
:1003A0002F022878A0F1300109290AD809EB890128
:1003B00002EB410100EB01096D1CF2E757F8049BC9
:1003C0006D1C28786C280FD006DC4C2817D06828C4
:1003D0000DD06A2814D104E0742810D07A280FD1E7
:1003E0000DE044F400140AE044F4801401E044F405
:1003F00040146978814202D104F580146D1C6D1C93
:100400002A786E2A1FD00CDC632A31D004DC002A43
:100410008BD0582A11D1A3E0642A68D0692A0CD164
:1004200065E0732A2ED004DC6F2A73D0702A04D1C1
:100430009BE0752A6FD0782A6ED01046DDE90F1246
:100440009047761C50E1C4F30250022806D00328DE
:1004500009D0042801CF09D0066045E101CFF1178A
:10046000C0E9006140E101CF06803DE106703BE15B
:1004700017F8040B8DF8000000208DF80100EB4602
:10048000012003E057F804BB4FF0FF3061074FF045
:10049000000102D40DE008F10101884649450FDA58
:1004A0008045F8DB1BF808100029F4D108E008F1BA
:1004B000010188468142FADB1BF808100029F6D1B9
:1004C000DDE90F23AAEB08008146214600F036F94A
:1004D000304400EB080604E0DDE90F121BF8010BC5
:1004E0009047B8F10108F7D221464846F7E00A21C3
:1004F000C4F302534FF0000B0891022B04D001CF3C
:10050000C117032B09D00AE0FF1D27F00707F7E802
:10051000020108E032E01FE020E000B2C117042B26
:1005200001D140B2C117031E71F1000307DA4FF089
:10053000000CD0EB0C006CEB01012D2302E0230535
:1005400004D52B238DF82430012303E0E30701D0E9
:100550002023F7E7984658E00A2110E010210EE02A
:1005600010204FF0000B08900CE010214FF0000B12
:1005700044F004044FF00809089103E008214FF00B
:10058000000B0891C4F30253022B04D001CF0021C9
:10059000032B06D006E0FF1D27F00707F7E802014E
:1005A00003E080B2042B00D1C0B24FF00008230753
:1005B0002BD5702A07D0DDF820C08CF0100C5CEA37
:1005C0000B0C05D00EE040238DF82430012308E009
:1005D00050EA010306D030238DF824308DF8252011
:1005E00002239846DDF820C08CF0080C5CEA0B0C66
:1005F0000BD150EA010301D1630706D530238DF8F2
:1006000024304FF00108A9F10109582A04D038A27A
:100610000B9208AA0A920BE03AA2F9E75B46089A05
:10062000FFF7A2FD0B9B9B5C0A9A521E0A92137065
:1006300050EA0102F2D10A98ADEB000000F1200B64
:10064000600702D524F4803401E04FF00109D94558
:1006500002DDA9EB0B0000E0002000EB0B014144A0
:100660000890AAEB010AE00306D4DDE90F23214636
:10067000504600F063F806444FF0000908E009A96D
:1006800011F80900DDE90F12904709F10109761C04
:10069000C145F4DBE0030CD5DDE90F2321465046CC
:1006A00000F04CF8064404E0DDE90F1230209047DA
:1006B000761C0899481E08900029F5DC08E00A9885
:1006C0000A990078491C0A91DDE90F129047761CBF
:1006D000BBF10001ABF1010BF1DC21465046DDE935
:1006E0000F2300F019F806446D1C1BE609280100D1
:1006F0003031323334353637383961626364656698
:100700000000000030313233343536373839414259
:1007100043444546000000002DE9F0410446002511
:100720001E461746880404D405E039462020B04709
:100730006D1C641EF9D52846BDE8F0812DE9F04115
:10074000044600251E469046C80301D5302700E028
:100750002027880404D505E041463846B0476D1C83
:10076000641EF9D52846BDE8F08100000349086001
:1007700000BF024909680029FBD17047040000202E
:100780000448006820B103480068401E0149086021
:100790007047000004000020F8B504460D461646D8
:1007A00004480096017823462A46034800F098FA48
:1007B000F8BD000098000020005400402DE9F047EB
:1007C00007460D4614464FF00009C846C2460026AB
:1007D0002846E91705EB5171C910A5EBC10101F0DD
:1007E000FF0ACAF10800C6B22046E11704EB5171B6
:1007F000C1F3C709E11704EB5171C910A4EBC101A2
:1008000001F0FF08BAF1000F1DD10AE008222946C5
:10081000384600F05DF800F06DF805F10800C5B24B
:1008200008375FEA0900A9F1010101F0FF09EDD1E4
:10083000B8F1000F49D042462946384600F048F842
:1008400000F058F841E0B44207DAE2B229463846EF
:1008500000F03EF800F04EF837E0A01B84B22046CE
:10086000E11704EB5171C1F3C709E11704EB5171B2
:10087000C910A4EBC10101F0FF084EB13246294670
:10088000384600F025F800F035F8A819C5B237440D
:100890000AE008222946384600F01AF800F02AF843
:1008A00005F10800C5B208375FEA0900A9F10101A6
:1008B00001F0FF09EDD1B8F1000F06D042462946FC
:1008C000384600F005F800F015F8BDE8F0870000A4
:1008D000F8B504460D4616460448009601782346AE
:1008E0002A46034800F0A2FAF8BD00009800002054
:1008F0000054004008B5002000903DE000BF1F49B3
:100900001F4800F0BFFB0028F9D11D4800F0E9FBAB
:1009100000BF01211A4800F0B5FB0028F9D06FF0A4
:10092000010218480188164800F0C5FB00BF1448B2
:1009300014300068009040F20241009808400028FE
:10094000F5D0009800F0020038B102210C4800F008
:1009500090FB0B4800F0CAFB08BD4FF480610848CB
:1009600000F087FB064800F0C1FB00BF04480068A8
:1009700000F400700028F9D1C0E7000002000080F8
:10098000005400409800002070B504460D46E1B2C6
:10099000054800F04DFE00BF0721034800F099FE16
:1009A0000028F9D0204670BD0038014070B50546DA
:1009B00000241D48854200D103E01C48854200D137
:1009C00001241B4931F8140000F004FD194931F8E5
:1009D000140000F0FFFC184951F82430174951F871
:1009E00024000322182100F077F8154951F824302B
:1009F000124951F824000322042100F06DF8284622
:100A000000F01AFE4FF4E131284600F0C7FD042142
:100A1000284600F06DFE0821284600F071FE2846A9
:100A200000F052FE70BD000000380140004400405C
:100A3000480000202C000020300000204000002052
:100A40003800002010B504460B4931F8140000F0BE
:100A5000C1FC0A4951F82430094951F82400032205
:100A6000102100F039F8054850F82400044951F8E5
:100A70002410486110BD00004C0000201C00002024
:100A80000C000020034951F82010034A52F820209E
:100A9000516170471C0000200C000020034951F8F0
:100AA0002010034A52F82020116170471C000020DA
:100AB0000C00002010B540F2036000F08BFC40F207
:100AC000157000F087FCC02303221C21014800F0B0
:100AD00003F810BD000C0140F0B50C461646002589
:100AE000002204F00F0504F0100747B1042E05D1D1
:100AF00045F00305C76B1F43C76300E03543002182
:100B000018E001278F401F4097B102684FEA810C1F
:100B10000F2707FA0CF7BA438F0005FA07F73A4395
:100B2000282C01D1436102E0482C00D1036102600E
:100B30004F1CB9B20829E4D308211CE001278F40DB
:100B40001F40B7B14268A1F108074FEA870C0F2791
:100B500007FA0CF7BA43A1F10807BF0005FA07F737
:100B60003A43282C01D1436102E0482C00D10361B3
:100B700042604F1CB9B21029E0D3F0BD10B5ADF5FD
:100B8000007D2BA0FFF7A0FB002413E040A90C552B
:100B900040A8015D2CA0FFF797FBE11704EB117152
:100BA0000911A4EB01110F2902D126A0FFF78CFB3C
:100BB000601C84B2FF2CE9DD4FF48072002140A854
:100BC000FFF7FCFD22A0FFF77FFB4FF480720021AE
:100BD0006846FFF7E1FD002423E01DF8040040A96A
:100BE000095D88420BD01DF8041017A0FFF76CFBBD
:100BF0001DA0FFF769FB01200DF5007D10BD1DF85C
:100C0000041011A0FFF760FBE11704EB117109114B
:100C1000A4EB01110F2902D10AA0FFF755FB601CBC
:100C200084B2FF2CD9DD1BA0FFF74EFB0020E3E7C9
:100C30000D0A415432344330322077726974696E40
:100C4000672E2E2E0D0A00003078253032582000F5
:100C5000415432344330322072656164696E672ECC
:100C60002E2E0D0A000000004572723A6461746114
:100C7000207265616420616E6420777269746520FA
:100C80006172656E2774206D61746368696E672E8A
:100C90000A0D00004932432D415432344330322092
:100CA0007465737420706173736564210A0D0000AC
:100CB000012904D1026842F48062026003E0026804
:100CC00022F480620260704721B9026842F4006237
:100CD000026003E0026822F40062026070470000D4
:100CE0002DE9F04180460F4616461D46069C00BF82
:100CF0004C494D4800F0C6F90028F9D1022C03D127
:100D000000214948FFF7E0FF474800F0EAF900BF3B
:100D10000121454800F0B6F90028F9D06FF0010232
:100D20003946414800F0C7F900BF02213E4800F0B3
:100D3000A9F90028F9D002213B4800F09AF900BF38
:100D40008021394800F09EF90128F9D1364800F099
:100D50008BF93146344800F07DF900BF0421324858
:100D600000F090F90028F9D02F4800F0BAF900BF40
:100D700001212D4800F086F90028F9D001223946DA
:100D8000294800F098F9032C03DA00212648FFF7E0
:100D90008FFF00BF0221244800F074F90028F9D029
:100DA0000221214800F065F9012C02D11E4800F013
:100DB0009DF924E0032C0AD100BF04211A4800F059
:100DC00061F90028F9D000211748FFF771FF022CC4
:100DD00009D100BF0421144800F054F90028F9D0CB
:100DE000114800F083F940210F4800F04BF930B171
:100DF0000D4800F02BF928706D1C601E84B2002C89
:100E0000D8D100BF0848006800F400700028F9D16C
:100E100001210548FFF74CFF01210348FFF754FF6C
:100E2000BDE8F08102000080005400402DE9F0414F
:100E300005460F4616461C46DDF8188000BF2949B6
:100E4000284600F01FF90028F9D1284600F049F99A
:100E500000BF0121284600F015F90028F9D06FF0F5
:100E600001023946284600F026F900BF0221284633
:100E700000F008F90028F9D00221284600F0F9F81E
:100E800000BF8021284600F0FDF80128F9D1314645
:100E9000284600F0DFF800BF0421284600F0F2F8F1
:100EA0000028F9D00BE02178284600F0D3F8641C24
:100EB00000BF0421284600F0E5F80028F9D05FEAD9
:100EC0000800A8F1010101F0FF08ECD1284600F06C
:100ED0000DF900BF286800F400700028FAD1BDE8C1
:100EE000F0810000020000802DE9F05F04460E460C
:100EF0009146022000F0C2F907464348B7FBF0F8DC
:100F0000B8F17F0F01D34FF07F08D4F804B02BF075
:100F10007F0B4BEA080BC4F804B03C48864218D853
:100F20003948B7FBF0F000F1010ABAF17F0F02D3A4
:100F30007F20206201E0C4F820A07000B7FBF0F52C
:100F4000042D00D20425E069C5F30B010843E061DC
:100F500058E02F4886422CD84FF4967008FB00F0DA
:100F60004FF47A71B0FBF1F0401C2062B9F1000F30
:100F700008D106EB4600B7FBF0F5E06920F48040AD
:100F8000E06109E006EBC60000EB0610B7FBF0F5E8
:100F9000E06940F48040E061C5F30B0008B945F01A
:100FA0000105E06940F40040E061E0692843E06148
:100FB00028E0C8EB0810C0004FF47A71B0FBF1F0E4
:100FC000401C2062B9F1000F08D106EB4600B7FBC8
:100FD000F0F5E06920F48040E06109E006EBC6002E
:100FE00000EB0610B7FBF0F5E06940F48040E061EB
:100FF000E06940F40040E061E0692843E0610120DD
:10100000C4F89000BDE8F09F40420F00A0860100A8
:10101000801A060010B540F2157000F0DBF90022CE
:1010200008490948FFF760FFA0230022114606483F
:1010300000F04BF8044800F017F801210248FFF7D0
:1010400037FE10BD801A06000054004001460869B2
:10105000C0B27047CAB2026170470000A0200149C7
:101060000880704798000020016841F0010101608C
:101070007047022902D14269826902E042698A43CB
:101080004261704730B502460023002001F0004362
:10109000B3F1004F07D194698DB22C400CB10120FF
:1010A00008E0002006E054698DB22C400CB101200C
:1010B00000E0002030BD12F1020F02D121F0010149
:1010C00001E041F001010161704730B50C4600219B
:1010D000016821F002012143016042EA03058560B5
:1010E00030BD016841F4807101607047016841F4CE
:1010F00000710160704710B50020FFF7A3FC0120CC
:10110000FFF7A0FC0220FFF79DFC0320FFF79AFCED
:101110000020FFF7B7FC0120FFF7B4FC0220FFF727
:10112000B1FC0320FFF7AEFC10BD10B5044634B18E
:10113000012C08D0022C0AD0032C10D10BE0002087
:10114000FFF7ACFC18E00120FFF7A8FC14E0022038
:10115000FFF7A4FC10E00320FFF7A0FC0CE0002048
:10116000FFF79CFC0120FFF799FC0220FFF796FC9B
:101170000320FFF793FC00BF00BF10BD00F0E6F9AD
:10118000FFF7B9FF2548FFF711FC25A0FFF79CF8F2
:10119000FFF790FCFFF73EFFFFF760FF27A0FFF788
:1011A00093F82F492FA0FFF78FF8FFF7E7FC38BB24
:1011B00025E00020FFF766FC0120FFF763FC02201A
:1011C000FFF760FC0320FFF75DFC2B490C78E1176B
:1011D00004EB91718910A4EB8101C8B2FFF7A5FF60
:1011E00025480078401C24490870084600780428E7
:1011F00001DB002008704FF4FA70FFF7B7FAD8E768
:101200000020FFF74BFC0120FFF748FC0220FFF70E
:1012100045FC0320FFF742FC00BFFEE70038014019
:101220004932432D323443303220636F6E66696732
:10123000757265642E2E2E2E0A0D00000D0A54685C
:101240006520493243302069732068617264776198
:10125000726520696E7465726661636520000000C6
:10126000801A06000D0A5468652073706565642055
:101270006973202564000000000000202DE9F04F74
:101280008CB0074600200A904AA090E8004CC06845
:10129000CDE905BECDF810A007900FF21C1ADAE9CF
:1012A000000ACDE9020A0FF2101ADAE9000ACDE9C4
:1012B000000A44484068C0F381000B900B9820B1AD
:1012C000012804D002283FD103E03F4A3EE03E4AD5
:1012D0003CE03C48406800F4803CBCF5803F12D1C3
:1012E0003848C06A00F08048B8F1000F01D1364C90
:1012F00000E0364C3348406800F40039B9F5003F4F
:1013000002D1334C00E0324C2E484068C0F3834198
:101310002C48406800F0006008B141F010012948F5
:10132000406800F0804008B141F020010F2901D24F
:10133000891C06E00F2903D33E2901D8491C00E08F
:101340003F2104FB01F201E01F4A00BF00BF1D481E
:101350004068C0F3031504A8465D22FA06F3194855
:101360004068C0F3022502A8465D23FA06F0099002
:1013700014484068C0F3C2251DF8056023FA06F042
:10138000089037B1012F06D0022F06D0032F0AD1C3
:1013900006E00A9208E00A9306E009980A9003E042
:1013A00008980A9000E000BF00BF0A980CB0BDE8A2
:1013B000F08F0000000000000000000001020304A4
:1013C000060708090010024000127A00006CDC02D7
:1013D00000093D00064A02EB9011096800F01F0366
:1013E00001229A401143024B03EB901211607047A7
:1013F00000100240064A02EB9011096800F01F033A
:1014000001229A409143024B03EB90121160704706
:1014100000100240064A02EB9011096800F01F0319
:1014200001229A401143024B03EB90121160704766
:1014300000100240002000213E4A126842F480322F
:101440003C4B1A6000BF401C3A4A126802F400315B
:1014500011B9B0F5006FF6D1364A126802F40032C5
:101460000AB900BFFEE7334AD26942F08052314BDD
:10147000DA61314A126842F440422F4B1A602D4A19
:1014800052682C4B5A601A4652685A601A46526883
:1014900042F480625A601A46526822F440325A601E
:1014A0001A46526842F440325A601A465268234B38
:1014B0001A40204B5A601A465268214B1A431D4B62
:1014C0005A601A46126842F080721A6000BF194AC8
:1014D000126802F00072002AF9D0174A126842F42A
:1014E0008032154B1A6000BF134A526802F48032F2
:1014F000002AF9D0104A126842F400320E4B1A60EA
:1015000000BF0D4A526802F40032002AF9D0094A9D
:10151000526822F00302074B5A601A46526842F0A2
:1015200002025A6000BF034A526802F00802002A11
:10153000F9D070470010024000700040FFFFC3B7B1
:101540000000340810B5FFF775FF10BD10B5124844
:1015500000684FF47A71B0FBF1F4601EB0F1807F47
:1015600001D301200FE0601E4FF0E02148610F2100
:101570004FF0FF30FEF764FE00204FF0E02188615D
:1015800007200861002008B100BFFEE70021481EC7
:10159000FEF756FE10BD0000080000202DE9F047C0
:1015A00004460D460027B946B84600261E49601A73
:1015B0008C421CD006DC1D48204470B1B0F5806F11
:1015C0001FD10FE0B0F5806F16D0B0F56C4F18D179
:1015D0000320FFF753FE074614E00220FFF74EFEFC
:1015E00007460FE00220FFF749FE07460AE0022007
:1015F000FFF744FE074605E00220FFF73FFE0746DF
:1016000000E000BF00BF07EB5500B0FBF5F64FF65A
:10161000F07006EA000906F00F08A16849EA080020
:101620000143A160BDE8F087004C004000BCFFBF53
:10163000C1F308024260704710B504462049601AA1
:101640008C4228D006DC1F48204490B1B0F5806F52
:1016500033D117E0B0F5806F26D0B0F56C4F2CD1A8
:1016600040F20E30FFF7D6FE40F20E30FFF7C2FE1A
:1016700024E040F21140FFF7CDFE40F21140FFF7A9
:10168000B9FE1BE040F21240FFF7C4FE40F21240E8
:10169000FFF7B0FE12E040F21340FFF7BBFE40F24E
:1016A0001340FFF7A7FE09E040F21440FFF7B2FE37
:1016B00040F21440FFF79EFE00E000BF00BF10BDE7
:1016C000004C004000BCFFBFC16841F40051C16044
:1016D000704710B5024602EB9110006801F01F043C
:1016E0000123A340184008B1012010BD0020FCE7F1
:1016F0000A460021C16821F004011143C16070470E
:101700000A460021C16821F008011143C1607047F9
:101710003017000800000020A0000000E8020008C8
:10172000D0170008A000002000040000F802000804
:101730000011223300000000000E2707001C0140AA
:10174000001C0140001C0140001C01400100000081
:101750000200000004000000080000000E0611074F
:101760000002000004000000000400000800000067
:1017700000080140000801400206020607060706AD
:10178000070607060008014000100140001C014048
:10179000001C0140010000000020000020000000AB
:1017A00010000000020604060706070601000000FC
:1017B00000200000200000001000000000020505CD
:1017C000000D05040628170A0000000000000000B4
:0400000508000131BD
:00000001FF
