Component: ARM Compiler 5.05 update 1 (build 106) Tool: armlink [4d0efa]

==============================================================================

Section Cross References

    main.o(i.fputc) refers to gd32f30x_usart.o(i.usart_data_transmit) for usart_data_transmit
    main.o(i.fputc) refers to gd32f30x_usart.o(i.usart_flag_get) for usart_flag_get
    main.o(i.led_config) refers to gd32f303e_eval.o(i.gd_eval_led_init) for gd_eval_led_init
    main.o(i.led_config) refers to gd32f303e_eval.o(i.gd_eval_led_off) for gd_eval_led_off
    main.o(i.led_turn_on) refers to gd32f303e_eval.o(i.gd_eval_led_on) for gd_eval_led_on
    main.o(i.main) refers to systick.o(i.systick_config) for systick_config
    main.o(i.main) refers to main.o(i.led_config) for led_config
    main.o(i.main) refers to gd32f303e_eval.o(i.gd_eval_com_init) for gd_eval_com_init
    main.o(i.main) refers to i2c_soft.o(i.IIC_Init) for IIC_Init
    main.o(i.main) refers to i2c_soft.o(i.AT24C02_Write) for AT24C02_Write
    main.o(i.main) refers to i2c_soft.o(i.AT24C02_Read) for AT24C02_Read
    main.o(i.main) refers to printf8.o(i.__0printf$8) for __2printf
    main.o(i.main) refers to gd32f303e_eval.o(i.gd_eval_led_on) for gd_eval_led_on
    main.o(i.main) refers to main.o(.data) for test_data_w
    main.o(i.main) refers to main.o(.bss) for test_data_r
    gd32f30x_it.o(i.SysTick_Handler) refers to systick.o(i.delay_decrement) for delay_decrement
    systick.o(i.delay_1ms) refers to systick.o(.data) for delay
    systick.o(i.delay_decrement) refers to systick.o(.data) for delay
==============================================================================

Removing Unused input sections from the image.

    Removing main.o(.rev16_text), (4 bytes).
    Removing main.o(.revsh_text), (4 bytes).
    Removing main.o(i.led_turn_on), (82 bytes).
    Removing gd32f30x_it.o(.rev16_text), (4 bytes).
    Removing gd32f30x_it.o(.revsh_text), (4 bytes).
    Removing systick.o(.rev16_text), (4 bytes).
    Removing systick.o(.revsh_text), (4 bytes).
    Removing system_gd32f30x.o(.rev16_text), (4 bytes).
    Removing system_gd32f30x.o(.revsh_text), (4 bytes).
    Removing system_gd32f30x.o(i.SystemCoreClockUpdate), (184 bytes).
    Removing gd32f30x_adc.o(.rev16_text), (4 bytes).
    Removing gd32f30x_adc.o(.revsh_text), (4 bytes).
    Removing gd32f30x_adc.o(i.adc_calibration_enable), (42 bytes).
    Removing gd32f30x_adc.o(i.adc_channel_length_config), (70 bytes).
    Removing gd32f30x_adc.o(i.adc_data_alignment_config), (22 bytes).
    Removing gd32f30x_adc.o(i.adc_deinit), (88 bytes).
    Removing gd32f30x_adc.o(i.adc_disable), (10 bytes).
    Removing gd32f30x_adc.o(i.adc_discontinuous_mode_config), (76 bytes).
==============================================================================

Image Symbol Table

    Local Symbols

    Symbol Name                              Value     Ov Type        Size  Object(Section)

    ../clib/microlib/division.c              0x00000000   Number         0  uldiv.o ABSOLUTE
    ../clib/microlib/division.c              0x00000000   Number         0  uidiv.o ABSOLUTE
    ../clib/microlib/init/entry.s            0x00000000   Number         0  entry10a.o ABSOLUTE
    ../clib/microlib/init/entry.s            0x00000000   Number         0  entry8a.o ABSOLUTE
    ../clib/microlib/init/entry.s            0x00000000   Number         0  entry9b.o ABSOLUTE
    ../clib/microlib/init/entry.s            0x00000000   Number         0  entry9a.o ABSOLUTE
    ../clib/microlib/init/entry.s            0x00000000   Number         0  entry8b.o ABSOLUTE
    ../clib/microlib/init/entry.s            0x00000000   Number         0  entry2.o ABSOLUTE
    ../clib/microlib/init/entry.s            0x00000000   Number         0  entry.o ABSOLUTE
    ../clib/microlib/init/entry.s            0x00000000   Number         0  entry5.o ABSOLUTE
    ../clib/microlib/init/entry.s            0x00000000   Number         0  entry7a.o ABSOLUTE
    ../clib/microlib/init/entry.s            0x00000000   Number         0  entry7b.o ABSOLUTE
    ../clib/microlib/init/entry.s            0x00000000   Number         0  entry11b.o ABSOLUTE
    ../clib/microlib/init/entry.s            0x00000000   Number         0  entry11a.o ABSOLUTE
    ../clib/microlib/init/entry.s            0x00000000   Number         0  entry10b.o ABSOLUTE
    ../clib/microlib/longlong.c              0x00000000   Number         0  llushr.o ABSOLUTE
    ../clib/microlib/longlong.c              0x00000000   Number         0  llsshr.o ABSOLUTE
    ../clib/microlib/longlong.c              0x00000000   Number         0  llshl.o ABSOLUTE
    ../clib/microlib/printf/printf.c         0x00000000   Number         0  printf8.o ABSOLUTE
    ../clib/microlib/printf/printf.c         0x00000000   Number         0  printf7.o ABSOLUTE
    ../clib/microlib/printf/printf.c         0x00000000   Number         0  printf6.o ABSOLUTE
    ../clib/microlib/printf/printf.c         0x00000000   Number         0  printf4.o ABSOLUTE
    ../clib/microlib/printf/printf.c         0x00000000   Number         0  printf3.o ABSOLUTE
    ../clib/microlib/printf/printf.c         0x00000000   Number         0  printf2.o ABSOLUTE
    ../clib/microlib/printf/printf.c         0x00000000   Number         0  printf1.o ABSOLUTE
    ../clib/microlib/printf/printf.c         0x00000000   Number         0  printf0.o ABSOLUTE
    ../clib/microlib/printf/printf.c         0x00000000   Number         0  printfb.o ABSOLUTE
    ../clib/microlib/printf/printf.c         0x00000000   Number         0  printfa.o ABSOLUTE
    ../clib/microlib/printf/printf.c         0x00000000   Number         0  printf5.o ABSOLUTE
    ../clib/microlib/printf/stubs.s          0x00000000   Number         0  stubs.o ABSOLUTE
    ../clib/microlib/stdio/streams.c         0x00000000   Number         0  stdout.o ABSOLUTE
    ../clib/microlib/stubs.s                 0x00000000   Number         0  iusefp.o ABSOLUTE
    ../fplib/microlib/fpadd.c                0x00000000   Number         0  dadd.o ABSOLUTE
    ../fplib/microlib/fpdiv.c                0x00000000   Number         0  ddiv.o ABSOLUTE
    ../fplib/microlib/fpepilogue.c           0x00000000   Number         0  depilogue.o ABSOLUTE
    ../fplib/microlib/fpfix.c                0x00000000   Number         0  dfixul.o ABSOLUTE
    ../fplib/microlib/fpmul.c                0x00000000   Number         0  dmul.o ABSOLUTE
    ..\..\..\Library\Firmware\CMSIS\GD\GD32F30x\Source\ARM\startup_gd32f30x_hd.s 0x00000000   Number         0  startup_gd32f30x_hd.o ABSOLUTE
    ..\..\..\Library\Firmware\CMSIS\GD\GD32F30x\Source\system_gd32f30x.c 0x00000000   Number         0  system_gd32f30x.o ABSOLUTE
    ..\..\..\Library\Firmware\GD32F30x_standard_peripheral\Source\gd32f30x_adc.c 0x00000000   Number         0  gd32f30x_adc.o ABSOLUTE
    ..\..\..\Library\Firmware\GD32F30x_standard_peripheral\Source\gd32f30x_bkp.c 0x00000000   Number         0  gd32f30x_bkp.o ABSOLUTE
    ..\..\..\Library\Firmware\GD32F30x_standard_peripheral\Source\gd32f30x_can.c 0x00000000   Number         0  gd32f30x_can.o ABSOLUTE
    ..\..\..\Library\Firmware\GD32F30x_standard_peripheral\Source\gd32f30x_crc.c 0x00000000   Number         0  gd32f30x_crc.o ABSOLUTE
    ..\..\..\Library\Firmware\GD32F30x_standard_peripheral\Source\gd32f30x_ctc.c 0x00000000   Number         0  gd32f30x_ctc.o ABSOLUTE
    ..\..\..\Library\Firmware\GD32F30x_standard_peripheral\Source\gd32f30x_dac.c 0x00000000   Number         0  gd32f30x_dac.o ABSOLUTE
    ..\..\..\Library\Firmware\GD32F30x_standard_peripheral\Source\gd32f30x_dbg.c 0x00000000   Number         0  gd32f30x_dbg.o ABSOLUTE
    ..\..\..\Library\Firmware\GD32F30x_standard_peripheral\Source\gd32f30x_dma.c 0x00000000   Number         0  gd32f30x_dma.o ABSOLUTE
    ..\..\..\Library\Firmware\GD32F30x_standard_peripheral\Source\gd32f30x_enet.c 0x00000000   Number         0  gd32f30x_enet.o ABSOLUTE
    ..\..\..\Library\Firmware\GD32F30x_standard_peripheral\Source\gd32f30x_exmc.c 0x00000000   Number         0  gd32f30x_exmc.o ABSOLUTE
    ..\..\..\Library\Firmware\GD32F30x_standard_peripheral\Source\gd32f30x_exti.c 0x00000000   Number         0  gd32f30x_exti.o ABSOLUTE
    ..\..\..\Library\Firmware\GD32F30x_standard_peripheral\Source\gd32f30x_fmc.c 0x00000000   Number         0  gd32f30x_fmc.o ABSOLUTE
    ..\..\..\Library\Firmware\GD32F30x_standard_peripheral\Source\gd32f30x_fwdgt.c 0x00000000   Number         0  gd32f30x_fwdgt.o ABSOLUTE
    ..\..\..\Library\Firmware\GD32F30x_standard_peripheral\Source\gd32f30x_gpio.c 0x00000000   Number         0  gd32f30x_gpio.o ABSOLUTE
    ..\..\..\Library\Firmware\GD32F30x_standard_peripheral\Source\gd32f30x_i2c.c 0x00000000   Number         0  gd32f30x_i2c.o ABSOLUTE
    ..\..\..\Library\Firmware\GD32F30x_standard_peripheral\Source\gd32f30x_misc.c 0x00000000   Number         0  gd32f30x_misc.o ABSOLUTE
    ..\..\..\Library\Firmware\GD32F30x_standard_peripheral\Source\gd32f30x_pmu.c 0x00000000   Number         0  gd32f30x_pmu.o ABSOLUTE
    ..\..\..\Library\Firmware\GD32F30x_standard_peripheral\Source\gd32f30x_rcu.c 0x00000000   Number         0  gd32f30x_rcu.o ABSOLUTE
    ..\..\..\Library\Firmware\GD32F30x_standard_peripheral\Source\gd32f30x_rtc.c 0x00000000   Number         0  gd32f30x_rtc.o ABSOLUTE
    ..\..\..\Library\Firmware\GD32F30x_standard_peripheral\Source\gd32f30x_sdio.c 0x00000000   Number         0  gd32f30x_sdio.o ABSOLUTE
    ..\..\..\Library\Firmware\GD32F30x_standard_peripheral\Source\gd32f30x_spi.c 0x00000000   Number         0  gd32f30x_spi.o ABSOLUTE
    ..\..\..\Library\Firmware\GD32F30x_standard_peripheral\Source\gd32f30x_timer.c 0x00000000   Number         0  gd32f30x_timer.o ABSOLUTE
    ..\..\..\Library\Firmware\GD32F30x_standard_peripheral\Source\gd32f30x_usart.c 0x00000000   Number         0  gd32f30x_usart.o ABSOLUTE
    ..\..\..\Library\Firmware\GD32F30x_standard_peripheral\Source\gd32f30x_wwdgt.c 0x00000000   Number         0  gd32f30x_wwdgt.o ABSOLUTE
    ..\..\..\Library\Utilities\gd32f303e_eval.c 0x00000000   Number         0  gd32f303e_eval.o ABSOLUTE
    ..\\..\\..\\Library\\Firmware\\CMSIS\\GD\\GD32F30x\\Source\\system_gd32f30x.c 0x00000000   Number         0  system_gd32f30x.o ABSOLUTE
    ..\\..\\..\\Library\\Firmware\\GD32F30x_standard_peripheral\\Source\\gd32f30x_adc.c 0x00000000   Number         0  gd32f30x_adc.o ABSOLUTE
    ..\\..\\..\\Library\\Firmware\\GD32F30x_standard_peripheral\\Source\\gd32f30x_bkp.c 0x00000000   Number         0  gd32f30x_bkp.o ABSOLUTE
    ..\\..\\..\\Library\\Firmware\\GD32F30x_standard_peripheral\\Source\\gd32f30x_can.c 0x00000000   Number         0  gd32f30x_can.o ABSOLUTE
    ..\\..\\..\\Library\\Firmware\\GD32F30x_standard_peripheral\\Source\\gd32f30x_crc.c 0x00000000   Number         0  gd32f30x_crc.o ABSOLUTE
    ..\\..\\..\\Library\\Firmware\\GD32F30x_standard_peripheral\\Source\\gd32f30x_ctc.c 0x00000000   Number         0  gd32f30x_ctc.o ABSOLUTE
    ..\\..\\..\\Library\\Firmware\\GD32F30x_standard_peripheral\\Source\\gd32f30x_dac.c 0x00000000   Number         0  gd32f30x_dac.o ABSOLUTE
    ..\\..\\..\\Library\\Firmware\\GD32F30x_standard_peripheral\\Source\\gd32f30x_dbg.c 0x00000000   Number         0  gd32f30x_dbg.o ABSOLUTE
    ..\\..\\..\\Library\\Firmware\\GD32F30x_standard_peripheral\\Source\\gd32f30x_dma.c 0x00000000   Number         0  gd32f30x_dma.o ABSOLUTE
    ..\\..\\..\\Library\\Firmware\\GD32F30x_standard_peripheral\\Source\\gd32f30x_enet.c 0x00000000   Number         0  gd32f30x_enet.o ABSOLUTE
    ..\\..\\..\\Library\\Firmware\\GD32F30x_standard_peripheral\\Source\\gd32f30x_exmc.c 0x00000000   Number         0  gd32f30x_exmc.o ABSOLUTE
    ..\\..\\..\\Library\\Firmware\\GD32F30x_standard_peripheral\\Source\\gd32f30x_exti.c 0x00000000   Number         0  gd32f30x_exti.o ABSOLUTE
    ..\\..\\..\\Library\\Firmware\\GD32F30x_standard_peripheral\\Source\\gd32f30x_fmc.c 0x00000000   Number         0  gd32f30x_fmc.o ABSOLUTE
    ..\\..\\..\\Library\\Firmware\\GD32F30x_standard_peripheral\\Source\\gd32f30x_fwdgt.c 0x00000000   Number         0  gd32f30x_fwdgt.o ABSOLUTE
    ..\\..\\..\\Library\\Firmware\\GD32F30x_standard_peripheral\\Source\\gd32f30x_gpio.c 0x00000000   Number         0  gd32f30x_gpio.o ABSOLUTE
    ..\\..\\..\\Library\\Firmware\\GD32F30x_standard_peripheral\\Source\\gd32f30x_i2c.c 0x00000000   Number         0  gd32f30x_i2c.o ABSOLUTE
    ..\\..\\..\\Library\\Firmware\\GD32F30x_standard_peripheral\\Source\\gd32f30x_misc.c 0x00000000   Number         0  gd32f30x_misc.o ABSOLUTE
    ..\\..\\..\\Library\\Firmware\\GD32F30x_standard_peripheral\\Source\\gd32f30x_pmu.c 0x00000000   Number         0  gd32f30x_pmu.o ABSOLUTE
    ..\\..\\..\\Library\\Firmware\\GD32F30x_standard_peripheral\\Source\\gd32f30x_rcu.c 0x00000000   Number         0  gd32f30x_rcu.o ABSOLUTE
    ..\\..\\..\\Library\\Firmware\\GD32F30x_standard_peripheral\\Source\\gd32f30x_rtc.c 0x00000000   Number         0  gd32f30x_rtc.o ABSOLUTE
    ..\\..\\..\\Library\\Firmware\\GD32F30x_standard_peripheral\\Source\\gd32f30x_sdio.c 0x00000000   Number         0  gd32f30x_sdio.o ABSOLUTE
    ..\\..\\..\\Library\\Firmware\\GD32F30x_standard_peripheral\\Source\\gd32f30x_spi.c 0x00000000   Number         0  gd32f30x_spi.o ABSOLUTE
    ..\\..\\..\\Library\\Firmware\\GD32F30x_standard_peripheral\\Source\\gd32f30x_timer.c 0x00000000   Number         0  gd32f30x_timer.o ABSOLUTE
    ..\\..\\..\\Library\\Firmware\\GD32F30x_standard_peripheral\\Source\\gd32f30x_usart.c 0x00000000   Number         0  gd32f30x_usart.o ABSOLUTE
    ..\\..\\..\\Library\\Firmware\\GD32F30x_standard_peripheral\\Source\\gd32f30x_wwdgt.c 0x00000000   Number         0  gd32f30x_wwdgt.o ABSOLUTE
    ..\\..\\..\\Library\\Utilities\\gd32f303e_eval.c 0x00000000   Number         0  gd32f303e_eval.o ABSOLUTE
    ..\\bsp\\i2c\\at24cxx.c                  0x00000000   Number         0  at24cxx.o ABSOLUTE
    ..\\bsp\\i2c\\i2c.c                      0x00000000   Number         0  i2c.o ABSOLUTE
    ..\\bsp\\i2c\\i2c_soft.c                 0x00000000   Number         0  i2c_soft.o ABSOLUTE
    ..\\gd32f30x_it.c                        0x00000000   Number         0  gd32f30x_it.o ABSOLUTE
    ..\\main.c                               0x00000000   Number         0  main.o ABSOLUTE
    ..\\systick.c                            0x00000000   Number         0  systick.o ABSOLUTE
    ..\bsp\i2c\at24cxx.c                     0x00000000   Number         0  at24cxx.o ABSOLUTE
    ..\bsp\i2c\i2c.c                         0x00000000   Number         0  i2c.o ABSOLUTE
    ..\bsp\i2c\i2c_soft.c                    0x00000000   Number         0  i2c_soft.o ABSOLUTE
    ..\gd32f30x_it.c                         0x00000000   Number         0  gd32f30x_it.o ABSOLUTE
    ..\main.c                                0x00000000   Number         0  main.o ABSOLUTE
    ..\systick.c                             0x00000000   Number         0  systick.o ABSOLUTE
    cdrcmple.s                               0x00000000   Number         0  cdrcmple.o ABSOLUTE
    dc.s                                     0x00000000   Number         0  dc.o ABSOLUTE
    handlers.s                               0x00000000   Number         0  handlers.o ABSOLUTE
    init.s                                   0x00000000   Number         0  init.o ABSOLUTE
    RESET                                    0x08000000   Section      304  startup_gd32f30x_hd.o(RESET)
    .ARM.Collect$$$$00000000                 0x08000130   Section        0  entry.o(.ARM.Collect$$$$00000000)
    .ARM.Collect$$$$00000001                 0x08000130   Section        4  entry2.o(.ARM.Collect$$$$00000001)
    .ARM.Collect$$$$00000004                 0x08000134   Section        4  entry5.o(.ARM.Collect$$$$00000004)
    .ARM.Collect$$$$00000008                 0x08000138   Section        0  entry7b.o(.ARM.Collect$$$$00000008)
    .ARM.Collect$$$$0000000A                 0x08000138   Section        0  entry8b.o(.ARM.Collect$$$$0000000A)
    .ARM.Collect$$$$0000000B                 0x08000138   Section        8  entry9a.o(.ARM.Collect$$$$0000000B)
    .ARM.Collect$$$$0000000D                 0x08000140   Section        0  entry10a.o(.ARM.Collect$$$$0000000D)
    .ARM.Collect$$$$0000000F                 0x08000140   Section        0  entry11a.o(.ARM.Collect$$$$0000000F)
    .ARM.Collect$$$$00002712                 0x08000140   Section        4  entry2.o(.ARM.Collect$$$$00002712)
    __lit__00000000                          0x08000140   Data           4  entry2.o(.ARM.Collect$$$$00002712)
    .text                                    0x08000144   Section       36  startup_gd32f30x_hd.o(.text)
    $v0                                      0x08000144   Number         0  startup_gd32f30x_hd.o(.text)
    .text                                    0x08000168   Section        0  uldiv.o(.text)
    .text                                    0x080001cc   Section       36  init.o(.text)
    .text                                    0x080001f0   Section        0  llshl.o(.text)
    .text                                    0x0800020e   Section        0  llushr.o(.text)
    i.AT24C02_Read                           0x0800022e   Section        0  i2c_soft.o(i.AT24C02_Read)
    i.AT24C02_ReadByte                       0x08000252   Section        0  i2c_soft.o(i.AT24C02_ReadByte)
    i.AT24C02_Write                          0x0800028e   Section        0  i2c_soft.o(i.AT24C02_Write)
    i.AT24C02_WriteByte                      0x080002b2   Section        0  i2c_soft.o(i.AT24C02_WriteByte)
    i.BusFault_Handler                       0x080002e6   Section        0  gd32f30x_it.o(i.BusFault_Handler)
    i.DebugMon_Handler                       0x080002ea   Section        0  gd32f30x_it.o(i.DebugMon_Handler)
    i.HardFault_Handler                      0x080002ec   Section        0  gd32f30x_it.o(i.HardFault_Handler)
    i.IIC_Init                               0x080002f0   Section        0  i2c_soft.o(i.IIC_Init)
    i.IIC_Read_OneByte                       0x08000310   Section        0  i2c_soft.o(i.IIC_Read_OneByte)
    i.IIC_Start                              0x08000364   Section        0  i2c_soft.o(i.IIC_Start)
    i.IIC_Stop                               0x08000398   Section        0  i2c_soft.o(i.IIC_Stop)
    i.IIC_write_OneByte                      0x080003c4   Section        0  i2c_soft.o(i.IIC_write_OneByte)
    i.MCU_NOAck                              0x08000414   Section        0  i2c_soft.o(i.MCU_NOAck)
    i.MCU_Send_Ack                           0x08000448   Section        0  i2c_soft.o(i.MCU_Send_Ack)
    i.MCU_Wait_Ack                           0x08000484   Section        0  i2c_soft.o(i.MCU_Wait_Ack)
    i.MemManage_Handler                      0x080004c8   Section        0  gd32f30x_it.o(i.MemManage_Handler)
    i.NMI_Handler                            0x080004cc   Section        0  gd32f30x_it.o(i.NMI_Handler)
    i.NVIC_SetPriority                       0x080004d0   Section        0  systick.o(i.NVIC_SetPriority)
    NVIC_SetPriority                         0x080004d1   Thumb Code    32  systick.o(i.NVIC_SetPriority)
    i.PendSV_Handler                         0x080004f8   Section        0  gd32f30x_it.o(i.PendSV_Handler)
    i.SVC_Handler                            0x080004fa   Section        0  gd32f30x_it.o(i.SVC_Handler)
    i.SysTick_Handler                        0x080004fc   Section        0  gd32f30x_it.o(i.SysTick_Handler)
    i.SystemInit                             0x08000504   Section        0  system_gd32f30x.o(i.SystemInit)
    i.UsageFault_Handler                     0x08000554   Section        0  gd32f30x_it.o(i.UsageFault_Handler)
    i.__0printf$8                            0x08000558   Section        0  printf8.o(i.__0printf$8)
    i.__scatterload_copy                     0x08000578   Section       14  handlers.o(i.__scatterload_copy)
    i.__scatterload_null                     0x08000586   Section        2  handlers.o(i.__scatterload_null)
    i.__scatterload_zeroinit                 0x08000588   Section       14  handlers.o(i.__scatterload_zeroinit)
    i._printf_core                           0x08000598   Section        0  printf8.o(i._printf_core)
    _printf_core                             0x08000599   Thumb Code   996  printf8.o(i._printf_core)
    i._printf_post_padding                   0x080009a8   Section        0  printf8.o(i._printf_post_padding)
    _printf_post_padding                     0x080009a9   Thumb Code    36  printf8.o(i._printf_post_padding)
    i._printf_pre_padding                    0x080009cc   Section        0  printf8.o(i._printf_pre_padding)
    _printf_pre_padding                      0x080009cd   Thumb Code    46  printf8.o(i._printf_pre_padding)
    i.delay_1ms                              0x080009fc   Section        0  systick.o(i.delay_1ms)
    i.delay_decrement                        0x08000a10   Section        0  systick.o(i.delay_decrement)
    i.delay_us                               0x08000a28   Section        0  i2c_soft.o(i.delay_us)
    i.fputc                                  0x08000a3c   Section        0  main.o(i.fputc)
    i.gd_eval_com_init                       0x08000a60   Section        0  gd32f303e_eval.o(i.gd_eval_com_init)
    i.gd_eval_led_init                       0x08000af8   Section        0  gd32f303e_eval.o(i.gd_eval_led_init)
    i.gd_eval_led_off                        0x08000b38   Section        0  gd32f303e_eval.o(i.gd_eval_led_off)
    i.gd_eval_led_on                         0x08000b50   Section        0  gd32f303e_eval.o(i.gd_eval_led_on)
    i.gpio_bit_reset                         0x08000b68   Section        0  gd32f30x_gpio.o(i.gpio_bit_reset)
    i.gpio_bit_set                           0x08000b6c   Section        0  gd32f30x_gpio.o(i.gpio_bit_set)
    i.gpio_bit_write                         0x08000b70   Section        0  gd32f30x_gpio.o(i.gpio_bit_write)
    i.gpio_init                              0x08000b7a   Section        0  gd32f30x_gpio.o(i.gpio_init)
    i.gpio_input_bit_get                     0x08000c1e   Section        0  gd32f30x_gpio.o(i.gpio_input_bit_get)
    i.led_config                             0x08000c2e   Section        0  main.o(i.led_config)
    i.main                                   0x08000c64   Section        0  main.o(i.main)
    i.rcu_clock_freq_get                     0x08000cec   Section        0  gd32f30x_rcu.o(i.rcu_clock_freq_get)
    i.rcu_periph_clock_enable                0x08000e44   Section        0  gd32f30x_rcu.o(i.rcu_periph_clock_enable)
    i.rcu_periph_reset_disable               0x08000e64   Section        0  gd32f30x_rcu.o(i.rcu_periph_reset_disable)
    i.rcu_periph_reset_enable                0x08000e84   Section        0  gd32f30x_rcu.o(i.rcu_periph_reset_enable)
    i.system_clock_120m_hxtal                0x08000ea4   Section        0  system_gd32f30x.o(i.system_clock_120m_hxtal)
    system_clock_120m_hxtal                  0x08000ea5   Thumb Code   256  system_gd32f30x.o(i.system_clock_120m_hxtal)
    i.system_clock_config                    0x08000fb4   Section        0  system_gd32f30x.o(i.system_clock_config)
    system_clock_config                      0x08000fb5   Thumb Code     8  system_gd32f30x.o(i.system_clock_config)
    i.systick_config                         0x08000fbc   Section        0  systick.o(i.systick_config)
    i.usart_baudrate_set                     0x0800100c   Section        0  gd32f30x_usart.o(i.usart_baudrate_set)
    i.usart_data_transmit                    0x080010a0   Section        0  gd32f30x_usart.o(i.usart_data_transmit)
    i.usart_deinit                           0x080010a8   Section        0  gd32f30x_usart.o(i.usart_deinit)
    i.usart_enable                           0x08001138   Section        0  gd32f30x_usart.o(i.usart_enable)
    i.usart_flag_get                         0x08001142   Section        0  gd32f30x_usart.o(i.usart_flag_get)
    i.usart_receive_config                   0x08001160   Section        0  gd32f30x_usart.o(i.usart_receive_config)
    i.usart_transmit_config                  0x08001170   Section        0  gd32f30x_usart.o(i.usart_transmit_config)
    .data                                    0x20000000   Section        4  main.o(.data)
    .data                                    0x20000004   Section        4  systick.o(.data)
    delay                                    0x20000004   Data           4  systick.o(.data)
    .data                                    0x20000008   Section        4  system_gd32f30x.o(.data)
    .data                                    0x2000000c   Section      140  gd32f303e_eval.o(.data)
    GPIO_PORT                                0x2000000c   Data          16  gd32f303e_eval.o(.data)
    GPIO_PIN                                 0x2000001c   Data          16  gd32f303e_eval.o(.data)
    COM_CLK                                  0x2000002c   Data           4  gd32f303e_eval.o(.data)
    COM_TX_PIN                               0x20000030   Data           8  gd32f303e_eval.o(.data)
    COM_RX_PIN                               0x20000038   Data           8  gd32f303e_eval.o(.data)
    COM_GPIO_PORT                            0x20000040   Data           8  gd32f303e_eval.o(.data)
    COM_GPIO_CLK                             0x20000048   Data           4  gd32f303e_eval.o(.data)
    GPIO_CLK                                 0x2000004c   Data           8  gd32f303e_eval.o(.data)
    KEY_PORT                                 0x20000054   Data          16  gd32f303e_eval.o(.data)
    KEY_PIN                                  0x20000064   Data          16  gd32f303e_eval.o(.data)
    KEY_CLK                                  0x20000074   Data           8  gd32f303e_eval.o(.data)
    KEY_EXTI_LINE                            0x2000007c   Data          16  gd32f303e_eval.o(.data)
    KEY_PORT_SOURCE                          0x2000008c   Data           4  gd32f303e_eval.o(.data)
    KEY_PIN_SOURCE                           0x20000090   Data           4  gd32f303e_eval.o(.data)
    KEY_IRQn                                 0x20000094   Data           4  gd32f303e_eval.o(.data)
    .data                                    0x20000098   Section        4  stdout.o(.data)
    .bss                                     0x2000009c   Section      200  main.o(.bss)
    STACK                                    0x20000168   Section     1024  startup_gd32f30x_hd.o(STACK)

    Global Symbols

    Symbol Name                              Value     Ov Type        Size  Object(Section)

    BuildAttributes$$THM_ISAv4$E$P$D$K$B$S$7EM$VFPi3$EXTD16$VFPS$VFMA$PE$A:L22UL41UL21$X:L11$S22US41US21$IEEE1$IW$USESV6$~STKCKD$USESV7$~SHL$OSPACE$ROPI$EBA8$MICROLIB$REQ8$PRES8$EABIv2 0x00000000   Number         0  anon$$obj.o ABSOLUTE
    __ARM_use_no_argv                        0x00000000   Number         0  main.o ABSOLUTE
    _printf_a                                0x00000000   Number         0  stubs.o ABSOLUTE
    _printf_c                                0x00000000   Number         0  stubs.o ABSOLUTE
    _printf_charcount                        0x00000000   Number         0  stubs.o ABSOLUTE
    _printf_d                                0x00000000   Number         0  stubs.o ABSOLUTE
    _printf_e                                0x00000000   Number         0  stubs.o ABSOLUTE
    _printf_f                                0x00000000   Number         0  stubs.o ABSOLUTE
    _printf_flags                            0x00000000   Number         0  stubs.o ABSOLUTE
    _printf_fp_dec                           0x00000000   Number         0  stubs.o ABSOLUTE
    _printf_fp_hex                           0x00000000   Number         0  stubs.o ABSOLUTE
    _printf_g                                0x00000000   Number         0  stubs.o ABSOLUTE
    _printf_i                                0x00000000   Number         0  stubs.o ABSOLUTE
    _printf_int_dec                          0x00000000   Number         0  stubs.o ABSOLUTE
    _printf_l                                0x00000000   Number         0  stubs.o ABSOLUTE
    _printf_lc                               0x00000000   Number         0  stubs.o ABSOLUTE
    _printf_ll                               0x00000000   Number         0  stubs.o ABSOLUTE
    _printf_lld                              0x00000000   Number         0  stubs.o ABSOLUTE
    _printf_lli                              0x00000000   Number         0  stubs.o ABSOLUTE
    _printf_llo                              0x00000000   Number         0  stubs.o ABSOLUTE
    _printf_llu                              0x00000000   Number         0  stubs.o ABSOLUTE
    _printf_llx                              0x00000000   Number         0  stubs.o ABSOLUTE
    _printf_longlong_dec                     0x00000000   Number         0  stubs.o ABSOLUTE
    _printf_longlong_hex                     0x00000000   Number         0  stubs.o ABSOLUTE
    _printf_longlong_oct                     0x00000000   Number         0  stubs.o ABSOLUTE
    _printf_ls                               0x00000000   Number         0  stubs.o ABSOLUTE
    _printf_mbtowc                           0x00000000   Number         0  stubs.o ABSOLUTE
    _printf_n                                0x00000000   Number         0  stubs.o ABSOLUTE
    _printf_o                                0x00000000   Number         0  stubs.o ABSOLUTE
    _printf_p                                0x00000000   Number         0  stubs.o ABSOLUTE
    _printf_percent                          0x00000000   Number         0  stubs.o ABSOLUTE
    _printf_pre_padding                      0x00000000   Number         0  stubs.o ABSOLUTE
    _printf_return_value                     0x00000000   Number         0  stubs.o ABSOLUTE
    _printf_s                                0x00000000   Number         0  stubs.o ABSOLUTE
    _printf_sizespec                         0x00000000   Number         0  stubs.o ABSOLUTE
    _printf_str                              0x00000000   Number         0  stubs.o ABSOLUTE
    _printf_truncate_signed                  0x00000000   Number         0  stubs.o ABSOLUTE
    _printf_truncate_unsigned                0x00000000   Number         0  stubs.o ABSOLUTE
    _printf_u                                0x00000000   Number         0  stubs.o ABSOLUTE
    _printf_wc                               0x00000000   Number         0  stubs.o ABSOLUTE
    _printf_wctomb                           0x00000000   Number         0  stubs.o ABSOLUTE
    _printf_widthprec                        0x00000000   Number         0  stubs.o ABSOLUTE
    _printf_x                                0x00000000   Number         0  stubs.o ABSOLUTE
    __cpp_initialize__aeabi_                  - Undefined Weak Reference
    __cxa_finalize                            - Undefined Weak Reference
    __decompress                              - Undefined Weak Reference
    _clock_init                               - Undefined Weak Reference
    _microlib_exit                            - Undefined Weak Reference
    __Vectors_Size                           0x00000130   Number         0  startup_gd32f30x_hd.o ABSOLUTE
    __Vectors                                0x08000000   Data           4  startup_gd32f30x_hd.o(RESET)
    __Vectors_End                            0x08000130   Data           0  startup_gd32f30x_hd.o(RESET)
    __main                                   0x08000131   Thumb Code     0  entry.o(.ARM.Collect$$$$00000000)
    _main_stk                                0x08000131   Thumb Code     0  entry2.o(.ARM.Collect$$$$00000001)
    _main_scatterload                        0x08000135   Thumb Code     0  entry5.o(.ARM.Collect$$$$00000004)
    __main_after_scatterload                 0x08000139   Thumb Code     0  entry5.o(.ARM.Collect$$$$00000004)
    _main_clock                              0x08000139   Thumb Code     0  entry7b.o(.ARM.Collect$$$$00000008)
    _main_cpp_init                           0x08000139   Thumb Code     0  entry8b.o(.ARM.Collect$$$$0000000A)
    _main_init                               0x08000139   Thumb Code     0  entry9a.o(.ARM.Collect$$$$0000000B)
    __rt_final_cpp                           0x08000141   Thumb Code     0  entry10a.o(.ARM.Collect$$$$0000000D)
    __rt_final_exit                          0x08000141   Thumb Code     0  entry11a.o(.ARM.Collect$$$$0000000F)
    Reset_Handler                            0x08000145   Thumb Code     8  startup_gd32f30x_hd.o(.text)
    ADC0_1_IRQHandler                        0x0800015f   Thumb Code     0  startup_gd32f30x_hd.o(.text)
    ADC2_IRQHandler                          0x0800015f   Thumb Code     0  startup_gd32f30x_hd.o(.text)
    CAN0_EWMC_IRQHandler                     0x0800015f   Thumb Code     0  startup_gd32f30x_hd.o(.text)
    CAN0_RX1_IRQHandler                      0x0800015f   Thumb Code     0  startup_gd32f30x_hd.o(.text)
    DMA0_Channel0_IRQHandler                 0x0800015f   Thumb Code     0  startup_gd32f30x_hd.o(.text)
    DMA0_Channel1_IRQHandler                 0x0800015f   Thumb Code     0  startup_gd32f30x_hd.o(.text)
    DMA0_Channel2_IRQHandler                 0x0800015f   Thumb Code     0  startup_gd32f30x_hd.o(.text)
    DMA0_Channel3_IRQHandler                 0x0800015f   Thumb Code     0  startup_gd32f30x_hd.o(.text)
    DMA0_Channel4_IRQHandler                 0x0800015f   Thumb Code     0  startup_gd32f30x_hd.o(.text)
    DMA0_Channel5_IRQHandler                 0x0800015f   Thumb Code     0  startup_gd32f30x_hd.o(.text)
    DMA0_Channel6_IRQHandler                 0x0800015f   Thumb Code     0  startup_gd32f30x_hd.o(.text)
    DMA1_Channel0_IRQHandler                 0x0800015f   Thumb Code     0  startup_gd32f30x_hd.o(.text)
    DMA1_Channel1_IRQHandler                 0x0800015f   Thumb Code     0  startup_gd32f30x_hd.o(.text)
    DMA1_Channel2_IRQHandler                 0x0800015f   Thumb Code     0  startup_gd32f30x_hd.o(.text)
    DMA1_Channel3_4_IRQHandler               0x0800015f   Thumb Code     0  startup_gd32f30x_hd.o(.text)
    EXMC_IRQHandler                          0x0800015f   Thumb Code     0  startup_gd32f30x_hd.o(.text)
    EXTI0_IRQHandler                         0x0800015f   Thumb Code     0  startup_gd32f30x_hd.o(.text)
    EXTI10_15_IRQHandler                     0x0800015f   Thumb Code     0  startup_gd32f30x_hd.o(.text)
    EXTI1_IRQHandler                         0x0800015f   Thumb Code     0  startup_gd32f30x_hd.o(.text)
    EXTI2_IRQHandler                         0x0800015f   Thumb Code     0  startup_gd32f30x_hd.o(.text)
    EXTI3_IRQHandler                         0x0800015f   Thumb Code     0  startup_gd32f30x_hd.o(.text)
    EXTI4_IRQHandler                         0x0800015f   Thumb Code     0  startup_gd32f30x_hd.o(.text)
    EXTI5_9_IRQHandler                       0x0800015f   Thumb Code     0  startup_gd32f30x_hd.o(.text)
    FMC_IRQHandler                           0x0800015f   Thumb Code     0  startup_gd32f30x_hd.o(.text)
    I2C0_ER_IRQHandler                       0x0800015f   Thumb Code     0  startup_gd32f30x_hd.o(.text)
    I2C0_EV_IRQHandler                       0x0800015f   Thumb Code     0  startup_gd32f30x_hd.o(.text)
    I2C1_ER_IRQHandler                       0x0800015f   Thumb Code     0  startup_gd32f30x_hd.o(.text)
    I2C1_EV_IRQHandler                       0x0800015f   Thumb Code     0  startup_gd32f30x_hd.o(.text)
    LVD_IRQHandler                           0x0800015f   Thumb Code     0  startup_gd32f30x_hd.o(.text)
    RCU_CTC_IRQHandler                       0x0800015f   Thumb Code     0  startup_gd32f30x_hd.o(.text)
    RTC_Alarm_IRQHandler                     0x0800015f   Thumb Code     0  startup_gd32f30x_hd.o(.text)
    RTC_IRQHandler                           0x0800015f   Thumb Code     0  startup_gd32f30x_hd.o(.text)
    SDIO_IRQHandler                          0x0800015f   Thumb Code     0  startup_gd32f30x_hd.o(.text)
    SPI0_IRQHandler                          0x0800015f   Thumb Code     0  startup_gd32f30x_hd.o(.text)
    SPI1_IRQHandler                          0x0800015f   Thumb Code     0  startup_gd32f30x_hd.o(.text)
    SPI2_IRQHandler                          0x0800015f   Thumb Code     0  startup_gd32f30x_hd.o(.text)
    TAMPER_IRQHandler                        0x0800015f   Thumb Code     0  startup_gd32f30x_hd.o(.text)
    TIMER0_BRK_IRQHandler                    0x0800015f   Thumb Code     0  startup_gd32f30x_hd.o(.text)
    TIMER0_Channel_IRQHandler                0x0800015f   Thumb Code     0  startup_gd32f30x_hd.o(.text)
    TIMER0_TRG_CMT_IRQHandler                0x0800015f   Thumb Code     0  startup_gd32f30x_hd.o(.text)
    TIMER0_UP_IRQHandler                     0x0800015f   Thumb Code     0  startup_gd32f30x_hd.o(.text)
    TIMER1_IRQHandler                        0x0800015f   Thumb Code     0  startup_gd32f30x_hd.o(.text)
    TIMER2_IRQHandler                        0x0800015f   Thumb Code     0  startup_gd32f30x_hd.o(.text)
    TIMER3_IRQHandler                        0x0800015f   Thumb Code     0  startup_gd32f30x_hd.o(.text)
    TIMER4_IRQHandler                        0x0800015f   Thumb Code     0  startup_gd32f30x_hd.o(.text)
    TIMER5_IRQHandler                        0x0800015f   Thumb Code     0  startup_gd32f30x_hd.o(.text)
    TIMER6_IRQHandler                        0x0800015f   Thumb Code     0  startup_gd32f30x_hd.o(.text)
    TIMER7_BRK_IRQHandler                    0x0800015f   Thumb Code     0  startup_gd32f30x_hd.o(.text)
    TIMER7_Channel_IRQHandler                0x0800015f   Thumb Code     0  startup_gd32f30x_hd.o(.text)
    TIMER7_TRG_CMT_IRQHandler                0x0800015f   Thumb Code     0  startup_gd32f30x_hd.o(.text)
    TIMER7_UP_IRQHandler                     0x0800015f   Thumb Code     0  startup_gd32f30x_hd.o(.text)
    UART3_IRQHandler                         0x0800015f   Thumb Code     0  startup_gd32f30x_hd.o(.text)
    UART4_IRQHandler                         0x0800015f   Thumb Code     0  startup_gd32f30x_hd.o(.text)
    USART0_IRQHandler                        0x0800015f   Thumb Code     0  startup_gd32f30x_hd.o(.text)
    USART1_IRQHandler                        0x0800015f   Thumb Code     0  startup_gd32f30x_hd.o(.text)
    USART2_IRQHandler                        0x0800015f   Thumb Code     0  startup_gd32f30x_hd.o(.text)
    USBD_HP_CAN0_TX_IRQHandler               0x0800015f   Thumb Code     0  startup_gd32f30x_hd.o(.text)
    USBD_LP_CAN0_RX0_IRQHandler              0x0800015f   Thumb Code     0  startup_gd32f30x_hd.o(.text)
    USBD_WKUP_IRQHandler                     0x0800015f   Thumb Code     0  startup_gd32f30x_hd.o(.text)
    WWDGT_IRQHandler                         0x0800015f   Thumb Code     0  startup_gd32f30x_hd.o(.text)
    __aeabi_uldivmod                         0x08000169   Thumb Code    98  uldiv.o(.text)
    __scatterload                            0x080001cd   Thumb Code    28  init.o(.text)
    __scatterload_rt2                        0x080001cd   Thumb Code     0  init.o(.text)
    __aeabi_llsl                             0x080001f1   Thumb Code    30  llshl.o(.text)
    _ll_shift_l                              0x080001f1   Thumb Code     0  llshl.o(.text)
    __aeabi_llsr                             0x0800020f   Thumb Code    32  llushr.o(.text)
    _ll_ushift_r                             0x0800020f   Thumb Code     0  llushr.o(.text)
    AT24C02_Read                             0x0800022f   Thumb Code    36  i2c_soft.o(i.AT24C02_Read)
    AT24C02_ReadByte                         0x08000253   Thumb Code    60  i2c_soft.o(i.AT24C02_ReadByte)
    AT24C02_Write                            0x0800028f   Thumb Code    36  i2c_soft.o(i.AT24C02_Write)
    AT24C02_WriteByte                        0x080002b3   Thumb Code    52  i2c_soft.o(i.AT24C02_WriteByte)
    BusFault_Handler                         0x080002e7   Thumb Code     4  gd32f30x_it.o(i.BusFault_Handler)
    DebugMon_Handler                         0x080002eb   Thumb Code     2  gd32f30x_it.o(i.DebugMon_Handler)
    HardFault_Handler                        0x080002ed   Thumb Code     4  gd32f30x_it.o(i.HardFault_Handler)
    IIC_Init                                 0x080002f1   Thumb Code    28  i2c_soft.o(i.IIC_Init)
    IIC_Read_OneByte                         0x08000311   Thumb Code    80  i2c_soft.o(i.IIC_Read_OneByte)
    IIC_Start                                0x08000365   Thumb Code    48  i2c_soft.o(i.IIC_Start)
    IIC_Stop                                 0x08000399   Thumb Code    40  i2c_soft.o(i.IIC_Stop)
    IIC_write_OneByte                        0x080003c5   Thumb Code    74  i2c_soft.o(i.IIC_write_OneByte)
    MCU_NOAck                                0x08000415   Thumb Code    46  i2c_soft.o(i.MCU_NOAck)
    MCU_Send_Ack                             0x08000449   Thumb Code    54  i2c_soft.o(i.MCU_Send_Ack)
    MCU_Wait_Ack                             0x08000485   Thumb Code    64  i2c_soft.o(i.MCU_Wait_Ack)
    MemManage_Handler                        0x080004c9   Thumb Code     4  gd32f30x_it.o(i.MemManage_Handler)
    NMI_Handler                              0x080004cd   Thumb Code     2  gd32f30x_it.o(i.NMI_Handler)
    PendSV_Handler                           0x080004f9   Thumb Code     2  gd32f30x_it.o(i.PendSV_Handler)
    SVC_Handler                              0x080004fb   Thumb Code     2  gd32f30x_it.o(i.SVC_Handler)
    SysTick_Handler                          0x080004fd   Thumb Code     8  gd32f30x_it.o(i.SysTick_Handler)
    SystemInit                               0x08000505   Thumb Code    66  system_gd32f30x.o(i.SystemInit)
    UsageFault_Handler                       0x08000555   Thumb Code     4  gd32f30x_it.o(i.UsageFault_Handler)
    __0printf$8                              0x08000559   Thumb Code    22  printf8.o(i.__0printf$8)
    __1printf$8                              0x08000559   Thumb Code     0  printf8.o(i.__0printf$8)
    __2printf                                0x08000559   Thumb Code     0  printf8.o(i.__0printf$8)
    __scatterload_copy                       0x08000579   Thumb Code    14  handlers.o(i.__scatterload_copy)
    __scatterload_null                       0x08000587   Thumb Code     2  handlers.o(i.__scatterload_null)
    __scatterload_zeroinit                   0x08000589   Thumb Code    14  handlers.o(i.__scatterload_zeroinit)
    delay_1ms                                0x080009fd   Thumb Code    16  systick.o(i.delay_1ms)
    delay_decrement                          0x08000a11   Thumb Code    18  systick.o(i.delay_decrement)
    delay_us                                 0x08000a29   Thumb Code    18  i2c_soft.o(i.delay_us)
    fputc                                    0x08000a3d   Thumb Code    32  main.o(i.fputc)
    gd_eval_com_init                         0x08000a61   Thumb Code   122  gd32f303e_eval.o(i.gd_eval_com_init)
    gd_eval_led_init                         0x08000af9   Thumb Code    50  gd32f303e_eval.o(i.gd_eval_led_init)
    gd_eval_led_off                          0x08000b39   Thumb Code    16  gd32f303e_eval.o(i.gd_eval_led_off)
    gd_eval_led_on                           0x08000b51   Thumb Code    16  gd32f303e_eval.o(i.gd_eval_led_on)
    gpio_bit_reset                           0x08000b69   Thumb Code     4  gd32f30x_gpio.o(i.gpio_bit_reset)
    gpio_bit_set                             0x08000b6d   Thumb Code     4  gd32f30x_gpio.o(i.gpio_bit_set)
    gpio_bit_write                           0x08000b71   Thumb Code    10  gd32f30x_gpio.o(i.gpio_bit_write)
    gpio_init                                0x08000b7b   Thumb Code   164  gd32f30x_gpio.o(i.gpio_init)
    gpio_input_bit_get                       0x08000c1f   Thumb Code    16  gd32f30x_gpio.o(i.gpio_input_bit_get)
    led_config                               0x08000c2f   Thumb Code    52  main.o(i.led_config)
    main                                     0x08000c65   Thumb Code    80  main.o(i.main)
    rcu_clock_freq_get                       0x08000ced   Thumb Code   310  gd32f30x_rcu.o(i.rcu_clock_freq_get)
    rcu_periph_clock_enable                  0x08000e45   Thumb Code    28  gd32f30x_rcu.o(i.rcu_periph_clock_enable)
    rcu_periph_reset_disable                 0x08000e65   Thumb Code    28  gd32f30x_rcu.o(i.rcu_periph_reset_disable)
    rcu_periph_reset_enable                  0x08000e85   Thumb Code    28  gd32f30x_rcu.o(i.rcu_periph_reset_enable)
    systick_config                           0x08000fbd   Thumb Code    74  systick.o(i.systick_config)
    usart_baudrate_set                       0x0800100d   Thumb Code   140  gd32f30x_usart.o(i.usart_baudrate_set)
    usart_data_transmit                      0x080010a1   Thumb Code     8  gd32f30x_usart.o(i.usart_data_transmit)
    usart_deinit                             0x080010a9   Thumb Code   136  gd32f30x_usart.o(i.usart_deinit)
    usart_enable                             0x08001139   Thumb Code    10  gd32f30x_usart.o(i.usart_enable)
    usart_flag_get                           0x08001143   Thumb Code    30  gd32f30x_usart.o(i.usart_flag_get)
    usart_receive_config                     0x08001161   Thumb Code    16  gd32f30x_usart.o(i.usart_receive_config)
    usart_transmit_config                    0x08001171   Thumb Code    16  gd32f30x_usart.o(i.usart_transmit_config)
    Region$$Table$$Base                      0x08001180   Number         0  anon$$obj.o(Region$$Table)
    Region$$Table$$Limit                     0x080011a0   Number         0  anon$$obj.o(Region$$Table)
    count                                    0x20000000   Data           1  main.o(.data)
    test_data_w                              0x20000001   Data           3  main.o(.data)
    SystemCoreClock                          0x20000008   Data           4  system_gd32f30x.o(.data)
    __stdout                                 0x20000098   Data           4  stdout.o(.data)
    test_data_r                              0x2000009c   Data         200  main.o(.bss)
    __initial_sp                             0x20000568   Data           0  startup_gd32f30x_hd.o(STACK)



==============================================================================

Memory Map of the image

  Image Entry point : 0x08000131

  Load Region LR_IROM1 (Base: 0x08000000, Size: 0x0000123c, Max: 0x00080000, ABSOLUTE)

    Execution Region ER_IROM1 (Base: 0x08000000, Size: 0x000011a0, Max: 0x00080000, ABSOLUTE)

    Base Addr    Size         Type   Attr      Idx    E Section Name        Object

    0x08000000   0x00000130   Data   RO         4330    RESET               startup_gd32f30x_hd.o
    0x08000130   0x00000000   Code   RO         4552  * .ARM.Collect$$$$00000000  mc_w.l(entry.o)
    0x08000130   0x00000004   Code   RO         4816    .ARM.Collect$$$$00000001  mc_w.l(entry2.o)
    0x08000134   0x00000004   Code   RO         4819    .ARM.Collect$$$$00000004  mc_w.l(entry5.o)
    0x08000138   0x00000000   Code   RO         4821    .ARM.Collect$$$$00000008  mc_w.l(entry7b.o)
    0x08000138   0x00000000   Code   RO         4823    .ARM.Collect$$$$0000000A  mc_w.l(entry8b.o)
    0x08000138   0x00000008   Code   RO         4824    .ARM.Collect$$$$0000000B  mc_w.l(entry9a.o)
    0x08000140   0x00000000   Code   RO         4826    .ARM.Collect$$$$0000000D  mc_w.l(entry10a.o)
    0x08000140   0x00000000   Code   RO         4828    .ARM.Collect$$$$0000000F  mc_w.l(entry11a.o)
    0x08000140   0x00000004   Code   RO         4817    .ARM.Collect$$$$00002712  mc_w.l(entry2.o)
    0x08000144   0x00000024   Code   RO         4331    .text               startup_gd32f30x_hd.o
    0x08000168   0x00000062   Code   RO         4833    .text               mc_w.l(uldiv.o)
    0x080001ca   0x00000002   PAD
    0x080001cc   0x00000024   Code   RO         4846    .text               mc_w.l(init.o)
    0x080001f0   0x0000001e   Code   RO         4848    .text               mc_w.l(llshl.o)
    0x0800020e   0x00000020   Code   RO         4850    .text               mc_w.l(llushr.o)
    0x0800022e   0x00000024   Code   RO         4448    i.AT24C02_Read      i2c_soft.o
    0x08000252   0x0000003c   Code   RO         4449    i.AT24C02_ReadByte  i2c_soft.o
    0x0800028e   0x00000024   Code   RO         4451    i.AT24C02_Write     i2c_soft.o
    0x080002b2   0x00000034   Code   RO         4452    i.AT24C02_WriteByte  i2c_soft.o
    0x080002e6   0x00000004   Code   RO          165    i.BusFault_Handler  gd32f30x_it.o
    0x080002ea   0x00000002   Code   RO          166    i.DebugMon_Handler  gd32f30x_it.o
    0x080002ec   0x00000004   Code   RO          167    i.HardFault_Handler  gd32f30x_it.o
    0x080002f0   0x00000020   Code   RO         4453    i.IIC_Init          i2c_soft.o
    0x08000310   0x00000054   Code   RO         4454    i.IIC_Read_OneByte  i2c_soft.o
    0x08000364   0x00000034   Code   RO         4455    i.IIC_Start         i2c_soft.o
    0x08000398   0x0000002c   Code   RO         4456    i.IIC_Stop          i2c_soft.o
    0x080003c4   0x00000050   Code   RO         4457    i.IIC_write_OneByte  i2c_soft.o
    0x08000414   0x00000034   Code   RO         4458    i.MCU_NOAck         i2c_soft.o
    0x08000448   0x0000003c   Code   RO         4459    i.MCU_Send_Ack      i2c_soft.o
    0x08000484   0x00000044   Code   RO         4460    i.MCU_Wait_Ack      i2c_soft.o
    0x080004c8   0x00000004   Code   RO          168    i.MemManage_Handler  gd32f30x_it.o
    0x080004cc   0x00000002   Code   RO          169    i.NMI_Handler       gd32f30x_it.o
    0x080004ce   0x00000002   PAD
    0x080004d0   0x00000028   Code   RO          255    i.NVIC_SetPriority  systick.o
    0x080004f8   0x00000002   Code   RO          170    i.PendSV_Handler    gd32f30x_it.o
    0x080004fa   0x00000002   Code   RO          171    i.SVC_Handler       gd32f30x_it.o
    0x080004fc   0x00000008   Code   RO          172    i.SysTick_Handler   gd32f30x_it.o
    0x08000504   0x00000050   Code   RO          299    i.SystemInit        system_gd32f30x.o
    0x08000554   0x00000004   Code   RO          173    i.UsageFault_Handler  gd32f30x_it.o
    0x08000558   0x00000020   Code   RO         4762    i.__0printf$8       mc_w.l(printf8.o)
    0x08000578   0x0000000e   Code   RO         4858    i.__scatterload_copy  mc_w.l(handlers.o)
    0x08000586   0x00000002   Code   RO         4859    i.__scatterload_null  mc_w.l(handlers.o)
    0x08000588   0x0000000e   Code   RO         4860    i.__scatterload_zeroinit  mc_w.l(handlers.o)
    0x08000596   0x00000002   PAD
    0x08000598   0x00000410   Code   RO         4769    i._printf_core      mc_w.l(printf8.o)
    0x080009a8   0x00000024   Code   RO         4770    i._printf_post_padding  mc_w.l(printf8.o)
    0x080009cc   0x0000002e   Code   RO         4771    i._printf_pre_padding  mc_w.l(printf8.o)
    0x080009fa   0x00000002   PAD
    0x080009fc   0x00000014   Code   RO          256    i.delay_1ms         systick.o
    0x08000a10   0x00000018   Code   RO          257    i.delay_decrement   systick.o
    0x08000a28   0x00000012   Code   RO         4461    i.delay_us          i2c_soft.o
    0x08000a3a   0x00000002   PAD
    0x08000a3c   0x00000024   Code   RO            3    i.fputc             main.o
    0x08000a60   0x00000098   Code   RO         4272    i.gd_eval_com_init  gd32f303e_eval.o
    0x08000af8   0x00000040   Code   RO         4275    i.gd_eval_led_init  gd32f303e_eval.o
    0x08000b38   0x00000018   Code   RO         4276    i.gd_eval_led_off   gd32f303e_eval.o
    0x08000b50   0x00000018   Code   RO         4277    i.gd_eval_led_on    gd32f303e_eval.o
    0x08000b68   0x00000004   Code   RO         2082    i.gpio_bit_reset    gd32f30x_gpio.o
    0x08000b6c   0x00000004   Code   RO         2083    i.gpio_bit_set      gd32f30x_gpio.o
    0x08000b70   0x0000000a   Code   RO         2084    i.gpio_bit_write    gd32f30x_gpio.o
    0x08000b7a   0x000000a4   Code   RO         2092    i.gpio_init         gd32f30x_gpio.o
    0x08000c1e   0x00000010   Code   RO         2093    i.gpio_input_bit_get  gd32f30x_gpio.o
    0x08000c2e   0x00000034   Code   RO            4    i.led_config        main.o
    0x08000c62   0x00000002   PAD
    0x08000c64   0x00000088   Code   RO            6    i.main              main.o
    0x08000cec   0x00000158   Code   RO         2605    i.rcu_clock_freq_get  gd32f30x_rcu.o
    0x08000e44   0x00000020   Code   RO         2623    i.rcu_periph_clock_enable  gd32f30x_rcu.o
    0x08000e64   0x00000020   Code   RO         2626    i.rcu_periph_reset_disable  gd32f30x_rcu.o
    0x08000e84   0x00000020   Code   RO         2627    i.rcu_periph_reset_enable  gd32f30x_rcu.o
    0x08000ea4   0x00000110   Code   RO          300    i.system_clock_120m_hxtal  system_gd32f30x.o
    0x08000fb4   0x00000008   Code   RO          301    i.system_clock_config  system_gd32f30x.o
    0x08000fbc   0x00000050   Code   RO          258    i.systick_config    systick.o
    0x0800100c   0x00000094   Code   RO         3900    i.usart_baudrate_set  gd32f30x_usart.o
    0x080010a0   0x00000008   Code   RO         3904    i.usart_data_transmit  gd32f30x_usart.o
    0x080010a8   0x00000090   Code   RO         3905    i.usart_deinit      gd32f30x_usart.o
    0x08001138   0x0000000a   Code   RO         3909    i.usart_enable      gd32f30x_usart.o
    0x08001142   0x0000001e   Code   RO         3911    i.usart_flag_get    gd32f30x_usart.o
    0x08001160   0x00000010   Code   RO         3933    i.usart_receive_config  gd32f30x_usart.o
    0x08001170   0x00000010   Code   RO         3947    i.usart_transmit_config  gd32f30x_usart.o
    0x08001180   0x00000020   Data   RO         4856    Region$$Table       anon$$obj.o


    Execution Region RW_IRAM1 (Base: 0x20000000, Size: 0x00000568, Max: 0x00010000, ABSOLUTE)

    Base Addr    Size         Type   Attr      Idx    E Section Name        Object

    0x20000000   0x00000004   Data   RW            8    .data               main.o
    0x20000004   0x00000004   Data   RW          259    .data               systick.o
    0x20000008   0x00000004   Data   RW          302    .data               system_gd32f30x.o
    0x2000000c   0x0000008c   Data   RW         4279    .data               gd32f303e_eval.o
    0x20000098   0x00000004   Data   RW         4830    .data               mc_w.l(stdout.o)
    0x2000009c   0x000000c8   Zero   RW            7    .bss                main.o
    0x20000164   0x00000004   PAD
    0x20000168   0x00000400   Zero   RW         4328    STACK               startup_gd32f30x_hd.o


==============================================================================

Image component sizes


      Code (inc. data)   RO Data    RW Data    ZI Data      Debug   Object Name

       264         60          0        140          0       3513   gd32f303e_eval.o
       198          0          0          0          0      14638   gd32f30x_gpio.o
        32          0          0          0          0       4230   gd32f30x_it.o
       440         46          0          0          0      20476   gd32f30x_rcu.o
       372         16          0          0          0      11601   gd32f30x_usart.o
       674         38          0          0          0       7808   i2c_soft.o
       224         60          0          4        200      36056   main.o
        36          8        304          0       1024        932   startup_gd32f30x_hd.o
       360         30          0          4          0       2191   system_gd32f30x.o
       164         24          0          4          0      28798   systick.o

    ----------------------------------------------------------------------
      2770        282        336        152       1228     130243   Object Totals
         0          0         32          0          0          0   (incl. Generated)
         6          0          0          0          4          0   (incl. Padding)

    ----------------------------------------------------------------------

      Code (inc. data)   RO Data    RW Data    ZI Data      Debug   Library Member Name

         0          0          0          0          0          0   entry.o
         0          0          0          0          0          0   entry10a.o
         0          0          0          0          0          0   entry11a.o
         8          4          0          0          0          0   entry2.o
         4          0          0          0          0          0   entry5.o
         0          0          0          0          0          0   entry7b.o
         0          0          0          0          0          0   entry8b.o
         8          4          0          0          0          0   entry9a.o
        30          0          0          0          0          0   handlers.o
        36          8          0          0          0         68   init.o
        30          0          0          0          0         68   llshl.o
        32          0          0          0          0         68   llushr.o
      1154         54          0          0          0        352   printf8.o
         0          0          0          4          0          0   stdout.o
        98          0          0          0          0         92   uldiv.o

    ----------------------------------------------------------------------
      1406         70          0          4          0        648   Library Totals
         6          0          0          0          0          0   (incl. Padding)

    ----------------------------------------------------------------------

      Code (inc. data)   RO Data    RW Data    ZI Data      Debug   Library Name

      1400         70          0          4          0        648   mc_w.l

    ----------------------------------------------------------------------
      1406         70          0          4          0        648   Library Totals

    ----------------------------------------------------------------------

==============================================================================


      Code (inc. data)   RO Data    RW Data    ZI Data      Debug   

      4176        352        336        156       1228     126135   Grand Totals
      4176        352        336        156       1228     126135   ELF Image Totals
      4176        352        336        156          0          0   ROM Totals

==============================================================================

    Total RO  Size (Code + RO Data)                 4512 (   4.41kB)
    Total RW  Size (RW Data + ZI Data)              1384 (   1.35kB)
    Total ROM Size (Code + RO Data + RW Data)       4668 (   4.56kB)

==============================================================================

