Component: ARM Compiler 5.05 update 1 (build 106) Tool: armlink [4d0efa]

==============================================================================

Section Cross References

    main.o(i.adc_config) refers to gd32f30x_adc.o(i.adc_special_function_config) for adc_special_function_config
    main.o(i.adc_config) refers to gd32f30x_adc.o(i.adc_external_trigger_source_config) for adc_external_trigger_source_config
    main.o(i.adc_config) refers to gd32f30x_adc.o(i.adc_data_alignment_config) for adc_data_alignment_config
    main.o(i.adc_config) refers to gd32f30x_adc.o(i.adc_mode_config) for adc_mode_config
    main.o(i.adc_config) refers to gd32f30x_adc.o(i.adc_channel_length_config) for adc_channel_length_config
    main.o(i.adc_config) refers to gd32f30x_adc.o(i.adc_regular_channel_config) for adc_regular_channel_config
    main.o(i.adc_config) refers to gd32f30x_adc.o(i.adc_external_trigger_config) for adc_external_trigger_config
    main.o(i.adc_config) refers to gd32f30x_adc.o(i.adc_enable) for adc_enable
    main.o(i.adc_config) refers to systick.o(i.delay_1ms) for delay_1ms
    main.o(i.adc_config) refers to gd32f30x_adc.o(i.adc_calibration_enable) for adc_calibration_enable
    main.o(i.adc_config) refers to gd32f30x_adc.o(i.adc_dma_mode_enable) for adc_dma_mode_enable
    main.o(i.dma_config) refers to gd32f30x_dma.o(i.dma_deinit) for dma_deinit
    main.o(i.dma_config) refers to memcpya.o(.text) for __aeabi_memcpy4
    main.o(i.dma_config) refers to gd32f30x_dma.o(i.dma_init) for dma_init
    main.o(i.dma_config) refers to gd32f30x_dma.o(i.dma_circulation_enable) for dma_circulation_enable
    main.o(i.dma_config) refers to gd32f30x_dma.o(i.dma_channel_enable) for dma_channel_enable
    main.o(i.dma_config) refers to main.o(.data) for adc_value
    main.o(i.fputc) refers to gd32f30x_usart.o(i.usart_data_transmit) for usart_data_transmit
==============================================================================

Removing Unused input sections from the image.

    Removing main.o(.rev16_text), (4 bytes).
    Removing main.o(.revsh_text), (4 bytes).
    Removing gd32f30x_it.o(.rev16_text), (4 bytes).
    Removing gd32f30x_it.o(.revsh_text), (4 bytes).
    Removing systick.o(.rev16_text), (4 bytes).
    Removing systick.o(.revsh_text), (4 bytes).
    Removing system_gd32f30x.o(.rev16_text), (4 bytes).
    Removing system_gd32f30x.o(.revsh_text), (4 bytes).
    Removing system_gd32f30x.o(i.SystemCoreClockUpdate), (184 bytes).
    Removing gd32f30x_adc.o(.rev16_text), (4 bytes).
    Removing gd32f30x_adc.o(.revsh_text), (4 bytes).
    Removing gd32f30x_adc.o(i.adc_deinit), (88 bytes).
    Removing gd32f30x_adc.o(i.adc_disable), (10 bytes).
    Removing gd32f30x_adc.o(i.adc_discontinuous_mode_config), (76 bytes).
    Removing gd32f30x_adc.o(i.adc_dma_mode_disable), (10 bytes).
    Removing gd32f30x_adc.o(i.adc_flag_clear), (8 bytes).
    Removing gd32f30x_adc.o(i.adc_flag_get), (14 bytes).
    Removing gd32f30x_adc.o(i.adc_inserted_channel_config), (120 bytes).
==============================================================================

Image Symbol Table

    Local Symbols

    Symbol Name                              Value     Ov Type        Size  Object(Section)

    ../clib/microlib/division.c              0x00000000   Number         0  uldiv.o ABSOLUTE
    ../clib/microlib/division.c              0x00000000   Number         0  uidiv.o ABSOLUTE
    ../clib/microlib/init/entry.s            0x00000000   Number         0  entry9a.o ABSOLUTE
    ../clib/microlib/init/entry.s            0x00000000   Number         0  entry7b.o ABSOLUTE
    ../clib/microlib/init/entry.s            0x00000000   Number         0  entry7a.o ABSOLUTE
    ../clib/microlib/init/entry.s            0x00000000   Number         0  entry11b.o ABSOLUTE
    ../clib/microlib/init/entry.s            0x00000000   Number         0  entry5.o ABSOLUTE
    ../clib/microlib/init/entry.s            0x00000000   Number         0  entry.o ABSOLUTE
    ../clib/microlib/init/entry.s            0x00000000   Number         0  entry10b.o ABSOLUTE
    ../clib/microlib/init/entry.s            0x00000000   Number         0  entry2.o ABSOLUTE
    ../clib/microlib/init/entry.s            0x00000000   Number         0  entry11a.o ABSOLUTE
    ../clib/microlib/init/entry.s            0x00000000   Number         0  entry10a.o ABSOLUTE
    ../clib/microlib/init/entry.s            0x00000000   Number         0  entry9b.o ABSOLUTE
    ../clib/microlib/init/entry.s            0x00000000   Number         0  entry8b.o ABSOLUTE
    ../clib/microlib/init/entry.s            0x00000000   Number         0  entry8a.o ABSOLUTE
    ../clib/microlib/longlong.c              0x00000000   Number         0  llsshr.o ABSOLUTE
    ../clib/microlib/longlong.c              0x00000000   Number         0  llushr.o ABSOLUTE
    ../clib/microlib/longlong.c              0x00000000   Number         0  llshl.o ABSOLUTE
    ../clib/microlib/printf/printf.c         0x00000000   Number         0  printfa.o ABSOLUTE
    ../clib/microlib/printf/printf.c         0x00000000   Number         0  printf8.o ABSOLUTE
    ../clib/microlib/printf/printf.c         0x00000000   Number         0  printf0.o ABSOLUTE
    ../clib/microlib/printf/printf.c         0x00000000   Number         0  printf1.o ABSOLUTE
    ../clib/microlib/printf/printf.c         0x00000000   Number         0  printf7.o ABSOLUTE
    ../clib/microlib/printf/printf.c         0x00000000   Number         0  printf6.o ABSOLUTE
    ../clib/microlib/printf/printf.c         0x00000000   Number         0  printf5.o ABSOLUTE
    ../clib/microlib/printf/printf.c         0x00000000   Number         0  printf4.o ABSOLUTE
    ../clib/microlib/printf/printf.c         0x00000000   Number         0  printf2.o ABSOLUTE
    ../clib/microlib/printf/printf.c         0x00000000   Number         0  printf3.o ABSOLUTE
    ../clib/microlib/printf/printf.c         0x00000000   Number         0  printfb.o ABSOLUTE
    ../clib/microlib/printf/stubs.s          0x00000000   Number         0  stubs.o ABSOLUTE
    ../clib/microlib/stdio/streams.c         0x00000000   Number         0  stdout.o ABSOLUTE
    ../clib/microlib/string/memcpy.c         0x00000000   Number         0  memcpya.o ABSOLUTE
    ../clib/microlib/string/memcpy.c         0x00000000   Number         0  memcpyb.o ABSOLUTE
    ../clib/microlib/stubs.s                 0x00000000   Number         0  iusefp.o ABSOLUTE
    ../fplib/microlib/fpadd.c                0x00000000   Number         0  dadd.o ABSOLUTE
    ../fplib/microlib/fpdiv.c                0x00000000   Number         0  ddiv.o ABSOLUTE
    ../fplib/microlib/fpepilogue.c           0x00000000   Number         0  depilogue.o ABSOLUTE
    ../fplib/microlib/fpfix.c                0x00000000   Number         0  dfixul.o ABSOLUTE
    ../fplib/microlib/fpmul.c                0x00000000   Number         0  dmul.o ABSOLUTE
    ..\..\..\Library\Firmware\CMSIS\GD\GD32F30x\Source\ARM\startup_gd32f30x_hd.s 0x00000000   Number         0  startup_gd32f30x_hd.o ABSOLUTE
    ..\..\..\Library\Firmware\CMSIS\GD\GD32F30x\Source\system_gd32f30x.c 0x00000000   Number         0  system_gd32f30x.o ABSOLUTE
    ..\..\..\Library\Firmware\GD32F30x_standard_peripheral\Source\gd32f30x_adc.c 0x00000000   Number         0  gd32f30x_adc.o ABSOLUTE
    ..\..\..\Library\Firmware\GD32F30x_standard_peripheral\Source\gd32f30x_bkp.c 0x00000000   Number         0  gd32f30x_bkp.o ABSOLUTE
    ..\..\..\Library\Firmware\GD32F30x_standard_peripheral\Source\gd32f30x_can.c 0x00000000   Number         0  gd32f30x_can.o ABSOLUTE
    ..\..\..\Library\Firmware\GD32F30x_standard_peripheral\Source\gd32f30x_crc.c 0x00000000   Number         0  gd32f30x_crc.o ABSOLUTE
    ..\..\..\Library\Firmware\GD32F30x_standard_peripheral\Source\gd32f30x_ctc.c 0x00000000   Number         0  gd32f30x_ctc.o ABSOLUTE
    ..\..\..\Library\Firmware\GD32F30x_standard_peripheral\Source\gd32f30x_dac.c 0x00000000   Number         0  gd32f30x_dac.o ABSOLUTE
    ..\..\..\Library\Firmware\GD32F30x_standard_peripheral\Source\gd32f30x_dbg.c 0x00000000   Number         0  gd32f30x_dbg.o ABSOLUTE
    ..\..\..\Library\Firmware\GD32F30x_standard_peripheral\Source\gd32f30x_dma.c 0x00000000   Number         0  gd32f30x_dma.o ABSOLUTE
    ..\..\..\Library\Firmware\GD32F30x_standard_peripheral\Source\gd32f30x_enet.c 0x00000000   Number         0  gd32f30x_enet.o ABSOLUTE
    ..\..\..\Library\Firmware\GD32F30x_standard_peripheral\Source\gd32f30x_exmc.c 0x00000000   Number         0  gd32f30x_exmc.o ABSOLUTE
    ..\..\..\Library\Firmware\GD32F30x_standard_peripheral\Source\gd32f30x_exti.c 0x00000000   Number         0  gd32f30x_exti.o ABSOLUTE
    ..\..\..\Library\Firmware\GD32F30x_standard_peripheral\Source\gd32f30x_fmc.c 0x00000000   Number         0  gd32f30x_fmc.o ABSOLUTE
    ..\..\..\Library\Firmware\GD32F30x_standard_peripheral\Source\gd32f30x_fwdgt.c 0x00000000   Number         0  gd32f30x_fwdgt.o ABSOLUTE
    ..\..\..\Library\Firmware\GD32F30x_standard_peripheral\Source\gd32f30x_gpio.c 0x00000000   Number         0  gd32f30x_gpio.o ABSOLUTE
    ..\..\..\Library\Firmware\GD32F30x_standard_peripheral\Source\gd32f30x_i2c.c 0x00000000   Number         0  gd32f30x_i2c.o ABSOLUTE
    ..\..\..\Library\Firmware\GD32F30x_standard_peripheral\Source\gd32f30x_misc.c 0x00000000   Number         0  gd32f30x_misc.o ABSOLUTE
    ..\..\..\Library\Firmware\GD32F30x_standard_peripheral\Source\gd32f30x_pmu.c 0x00000000   Number         0  gd32f30x_pmu.o ABSOLUTE
    ..\..\..\Library\Firmware\GD32F30x_standard_peripheral\Source\gd32f30x_rcu.c 0x00000000   Number         0  gd32f30x_rcu.o ABSOLUTE
    ..\..\..\Library\Firmware\GD32F30x_standard_peripheral\Source\gd32f30x_rtc.c 0x00000000   Number         0  gd32f30x_rtc.o ABSOLUTE
    ..\..\..\Library\Firmware\GD32F30x_standard_peripheral\Source\gd32f30x_sdio.c 0x00000000   Number         0  gd32f30x_sdio.o ABSOLUTE
    ..\..\..\Library\Firmware\GD32F30x_standard_peripheral\Source\gd32f30x_spi.c 0x00000000   Number         0  gd32f30x_spi.o ABSOLUTE
    ..\..\..\Library\Firmware\GD32F30x_standard_peripheral\Source\gd32f30x_timer.c 0x00000000   Number         0  gd32f30x_timer.o ABSOLUTE
    ..\..\..\Library\Firmware\GD32F30x_standard_peripheral\Source\gd32f30x_usart.c 0x00000000   Number         0  gd32f30x_usart.o ABSOLUTE
    ..\..\..\Library\Firmware\GD32F30x_standard_peripheral\Source\gd32f30x_wwdgt.c 0x00000000   Number         0  gd32f30x_wwdgt.o ABSOLUTE
    ..\..\..\Library\Utilities\gd32f303e_eval.c 0x00000000   Number         0  gd32f303e_eval.o ABSOLUTE
    ..\\..\\..\\Library\\Firmware\\CMSIS\\GD\\GD32F30x\\Source\\system_gd32f30x.c 0x00000000   Number         0  system_gd32f30x.o ABSOLUTE
    ..\\..\\..\\Library\\Firmware\\GD32F30x_standard_peripheral\\Source\\gd32f30x_adc.c 0x00000000   Number         0  gd32f30x_adc.o ABSOLUTE
    ..\\..\\..\\Library\\Firmware\\GD32F30x_standard_peripheral\\Source\\gd32f30x_bkp.c 0x00000000   Number         0  gd32f30x_bkp.o ABSOLUTE
    ..\\..\\..\\Library\\Firmware\\GD32F30x_standard_peripheral\\Source\\gd32f30x_can.c 0x00000000   Number         0  gd32f30x_can.o ABSOLUTE
    ..\\..\\..\\Library\\Firmware\\GD32F30x_standard_peripheral\\Source\\gd32f30x_crc.c 0x00000000   Number         0  gd32f30x_crc.o ABSOLUTE
    ..\\..\\..\\Library\\Firmware\\GD32F30x_standard_peripheral\\Source\\gd32f30x_ctc.c 0x00000000   Number         0  gd32f30x_ctc.o ABSOLUTE
    ..\\..\\..\\Library\\Firmware\\GD32F30x_standard_peripheral\\Source\\gd32f30x_dac.c 0x00000000   Number         0  gd32f30x_dac.o ABSOLUTE
    ..\\..\\..\\Library\\Firmware\\GD32F30x_standard_peripheral\\Source\\gd32f30x_dbg.c 0x00000000   Number         0  gd32f30x_dbg.o ABSOLUTE
    ..\\..\\..\\Library\\Firmware\\GD32F30x_standard_peripheral\\Source\\gd32f30x_dma.c 0x00000000   Number         0  gd32f30x_dma.o ABSOLUTE
    ..\\..\\..\\Library\\Firmware\\GD32F30x_standard_peripheral\\Source\\gd32f30x_enet.c 0x00000000   Number         0  gd32f30x_enet.o ABSOLUTE
    ..\\..\\..\\Library\\Firmware\\GD32F30x_standard_peripheral\\Source\\gd32f30x_exmc.c 0x00000000   Number         0  gd32f30x_exmc.o ABSOLUTE
    ..\\..\\..\\Library\\Firmware\\GD32F30x_standard_peripheral\\Source\\gd32f30x_exti.c 0x00000000   Number         0  gd32f30x_exti.o ABSOLUTE
    ..\\..\\..\\Library\\Firmware\\GD32F30x_standard_peripheral\\Source\\gd32f30x_fmc.c 0x00000000   Number         0  gd32f30x_fmc.o ABSOLUTE
    ..\\..\\..\\Library\\Firmware\\GD32F30x_standard_peripheral\\Source\\gd32f30x_fwdgt.c 0x00000000   Number         0  gd32f30x_fwdgt.o ABSOLUTE
    ..\\..\\..\\Library\\Firmware\\GD32F30x_standard_peripheral\\Source\\gd32f30x_gpio.c 0x00000000   Number         0  gd32f30x_gpio.o ABSOLUTE
    ..\\..\\..\\Library\\Firmware\\GD32F30x_standard_peripheral\\Source\\gd32f30x_i2c.c 0x00000000   Number         0  gd32f30x_i2c.o ABSOLUTE
    ..\\..\\..\\Library\\Firmware\\GD32F30x_standard_peripheral\\Source\\gd32f30x_misc.c 0x00000000   Number         0  gd32f30x_misc.o ABSOLUTE
    ..\\..\\..\\Library\\Firmware\\GD32F30x_standard_peripheral\\Source\\gd32f30x_pmu.c 0x00000000   Number         0  gd32f30x_pmu.o ABSOLUTE
    ..\\..\\..\\Library\\Firmware\\GD32F30x_standard_peripheral\\Source\\gd32f30x_rcu.c 0x00000000   Number         0  gd32f30x_rcu.o ABSOLUTE
    ..\\..\\..\\Library\\Firmware\\GD32F30x_standard_peripheral\\Source\\gd32f30x_rtc.c 0x00000000   Number         0  gd32f30x_rtc.o ABSOLUTE
    ..\\..\\..\\Library\\Firmware\\GD32F30x_standard_peripheral\\Source\\gd32f30x_sdio.c 0x00000000   Number         0  gd32f30x_sdio.o ABSOLUTE
    ..\\..\\..\\Library\\Firmware\\GD32F30x_standard_peripheral\\Source\\gd32f30x_spi.c 0x00000000   Number         0  gd32f30x_spi.o ABSOLUTE
    ..\\..\\..\\Library\\Firmware\\GD32F30x_standard_peripheral\\Source\\gd32f30x_timer.c 0x00000000   Number         0  gd32f30x_timer.o ABSOLUTE
    ..\\..\\..\\Library\\Firmware\\GD32F30x_standard_peripheral\\Source\\gd32f30x_usart.c 0x00000000   Number         0  gd32f30x_usart.o ABSOLUTE
    ..\\..\\..\\Library\\Firmware\\GD32F30x_standard_peripheral\\Source\\gd32f30x_wwdgt.c 0x00000000   Number         0  gd32f30x_wwdgt.o ABSOLUTE
    ..\\..\\..\\Library\\Utilities\\gd32f303e_eval.c 0x00000000   Number         0  gd32f303e_eval.o ABSOLUTE
    ..\\gd32f30x_it.c                        0x00000000   Number         0  gd32f30x_it.o ABSOLUTE
    ..\\main.c                               0x00000000   Number         0  main.o ABSOLUTE
    ..\\systick.c                            0x00000000   Number         0  systick.o ABSOLUTE
    ..\gd32f30x_it.c                         0x00000000   Number         0  gd32f30x_it.o ABSOLUTE
    ..\main.c                                0x00000000   Number         0  main.o ABSOLUTE
    ..\systick.c                             0x00000000   Number         0  systick.o ABSOLUTE
    cdrcmple.s                               0x00000000   Number         0  cdrcmple.o ABSOLUTE
    dc.s                                     0x00000000   Number         0  dc.o ABSOLUTE
    handlers.s                               0x00000000   Number         0  handlers.o ABSOLUTE
    init.s                                   0x00000000   Number         0  init.o ABSOLUTE
    RESET                                    0x08000000   Section      304  startup_gd32f30x_hd.o(RESET)
    .ARM.Collect$$$$00000000                 0x08000130   Section        0  entry.o(.ARM.Collect$$$$00000000)
    .ARM.Collect$$$$00000001                 0x08000130   Section        4  entry2.o(.ARM.Collect$$$$00000001)
    .ARM.Collect$$$$00000004                 0x08000134   Section        4  entry5.o(.ARM.Collect$$$$00000004)
    .ARM.Collect$$$$00000008                 0x08000138   Section        0  entry7b.o(.ARM.Collect$$$$00000008)
    .ARM.Collect$$$$0000000A                 0x08000138   Section        0  entry8b.o(.ARM.Collect$$$$0000000A)
    .ARM.Collect$$$$0000000B                 0x08000138   Section        8  entry9a.o(.ARM.Collect$$$$0000000B)
    .ARM.Collect$$$$0000000D                 0x08000140   Section        0  entry10a.o(.ARM.Collect$$$$0000000D)
    .ARM.Collect$$$$0000000F                 0x08000140   Section        0  entry11a.o(.ARM.Collect$$$$0000000F)
    .ARM.Collect$$$$00002712                 0x08000140   Section        4  entry2.o(.ARM.Collect$$$$00002712)
    __lit__00000000                          0x08000140   Data           4  entry2.o(.ARM.Collect$$$$00002712)
    .text                                    0x08000144   Section       36  startup_gd32f30x_hd.o(.text)
    $v0                                      0x08000144   Number         0  startup_gd32f30x_hd.o(.text)
    .text                                    0x08000168   Section        0  memcpya.o(.text)
    .text                                    0x0800018c   Section        0  uldiv.o(.text)
    .text                                    0x080001f0   Section       36  init.o(.text)
    .text                                    0x08000214   Section        0  llshl.o(.text)
    .text                                    0x08000232   Section        0  llushr.o(.text)
    i.BusFault_Handler                       0x08000252   Section        0  gd32f30x_it.o(i.BusFault_Handler)
    i.DebugMon_Handler                       0x08000256   Section        0  gd32f30x_it.o(i.DebugMon_Handler)
    i.HardFault_Handler                      0x08000258   Section        0  gd32f30x_it.o(i.HardFault_Handler)
    i.MemManage_Handler                      0x0800025c   Section        0  gd32f30x_it.o(i.MemManage_Handler)
    i.NMI_Handler                            0x08000260   Section        0  gd32f30x_it.o(i.NMI_Handler)
    i.NVIC_SetPriority                       0x08000264   Section        0  systick.o(i.NVIC_SetPriority)
    NVIC_SetPriority                         0x08000265   Thumb Code    32  systick.o(i.NVIC_SetPriority)
    i.PendSV_Handler                         0x0800028c   Section        0  gd32f30x_it.o(i.PendSV_Handler)
    i.SVC_Handler                            0x0800028e   Section        0  gd32f30x_it.o(i.SVC_Handler)
    i.SysTick_Handler                        0x08000290   Section        0  gd32f30x_it.o(i.SysTick_Handler)
    i.SystemInit                             0x08000298   Section        0  system_gd32f30x.o(i.SystemInit)
    i.UsageFault_Handler                     0x080002e8   Section        0  gd32f30x_it.o(i.UsageFault_Handler)
    i.__0printf$8                            0x080002ec   Section        0  printf8.o(i.__0printf$8)
    i.__scatterload_copy                     0x0800030c   Section       14  handlers.o(i.__scatterload_copy)
    i.__scatterload_null                     0x0800031a   Section        2  handlers.o(i.__scatterload_null)
    i.__scatterload_zeroinit                 0x0800031c   Section       14  handlers.o(i.__scatterload_zeroinit)
    i._printf_core                           0x0800032c   Section        0  printf8.o(i._printf_core)
    _printf_core                             0x0800032d   Thumb Code   996  printf8.o(i._printf_core)
    i._printf_post_padding                   0x0800073c   Section        0  printf8.o(i._printf_post_padding)
    _printf_post_padding                     0x0800073d   Thumb Code    36  printf8.o(i._printf_post_padding)
    i._printf_pre_padding                    0x08000760   Section        0  printf8.o(i._printf_pre_padding)
    _printf_pre_padding                      0x08000761   Thumb Code    46  printf8.o(i._printf_pre_padding)
    i.adc_calibration_enable                 0x0800078e   Section        0  gd32f30x_adc.o(i.adc_calibration_enable)
    i.adc_channel_length_config              0x080007b8   Section        0  gd32f30x_adc.o(i.adc_channel_length_config)
    i.adc_config                             0x08000800   Section        0  main.o(i.adc_config)
    i.adc_data_alignment_config              0x080008d0   Section        0  gd32f30x_adc.o(i.adc_data_alignment_config)
    i.adc_dma_mode_enable                    0x080008e6   Section        0  gd32f30x_adc.o(i.adc_dma_mode_enable)
    i.adc_enable                             0x080008f0   Section        0  gd32f30x_adc.o(i.adc_enable)
    i.adc_external_trigger_config            0x08000902   Section        0  gd32f30x_adc.o(i.adc_external_trigger_config)
    i.adc_external_trigger_source_config     0x08000940   Section        0  gd32f30x_adc.o(i.adc_external_trigger_source_config)
    i.adc_mode_config                        0x08000970   Section        0  gd32f30x_adc.o(i.adc_mode_config)
    i.adc_regular_channel_config             0x0800098c   Section        0  gd32f30x_adc.o(i.adc_regular_channel_config)
    i.adc_special_function_config            0x08000a38   Section        0  gd32f30x_adc.o(i.adc_special_function_config)
    i.delay_1ms                              0x08000a94   Section        0  systick.o(i.delay_1ms)
    i.delay_decrement                        0x08000aa8   Section        0  systick.o(i.delay_decrement)
    i.dma_channel_enable                     0x08000ac0   Section        0  gd32f30x_dma.o(i.dma_channel_enable)
    i.dma_circulation_enable                 0x08000af2   Section        0  gd32f30x_dma.o(i.dma_circulation_enable)
    i.dma_config                             0x08000b24   Section        0  main.o(i.dma_config)
    i.dma_deinit                             0x08000b90   Section        0  gd32f30x_dma.o(i.dma_deinit)
    i.dma_init                               0x08000c00   Section        0  gd32f30x_dma.o(i.dma_init)
    i.dma_periph_and_channel_check           0x08000d34   Section        0  gd32f30x_dma.o(i.dma_periph_and_channel_check)
    dma_periph_and_channel_check             0x08000d35   Thumb Code    18  gd32f30x_dma.o(i.dma_periph_and_channel_check)
    i.fputc                                  0x08000d4c   Section        0  main.o(i.fputc)
    i.gd_eval_com_init                       0x08000d70   Section        0  gd32f303e_eval.o(i.gd_eval_com_init)
    i.gpio_config                            0x08000e08   Section        0  main.o(i.gpio_config)
    i.gpio_init                              0x08000e30   Section        0  gd32f30x_gpio.o(i.gpio_init)
    i.main                                   0x08000ed4   Section        0  main.o(i.main)
    i.rcu_adc_clock_config                   0x08000f6c   Section        0  gd32f30x_rcu.o(i.rcu_adc_clock_config)
    i.rcu_clock_freq_get                     0x08000fd8   Section        0  gd32f30x_rcu.o(i.rcu_clock_freq_get)
    i.rcu_config                             0x08001130   Section        0  main.o(i.rcu_config)
    i.rcu_periph_clock_enable                0x0800116c   Section        0  gd32f30x_rcu.o(i.rcu_periph_clock_enable)
    i.rcu_periph_reset_disable               0x0800118c   Section        0  gd32f30x_rcu.o(i.rcu_periph_reset_disable)
    i.rcu_periph_reset_enable                0x080011ac   Section        0  gd32f30x_rcu.o(i.rcu_periph_reset_enable)
    i.system_clock_120m_hxtal                0x080011cc   Section        0  system_gd32f30x.o(i.system_clock_120m_hxtal)
    system_clock_120m_hxtal                  0x080011cd   Thumb Code   256  system_gd32f30x.o(i.system_clock_120m_hxtal)
    i.system_clock_config                    0x080012dc   Section        0  system_gd32f30x.o(i.system_clock_config)
    system_clock_config                      0x080012dd   Thumb Code     8  system_gd32f30x.o(i.system_clock_config)
    i.systick_config                         0x080012e4   Section        0  systick.o(i.systick_config)
    i.timer_auto_reload_shadow_enable        0x08001334   Section        0  gd32f30x_timer.o(i.timer_auto_reload_shadow_enable)
    i.timer_channel_output_config            0x08001340   Section        0  gd32f30x_timer.o(i.timer_channel_output_config)
    i.timer_channel_output_mode_config       0x0800152c   Section        0  gd32f30x_timer.o(i.timer_channel_output_mode_config)
    i.timer_channel_output_pulse_value_config 0x08001586   Section        0  gd32f30x_timer.o(i.timer_channel_output_pulse_value_config)
    i.timer_channel_output_shadow_config     0x080015ac   Section        0  gd32f30x_timer.o(i.timer_channel_output_shadow_config)
    i.timer_config                           0x08001608   Section        0  main.o(i.timer_config)
    i.timer_enable                           0x08001688   Section        0  gd32f30x_timer.o(i.timer_enable)
    i.timer_init                             0x08001694   Section        0  gd32f30x_timer.o(i.timer_init)
    i.timer_primary_output_config            0x0800172c   Section        0  gd32f30x_timer.o(i.timer_primary_output_config)
    i.usart_baudrate_set                     0x08001744   Section        0  gd32f30x_usart.o(i.usart_baudrate_set)
    i.usart_data_transmit                    0x080017d8   Section        0  gd32f30x_usart.o(i.usart_data_transmit)
    i.usart_deinit                           0x080017e0   Section        0  gd32f30x_usart.o(i.usart_deinit)
    i.usart_enable                           0x08001870   Section        0  gd32f30x_usart.o(i.usart_enable)
    i.usart_flag_get                         0x0800187a   Section        0  gd32f30x_usart.o(i.usart_flag_get)
    i.usart_receive_config                   0x08001898   Section        0  gd32f30x_usart.o(i.usart_receive_config)
    i.usart_transmit_config                  0x080018a8   Section        0  gd32f30x_usart.o(i.usart_transmit_config)
    .data                                    0x20000000   Section        8  main.o(.data)
    .data                                    0x20000008   Section        4  systick.o(.data)
    delay                                    0x20000008   Data           4  systick.o(.data)
    .data                                    0x2000000c   Section        4  system_gd32f30x.o(.data)
    .data                                    0x20000010   Section      140  gd32f303e_eval.o(.data)
    GPIO_PORT                                0x20000010   Data          16  gd32f303e_eval.o(.data)
    GPIO_PIN                                 0x20000020   Data          16  gd32f303e_eval.o(.data)
    COM_CLK                                  0x20000030   Data           4  gd32f303e_eval.o(.data)
    COM_TX_PIN                               0x20000034   Data           8  gd32f303e_eval.o(.data)
    COM_RX_PIN                               0x2000003c   Data           8  gd32f303e_eval.o(.data)
    COM_GPIO_PORT                            0x20000044   Data           8  gd32f303e_eval.o(.data)
    COM_GPIO_CLK                             0x2000004c   Data           4  gd32f303e_eval.o(.data)
    GPIO_CLK                                 0x20000050   Data           8  gd32f303e_eval.o(.data)
    KEY_PORT                                 0x20000058   Data          16  gd32f303e_eval.o(.data)
    KEY_PIN                                  0x20000068   Data          16  gd32f303e_eval.o(.data)
    KEY_CLK                                  0x20000078   Data           8  gd32f303e_eval.o(.data)
    KEY_EXTI_LINE                            0x20000080   Data          16  gd32f303e_eval.o(.data)
    KEY_PORT_SOURCE                          0x20000090   Data           4  gd32f303e_eval.o(.data)
    KEY_PIN_SOURCE                           0x20000094   Data           4  gd32f303e_eval.o(.data)
    KEY_IRQn                                 0x20000098   Data           4  gd32f303e_eval.o(.data)
    .data                                    0x2000009c   Section        4  stdout.o(.data)
    STACK                                    0x200000a0   Section     1024  startup_gd32f30x_hd.o(STACK)

    Global Symbols

    Symbol Name                              Value     Ov Type        Size  Object(Section)

    BuildAttributes$$THM_ISAv4$E$P$D$K$B$S$7EM$VFPi3$EXTD16$VFPS$VFMA$PE$A:L22UL41UL21$X:L11$S22US41US21$IEEE1$IW$USESV6$~STKCKD$USESV7$~SHL$OSPACE$ROPI$EBA8$MICROLIB$REQ8$PRES8$EABIv2 0x00000000   Number         0  anon$$obj.o ABSOLUTE
    __ARM_use_no_argv                        0x00000000   Number         0  main.o ABSOLUTE
    _printf_a                                0x00000000   Number         0  stubs.o ABSOLUTE
    _printf_c                                0x00000000   Number         0  stubs.o ABSOLUTE
    _printf_charcount                        0x00000000   Number         0  stubs.o ABSOLUTE
    _printf_d                                0x00000000   Number         0  stubs.o ABSOLUTE
    _printf_e                                0x00000000   Number         0  stubs.o ABSOLUTE
    _printf_f                                0x00000000   Number         0  stubs.o ABSOLUTE
    _printf_flags                            0x00000000   Number         0  stubs.o ABSOLUTE
    _printf_fp_dec                           0x00000000   Number         0  stubs.o ABSOLUTE
    _printf_fp_hex                           0x00000000   Number         0  stubs.o ABSOLUTE
    _printf_g                                0x00000000   Number         0  stubs.o ABSOLUTE
    _printf_i                                0x00000000   Number         0  stubs.o ABSOLUTE
    _printf_int_dec                          0x00000000   Number         0  stubs.o ABSOLUTE
    _printf_l                                0x00000000   Number         0  stubs.o ABSOLUTE
    _printf_lc                               0x00000000   Number         0  stubs.o ABSOLUTE
    _printf_ll                               0x00000000   Number         0  stubs.o ABSOLUTE
    _printf_lld                              0x00000000   Number         0  stubs.o ABSOLUTE
    _printf_lli                              0x00000000   Number         0  stubs.o ABSOLUTE
    _printf_llo                              0x00000000   Number         0  stubs.o ABSOLUTE
    _printf_llu                              0x00000000   Number         0  stubs.o ABSOLUTE
    _printf_llx                              0x00000000   Number         0  stubs.o ABSOLUTE
    _printf_longlong_dec                     0x00000000   Number         0  stubs.o ABSOLUTE
    _printf_longlong_hex                     0x00000000   Number         0  stubs.o ABSOLUTE
    _printf_longlong_oct                     0x00000000   Number         0  stubs.o ABSOLUTE
    _printf_ls                               0x00000000   Number         0  stubs.o ABSOLUTE
    _printf_mbtowc                           0x00000000   Number         0  stubs.o ABSOLUTE
    _printf_n                                0x00000000   Number         0  stubs.o ABSOLUTE
    _printf_o                                0x00000000   Number         0  stubs.o ABSOLUTE
    _printf_p                                0x00000000   Number         0  stubs.o ABSOLUTE
    _printf_percent                          0x00000000   Number         0  stubs.o ABSOLUTE
    _printf_pre_padding                      0x00000000   Number         0  stubs.o ABSOLUTE
    _printf_return_value                     0x00000000   Number         0  stubs.o ABSOLUTE
    _printf_s                                0x00000000   Number         0  stubs.o ABSOLUTE
    _printf_sizespec                         0x00000000   Number         0  stubs.o ABSOLUTE
    _printf_str                              0x00000000   Number         0  stubs.o ABSOLUTE
    _printf_truncate_signed                  0x00000000   Number         0  stubs.o ABSOLUTE
    _printf_truncate_unsigned                0x00000000   Number         0  stubs.o ABSOLUTE
    _printf_u                                0x00000000   Number         0  stubs.o ABSOLUTE
    _printf_wc                               0x00000000   Number         0  stubs.o ABSOLUTE
    _printf_wctomb                           0x00000000   Number         0  stubs.o ABSOLUTE
    _printf_widthprec                        0x00000000   Number         0  stubs.o ABSOLUTE
    _printf_x                                0x00000000   Number         0  stubs.o ABSOLUTE
    __cpp_initialize__aeabi_                  - Undefined Weak Reference
    __cxa_finalize                            - Undefined Weak Reference
    __decompress                              - Undefined Weak Reference
    _clock_init                               - Undefined Weak Reference
    _microlib_exit                            - Undefined Weak Reference
    __Vectors_Size                           0x00000130   Number         0  startup_gd32f30x_hd.o ABSOLUTE
    __Vectors                                0x08000000   Data           4  startup_gd32f30x_hd.o(RESET)
    __Vectors_End                            0x08000130   Data           0  startup_gd32f30x_hd.o(RESET)
    __main                                   0x08000131   Thumb Code     0  entry.o(.ARM.Collect$$$$00000000)
    _main_stk                                0x08000131   Thumb Code     0  entry2.o(.ARM.Collect$$$$00000001)
    _main_scatterload                        0x08000135   Thumb Code     0  entry5.o(.ARM.Collect$$$$00000004)
    __main_after_scatterload                 0x08000139   Thumb Code     0  entry5.o(.ARM.Collect$$$$00000004)
    _main_clock                              0x08000139   Thumb Code     0  entry7b.o(.ARM.Collect$$$$00000008)
    _main_cpp_init                           0x08000139   Thumb Code     0  entry8b.o(.ARM.Collect$$$$0000000A)
    _main_init                               0x08000139   Thumb Code     0  entry9a.o(.ARM.Collect$$$$0000000B)
    __rt_final_cpp                           0x08000141   Thumb Code     0  entry10a.o(.ARM.Collect$$$$0000000D)
    __rt_final_exit                          0x08000141   Thumb Code     0  entry11a.o(.ARM.Collect$$$$0000000F)
    Reset_Handler                            0x08000145   Thumb Code     8  startup_gd32f30x_hd.o(.text)
    ADC0_1_IRQHandler                        0x0800015f   Thumb Code     0  startup_gd32f30x_hd.o(.text)
    ADC2_IRQHandler                          0x0800015f   Thumb Code     0  startup_gd32f30x_hd.o(.text)
    CAN0_EWMC_IRQHandler                     0x0800015f   Thumb Code     0  startup_gd32f30x_hd.o(.text)
    CAN0_RX1_IRQHandler                      0x0800015f   Thumb Code     0  startup_gd32f30x_hd.o(.text)
    DMA0_Channel0_IRQHandler                 0x0800015f   Thumb Code     0  startup_gd32f30x_hd.o(.text)
    DMA0_Channel1_IRQHandler                 0x0800015f   Thumb Code     0  startup_gd32f30x_hd.o(.text)
    DMA0_Channel2_IRQHandler                 0x0800015f   Thumb Code     0  startup_gd32f30x_hd.o(.text)
    DMA0_Channel3_IRQHandler                 0x0800015f   Thumb Code     0  startup_gd32f30x_hd.o(.text)
    DMA0_Channel4_IRQHandler                 0x0800015f   Thumb Code     0  startup_gd32f30x_hd.o(.text)
    DMA0_Channel5_IRQHandler                 0x0800015f   Thumb Code     0  startup_gd32f30x_hd.o(.text)
    DMA0_Channel6_IRQHandler                 0x0800015f   Thumb Code     0  startup_gd32f30x_hd.o(.text)
    DMA1_Channel0_IRQHandler                 0x0800015f   Thumb Code     0  startup_gd32f30x_hd.o(.text)
    DMA1_Channel1_IRQHandler                 0x0800015f   Thumb Code     0  startup_gd32f30x_hd.o(.text)
    DMA1_Channel2_IRQHandler                 0x0800015f   Thumb Code     0  startup_gd32f30x_hd.o(.text)
    DMA1_Channel3_4_IRQHandler               0x0800015f   Thumb Code     0  startup_gd32f30x_hd.o(.text)
    EXMC_IRQHandler                          0x0800015f   Thumb Code     0  startup_gd32f30x_hd.o(.text)
    EXTI0_IRQHandler                         0x0800015f   Thumb Code     0  startup_gd32f30x_hd.o(.text)
    EXTI10_15_IRQHandler                     0x0800015f   Thumb Code     0  startup_gd32f30x_hd.o(.text)
    EXTI1_IRQHandler                         0x0800015f   Thumb Code     0  startup_gd32f30x_hd.o(.text)
    EXTI2_IRQHandler                         0x0800015f   Thumb Code     0  startup_gd32f30x_hd.o(.text)
    EXTI3_IRQHandler                         0x0800015f   Thumb Code     0  startup_gd32f30x_hd.o(.text)
    EXTI4_IRQHandler                         0x0800015f   Thumb Code     0  startup_gd32f30x_hd.o(.text)
    EXTI5_9_IRQHandler                       0x0800015f   Thumb Code     0  startup_gd32f30x_hd.o(.text)
    FMC_IRQHandler                           0x0800015f   Thumb Code     0  startup_gd32f30x_hd.o(.text)
    I2C0_ER_IRQHandler                       0x0800015f   Thumb Code     0  startup_gd32f30x_hd.o(.text)
    I2C0_EV_IRQHandler                       0x0800015f   Thumb Code     0  startup_gd32f30x_hd.o(.text)
    I2C1_ER_IRQHandler                       0x0800015f   Thumb Code     0  startup_gd32f30x_hd.o(.text)
    I2C1_EV_IRQHandler                       0x0800015f   Thumb Code     0  startup_gd32f30x_hd.o(.text)
    LVD_IRQHandler                           0x0800015f   Thumb Code     0  startup_gd32f30x_hd.o(.text)
    RCU_CTC_IRQHandler                       0x0800015f   Thumb Code     0  startup_gd32f30x_hd.o(.text)
    RTC_Alarm_IRQHandler                     0x0800015f   Thumb Code     0  startup_gd32f30x_hd.o(.text)
    RTC_IRQHandler                           0x0800015f   Thumb Code     0  startup_gd32f30x_hd.o(.text)
    SDIO_IRQHandler                          0x0800015f   Thumb Code     0  startup_gd32f30x_hd.o(.text)
    SPI0_IRQHandler                          0x0800015f   Thumb Code     0  startup_gd32f30x_hd.o(.text)
    SPI1_IRQHandler                          0x0800015f   Thumb Code     0  startup_gd32f30x_hd.o(.text)
    SPI2_IRQHandler                          0x0800015f   Thumb Code     0  startup_gd32f30x_hd.o(.text)
    TAMPER_IRQHandler                        0x0800015f   Thumb Code     0  startup_gd32f30x_hd.o(.text)
    TIMER0_BRK_IRQHandler                    0x0800015f   Thumb Code     0  startup_gd32f30x_hd.o(.text)
    TIMER0_Channel_IRQHandler                0x0800015f   Thumb Code     0  startup_gd32f30x_hd.o(.text)
    TIMER0_TRG_CMT_IRQHandler                0x0800015f   Thumb Code     0  startup_gd32f30x_hd.o(.text)
    TIMER0_UP_IRQHandler                     0x0800015f   Thumb Code     0  startup_gd32f30x_hd.o(.text)
    TIMER1_IRQHandler                        0x0800015f   Thumb Code     0  startup_gd32f30x_hd.o(.text)
    TIMER2_IRQHandler                        0x0800015f   Thumb Code     0  startup_gd32f30x_hd.o(.text)
    TIMER3_IRQHandler                        0x0800015f   Thumb Code     0  startup_gd32f30x_hd.o(.text)
    TIMER4_IRQHandler                        0x0800015f   Thumb Code     0  startup_gd32f30x_hd.o(.text)
    TIMER5_IRQHandler                        0x0800015f   Thumb Code     0  startup_gd32f30x_hd.o(.text)
    TIMER6_IRQHandler                        0x0800015f   Thumb Code     0  startup_gd32f30x_hd.o(.text)
    TIMER7_BRK_IRQHandler                    0x0800015f   Thumb Code     0  startup_gd32f30x_hd.o(.text)
    TIMER7_Channel_IRQHandler                0x0800015f   Thumb Code     0  startup_gd32f30x_hd.o(.text)
    TIMER7_TRG_CMT_IRQHandler                0x0800015f   Thumb Code     0  startup_gd32f30x_hd.o(.text)
    TIMER7_UP_IRQHandler                     0x0800015f   Thumb Code     0  startup_gd32f30x_hd.o(.text)
    UART3_IRQHandler                         0x0800015f   Thumb Code     0  startup_gd32f30x_hd.o(.text)
    UART4_IRQHandler                         0x0800015f   Thumb Code     0  startup_gd32f30x_hd.o(.text)
    USART0_IRQHandler                        0x0800015f   Thumb Code     0  startup_gd32f30x_hd.o(.text)
    USART1_IRQHandler                        0x0800015f   Thumb Code     0  startup_gd32f30x_hd.o(.text)
    USART2_IRQHandler                        0x0800015f   Thumb Code     0  startup_gd32f30x_hd.o(.text)
    USBD_HP_CAN0_TX_IRQHandler               0x0800015f   Thumb Code     0  startup_gd32f30x_hd.o(.text)
    USBD_LP_CAN0_RX0_IRQHandler              0x0800015f   Thumb Code     0  startup_gd32f30x_hd.o(.text)
    USBD_WKUP_IRQHandler                     0x0800015f   Thumb Code     0  startup_gd32f30x_hd.o(.text)
    WWDGT_IRQHandler                         0x0800015f   Thumb Code     0  startup_gd32f30x_hd.o(.text)
    __aeabi_memcpy                           0x08000169   Thumb Code    36  memcpya.o(.text)
    __aeabi_memcpy4                          0x08000169   Thumb Code     0  memcpya.o(.text)
    __aeabi_memcpy8                          0x08000169   Thumb Code     0  memcpya.o(.text)
    __aeabi_uldivmod                         0x0800018d   Thumb Code    98  uldiv.o(.text)
    __scatterload                            0x080001f1   Thumb Code    28  init.o(.text)
    __scatterload_rt2                        0x080001f1   Thumb Code     0  init.o(.text)
    __aeabi_llsl                             0x08000215   Thumb Code    30  llshl.o(.text)
    _ll_shift_l                              0x08000215   Thumb Code     0  llshl.o(.text)
    __aeabi_llsr                             0x08000233   Thumb Code    32  llushr.o(.text)
    _ll_ushift_r                             0x08000233   Thumb Code     0  llushr.o(.text)
    BusFault_Handler                         0x08000253   Thumb Code     4  gd32f30x_it.o(i.BusFault_Handler)
    DebugMon_Handler                         0x08000257   Thumb Code     2  gd32f30x_it.o(i.DebugMon_Handler)
    HardFault_Handler                        0x08000259   Thumb Code     4  gd32f30x_it.o(i.HardFault_Handler)
    MemManage_Handler                        0x0800025d   Thumb Code     4  gd32f30x_it.o(i.MemManage_Handler)
    NMI_Handler                              0x08000261   Thumb Code     2  gd32f30x_it.o(i.NMI_Handler)
    PendSV_Handler                           0x0800028d   Thumb Code     2  gd32f30x_it.o(i.PendSV_Handler)
    SVC_Handler                              0x0800028f   Thumb Code     2  gd32f30x_it.o(i.SVC_Handler)
    SysTick_Handler                          0x08000291   Thumb Code     8  gd32f30x_it.o(i.SysTick_Handler)
    SystemInit                               0x08000299   Thumb Code    66  system_gd32f30x.o(i.SystemInit)
    UsageFault_Handler                       0x080002e9   Thumb Code     4  gd32f30x_it.o(i.UsageFault_Handler)
    __0printf$8                              0x080002ed   Thumb Code    22  printf8.o(i.__0printf$8)
    __1printf$8                              0x080002ed   Thumb Code     0  printf8.o(i.__0printf$8)
    __2printf                                0x080002ed   Thumb Code     0  printf8.o(i.__0printf$8)
    __scatterload_copy                       0x0800030d   Thumb Code    14  handlers.o(i.__scatterload_copy)
    __scatterload_null                       0x0800031b   Thumb Code     2  handlers.o(i.__scatterload_null)
    __scatterload_zeroinit                   0x0800031d   Thumb Code    14  handlers.o(i.__scatterload_zeroinit)
    adc_calibration_enable                   0x0800078f   Thumb Code    42  gd32f30x_adc.o(i.adc_calibration_enable)
    adc_channel_length_config                0x080007b9   Thumb Code    70  gd32f30x_adc.o(i.adc_channel_length_config)
    adc_config                               0x08000801   Thumb Code   200  main.o(i.adc_config)
    adc_data_alignment_config                0x080008d1   Thumb Code    22  gd32f30x_adc.o(i.adc_data_alignment_config)
    adc_dma_mode_enable                      0x080008e7   Thumb Code    10  gd32f30x_adc.o(i.adc_dma_mode_enable)
    adc_enable                               0x080008f1   Thumb Code    18  gd32f30x_adc.o(i.adc_enable)
    adc_external_trigger_config              0x08000903   Thumb Code    62  gd32f30x_adc.o(i.adc_external_trigger_config)
    adc_external_trigger_source_config       0x08000941   Thumb Code    48  gd32f30x_adc.o(i.adc_external_trigger_source_config)
    adc_mode_config                          0x08000971   Thumb Code    22  gd32f30x_adc.o(i.adc_mode_config)
    adc_regular_channel_config               0x0800098d   Thumb Code   172  gd32f30x_adc.o(i.adc_regular_channel_config)
    adc_special_function_config              0x08000a39   Thumb Code    90  gd32f30x_adc.o(i.adc_special_function_config)
    delay_1ms                                0x08000a95   Thumb Code    16  systick.o(i.delay_1ms)
    delay_decrement                          0x08000aa9   Thumb Code    18  systick.o(i.delay_decrement)
    dma_channel_enable                       0x08000ac1   Thumb Code    50  gd32f30x_dma.o(i.dma_channel_enable)
    dma_circulation_enable                   0x08000af3   Thumb Code    50  gd32f30x_dma.o(i.dma_circulation_enable)
    dma_config                               0x08000b25   Thumb Code    96  main.o(i.dma_config)
    dma_deinit                               0x08000b91   Thumb Code   112  gd32f30x_dma.o(i.dma_deinit)
    dma_init                                 0x08000c01   Thumb Code   308  gd32f30x_dma.o(i.dma_init)
    fputc                                    0x08000d4d   Thumb Code    32  main.o(i.fputc)
    gd_eval_com_init                         0x08000d71   Thumb Code   122  gd32f303e_eval.o(i.gd_eval_com_init)
    gpio_config                              0x08000e09   Thumb Code    30  main.o(i.gpio_config)
    gpio_init                                0x08000e31   Thumb Code   164  gd32f30x_gpio.o(i.gpio_init)
    main                                     0x08000ed5   Thumb Code    68  main.o(i.main)
    rcu_adc_clock_config                     0x08000f6d   Thumb Code    98  gd32f30x_rcu.o(i.rcu_adc_clock_config)
    rcu_clock_freq_get                       0x08000fd9   Thumb Code   310  gd32f30x_rcu.o(i.rcu_clock_freq_get)
    rcu_config                               0x08001131   Thumb Code    58  main.o(i.rcu_config)
    rcu_periph_clock_enable                  0x0800116d   Thumb Code    28  gd32f30x_rcu.o(i.rcu_periph_clock_enable)
    rcu_periph_reset_disable                 0x0800118d   Thumb Code    28  gd32f30x_rcu.o(i.rcu_periph_reset_disable)
    rcu_periph_reset_enable                  0x080011ad   Thumb Code    28  gd32f30x_rcu.o(i.rcu_periph_reset_enable)
    systick_config                           0x080012e5   Thumb Code    74  systick.o(i.systick_config)
    timer_auto_reload_shadow_enable          0x08001335   Thumb Code    10  gd32f30x_timer.o(i.timer_auto_reload_shadow_enable)
    timer_channel_output_config              0x08001341   Thumb Code   484  gd32f30x_timer.o(i.timer_channel_output_config)
    timer_channel_output_mode_config         0x0800152d   Thumb Code    90  gd32f30x_timer.o(i.timer_channel_output_mode_config)
    timer_channel_output_pulse_value_config  0x08001587   Thumb Code    38  gd32f30x_timer.o(i.timer_channel_output_pulse_value_config)
    timer_channel_output_shadow_config       0x080015ad   Thumb Code    90  gd32f30x_timer.o(i.timer_channel_output_shadow_config)
    timer_config                             0x08001609   Thumb Code   122  main.o(i.timer_config)
    timer_enable                             0x08001689   Thumb Code    10  gd32f30x_timer.o(i.timer_enable)
    timer_init                               0x08001695   Thumb Code   122  gd32f30x_timer.o(i.timer_init)
    timer_primary_output_config              0x0800172d   Thumb Code    24  gd32f30x_timer.o(i.timer_primary_output_config)
    usart_baudrate_set                       0x08001745   Thumb Code   140  gd32f30x_usart.o(i.usart_baudrate_set)
    usart_data_transmit                      0x080017d9   Thumb Code     8  gd32f30x_usart.o(i.usart_data_transmit)
    usart_deinit                             0x080017e1   Thumb Code   136  gd32f30x_usart.o(i.usart_deinit)
    usart_enable                             0x08001871   Thumb Code    10  gd32f30x_usart.o(i.usart_enable)
    usart_flag_get                           0x0800187b   Thumb Code    30  gd32f30x_usart.o(i.usart_flag_get)
    usart_receive_config                     0x08001899   Thumb Code    16  gd32f30x_usart.o(i.usart_receive_config)
    usart_transmit_config                    0x080018a9   Thumb Code    16  gd32f30x_usart.o(i.usart_transmit_config)
    Region$$Table$$Base                      0x080018b8   Number         0  anon$$obj.o(Region$$Table)
    Region$$Table$$Limit                     0x080018d8   Number         0  anon$$obj.o(Region$$Table)
    adc_value                                0x20000000   Data           8  main.o(.data)
    SystemCoreClock                          0x2000000c   Data           4  system_gd32f30x.o(.data)
    __stdout                                 0x2000009c   Data           4  stdout.o(.data)
    __initial_sp                             0x200004a0   Data           0  startup_gd32f30x_hd.o(STACK)



==============================================================================

Memory Map of the image

  Image Entry point : 0x08000131

  Load Region LR_IROM1 (Base: 0x08000000, Size: 0x00001978, Max: 0x00080000, ABSOLUTE)

    Execution Region ER_IROM1 (Base: 0x08000000, Size: 0x000018d8, Max: 0x00080000, ABSOLUTE)

    Base Addr    Size         Type   Attr      Idx    E Section Name        Object

    0x08000000   0x00000130   Data   RO         4332    RESET               startup_gd32f30x_hd.o
    0x08000130   0x00000000   Code   RO         4337  * .ARM.Collect$$$$00000000  mc_w.l(entry.o)
    0x08000130   0x00000004   Code   RO         4605    .ARM.Collect$$$$00000001  mc_w.l(entry2.o)
    0x08000134   0x00000004   Code   RO         4608    .ARM.Collect$$$$00000004  mc_w.l(entry5.o)
    0x08000138   0x00000000   Code   RO         4610    .ARM.Collect$$$$00000008  mc_w.l(entry7b.o)
    0x08000138   0x00000000   Code   RO         4612    .ARM.Collect$$$$0000000A  mc_w.l(entry8b.o)
    0x08000138   0x00000008   Code   RO         4613    .ARM.Collect$$$$0000000B  mc_w.l(entry9a.o)
    0x08000140   0x00000000   Code   RO         4615    .ARM.Collect$$$$0000000D  mc_w.l(entry10a.o)
    0x08000140   0x00000000   Code   RO         4617    .ARM.Collect$$$$0000000F  mc_w.l(entry11a.o)
    0x08000140   0x00000004   Code   RO         4606    .ARM.Collect$$$$00002712  mc_w.l(entry2.o)
    0x08000144   0x00000024   Code   RO         4333    .text               startup_gd32f30x_hd.o
    0x08000168   0x00000024   Code   RO         4340    .text               mc_w.l(memcpya.o)
    0x0800018c   0x00000062   Code   RO         4622    .text               mc_w.l(uldiv.o)
    0x080001ee   0x00000002   PAD
    0x080001f0   0x00000024   Code   RO         4635    .text               mc_w.l(init.o)
    0x08000214   0x0000001e   Code   RO         4637    .text               mc_w.l(llshl.o)
    0x08000232   0x00000020   Code   RO         4639    .text               mc_w.l(llushr.o)
    0x08000252   0x00000004   Code   RO          170    i.BusFault_Handler  gd32f30x_it.o
    0x08000256   0x00000002   Code   RO          171    i.DebugMon_Handler  gd32f30x_it.o
    0x08000258   0x00000004   Code   RO          172    i.HardFault_Handler  gd32f30x_it.o
    0x0800025c   0x00000004   Code   RO          173    i.MemManage_Handler  gd32f30x_it.o
    0x08000260   0x00000002   Code   RO          174    i.NMI_Handler       gd32f30x_it.o
    0x08000262   0x00000002   PAD
    0x08000264   0x00000028   Code   RO          257    i.NVIC_SetPriority  systick.o
    0x0800028c   0x00000002   Code   RO          175    i.PendSV_Handler    gd32f30x_it.o
    0x0800028e   0x00000002   Code   RO          176    i.SVC_Handler       gd32f30x_it.o
    0x08000290   0x00000008   Code   RO          177    i.SysTick_Handler   gd32f30x_it.o
    0x08000298   0x00000050   Code   RO          301    i.SystemInit        system_gd32f30x.o
    0x080002e8   0x00000004   Code   RO          178    i.UsageFault_Handler  gd32f30x_it.o
    0x080002ec   0x00000020   Code   RO         4551    i.__0printf$8       mc_w.l(printf8.o)
    0x0800030c   0x0000000e   Code   RO         4647    i.__scatterload_copy  mc_w.l(handlers.o)
    0x0800031a   0x00000002   Code   RO         4648    i.__scatterload_null  mc_w.l(handlers.o)
    0x0800031c   0x0000000e   Code   RO         4649    i.__scatterload_zeroinit  mc_w.l(handlers.o)
    0x0800032a   0x00000002   PAD
    0x0800032c   0x00000410   Code   RO         4558    i._printf_core      mc_w.l(printf8.o)
    0x0800073c   0x00000024   Code   RO         4559    i._printf_post_padding  mc_w.l(printf8.o)
    0x08000760   0x0000002e   Code   RO         4560    i._printf_pre_padding  mc_w.l(printf8.o)
    0x0800078e   0x0000002a   Code   RO          342    i.adc_calibration_enable  gd32f30x_adc.o
    0x080007b8   0x00000046   Code   RO          343    i.adc_channel_length_config  gd32f30x_adc.o
    0x080007fe   0x00000002   PAD
    0x08000800   0x000000d0   Code   RO            3    i.adc_config        main.o
    0x080008d0   0x00000016   Code   RO          344    i.adc_data_alignment_config  gd32f30x_adc.o
    0x080008e6   0x0000000a   Code   RO          349    i.adc_dma_mode_enable  gd32f30x_adc.o
    0x080008f0   0x00000012   Code   RO          350    i.adc_enable        gd32f30x_adc.o
    0x08000902   0x0000003e   Code   RO          351    i.adc_external_trigger_config  gd32f30x_adc.o
    0x08000940   0x00000030   Code   RO          352    i.adc_external_trigger_source_config  gd32f30x_adc.o
    0x08000970   0x0000001c   Code   RO          362    i.adc_mode_config   gd32f30x_adc.o
    0x0800098c   0x000000ac   Code   RO          366    i.adc_regular_channel_config  gd32f30x_adc.o
    0x08000a38   0x0000005a   Code   RO          370    i.adc_special_function_config  gd32f30x_adc.o
    0x08000a92   0x00000002   PAD
    0x08000a94   0x00000014   Code   RO          258    i.delay_1ms         systick.o
    0x08000aa8   0x00000018   Code   RO          259    i.delay_decrement   systick.o
    0x08000ac0   0x00000032   Code   RO         1371    i.dma_channel_enable  gd32f30x_dma.o
    0x08000af2   0x00000032   Code   RO         1373    i.dma_circulation_enable  gd32f30x_dma.o
    0x08000b24   0x0000006c   Code   RO            4    i.dma_config        main.o
    0x08000b90   0x00000070   Code   RO         1374    i.dma_deinit        gd32f30x_dma.o
    0x08000c00   0x00000134   Code   RO         1377    i.dma_init          gd32f30x_dma.o
    0x08000d34   0x00000018   Code   RO         1389    i.dma_periph_and_channel_check  gd32f30x_dma.o
    0x08000d4c   0x00000024   Code   RO            5    i.fputc             main.o
    0x08000d70   0x00000098   Code   RO         4274    i.gd_eval_com_init  gd32f303e_eval.o
    0x08000e08   0x00000028   Code   RO            6    i.gpio_config       main.o
    0x08000e30   0x000000a4   Code   RO         2094    i.gpio_init         gd32f30x_gpio.o
    0x08000ed4   0x00000098   Code   RO            7    i.main              main.o
    0x08000f6c   0x0000006c   Code   RO         2598    i.rcu_adc_clock_config  gd32f30x_rcu.o
    0x08000fd8   0x00000158   Code   RO         2607    i.rcu_clock_freq_get  gd32f30x_rcu.o
    0x08001130   0x0000003a   Code   RO            8    i.rcu_config        main.o
    0x0800116a   0x00000002   PAD
    0x0800116c   0x00000020   Code   RO         2625    i.rcu_periph_clock_enable  gd32f30x_rcu.o
    0x0800118c   0x00000020   Code   RO         2628    i.rcu_periph_reset_disable  gd32f30x_rcu.o
    0x080011ac   0x00000020   Code   RO         2629    i.rcu_periph_reset_enable  gd32f30x_rcu.o
    0x080011cc   0x00000110   Code   RO          302    i.system_clock_120m_hxtal  system_gd32f30x.o
    0x080012dc   0x00000008   Code   RO          303    i.system_clock_config  system_gd32f30x.o
    0x080012e4   0x00000050   Code   RO          260    i.systick_config    systick.o
    0x08001334   0x0000000a   Code   RO         3483    i.timer_auto_reload_shadow_enable  gd32f30x_timer.o
    0x0800133e   0x00000002   PAD
    0x08001340   0x000001ec   Code   RO         3498    i.timer_channel_output_config  gd32f30x_timer.o
    0x0800152c   0x0000005a   Code   RO         3500    i.timer_channel_output_mode_config  gd32f30x_timer.o
    0x08001586   0x00000026   Code   RO         3502    i.timer_channel_output_pulse_value_config  gd32f30x_timer.o
    0x080015ac   0x0000005a   Code   RO         3503    i.timer_channel_output_shadow_config  gd32f30x_timer.o
    0x08001606   0x00000002   PAD
    0x08001608   0x00000080   Code   RO            9    i.timer_config      main.o
    0x08001688   0x0000000a   Code   RO         3515    i.timer_enable      gd32f30x_timer.o
    0x08001692   0x00000002   PAD
    0x08001694   0x00000098   Code   RO         3525    i.timer_init        gd32f30x_timer.o
    0x0800172c   0x00000018   Code   RO         3540    i.timer_primary_output_config  gd32f30x_timer.o
    0x08001744   0x00000094   Code   RO         3902    i.usart_baudrate_set  gd32f30x_usart.o
    0x080017d8   0x00000008   Code   RO         3906    i.usart_data_transmit  gd32f30x_usart.o
    0x080017e0   0x00000090   Code   RO         3907    i.usart_deinit      gd32f30x_usart.o
    0x08001870   0x0000000a   Code   RO         3911    i.usart_enable      gd32f30x_usart.o
    0x0800187a   0x0000001e   Code   RO         3913    i.usart_flag_get    gd32f30x_usart.o
    0x08001898   0x00000010   Code   RO         3935    i.usart_receive_config  gd32f30x_usart.o
    0x080018a8   0x00000010   Code   RO         3949    i.usart_transmit_config  gd32f30x_usart.o
    0x080018b8   0x00000020   Data   RO         4645    Region$$Table       anon$$obj.o


    Execution Region RW_IRAM1 (Base: 0x20000000, Size: 0x000004a0, Max: 0x00010000, ABSOLUTE)

    Base Addr    Size         Type   Attr      Idx    E Section Name        Object

    0x20000000   0x00000008   Data   RW           10    .data               main.o
    0x20000008   0x00000004   Data   RW          261    .data               systick.o
    0x2000000c   0x00000004   Data   RW          304    .data               system_gd32f30x.o
    0x20000010   0x0000008c   Data   RW         4281    .data               gd32f303e_eval.o
    0x2000009c   0x00000004   Data   RW         4619    .data               mc_w.l(stdout.o)
    0x200000a0   0x00000400   Zero   RW         4330    STACK               startup_gd32f30x_hd.o


==============================================================================

Image component sizes


      Code (inc. data)   RO Data    RW Data    ZI Data      Debug   Object Name

       152         30          0        140          0       1863   gd32f303e_eval.o
       562          6          0          0          0       7648   gd32f30x_adc.o
       544          6          0          0          0       8790   gd32f30x_dma.o
       164          0          0          0          0        968   gd32f30x_gpio.o
        32          0          0          0          0       4438   gd32f30x_it.o
       548         68          0          0          0      21347   gd32f30x_rcu.o
       906         38          0          0          0      22180   gd32f30x_timer.o
       372         16          0          0          0      11785   gd32f30x_usart.o
       730        124          0          8          0      56267   main.o
        36          8        304          0       1024        952   startup_gd32f30x_hd.o
       360         30          0          4          0       2275   system_gd32f30x.o
       164         24          0          4          0      29298   systick.o

    ----------------------------------------------------------------------
      4584        350        336        156       1024     167811   Object Totals
         0          0         32          0          0          0   (incl. Generated)
        14          0          0          0          0          0   (incl. Padding)

    ----------------------------------------------------------------------

      Code (inc. data)   RO Data    RW Data    ZI Data      Debug   Library Member Name

         0          0          0          0          0          0   entry.o
         0          0          0          0          0          0   entry10a.o
         0          0          0          0          0          0   entry11a.o
         8          4          0          0          0          0   entry2.o
         4          0          0          0          0          0   entry5.o
         0          0          0          0          0          0   entry7b.o
         0          0          0          0          0          0   entry8b.o
         8          4          0          0          0          0   entry9a.o
        30          0          0          0          0          0   handlers.o
        36          8          0          0          0         68   init.o
        30          0          0          0          0         68   llshl.o
        32          0          0          0          0         68   llushr.o
        36          0          0          0          0         68   memcpya.o
      1154         54          0          0          0        352   printf8.o
         0          0          0          4          0          0   stdout.o
        98          0          0          0          0         92   uldiv.o

    ----------------------------------------------------------------------
      1440         70          0          4          0        716   Library Totals
         4          0          0          0          0          0   (incl. Padding)

    ----------------------------------------------------------------------

      Code (inc. data)   RO Data    RW Data    ZI Data      Debug   Library Name

      1436         70          0          4          0        716   mc_w.l

    ----------------------------------------------------------------------
      1440         70          0          4          0        716   Library Totals

    ----------------------------------------------------------------------

==============================================================================


      Code (inc. data)   RO Data    RW Data    ZI Data      Debug   

      6024        420        336        160       1024     162919   Grand Totals
      6024        420        336        160       1024     162919   ELF Image Totals
      6024        420        336        160          0          0   ROM Totals

==============================================================================

    Total RO  Size (Code + RO Data)                 6360 (   6.21kB)
    Total RW  Size (RW Data + ZI Data)              1184 (   1.16kB)
    Total ROM Size (Code + RO Data + RW Data)       6520 (   6.37kB)

==============================================================================

