:020000040800F2
:10000000A0040020450100089B0700089307000892
:10001000970700088D07000821080008000000006D
:10002000000000000000000000000000C7070008FA
:100030009107000800000000C5070008C907000874
:100040005F0100085F0100085F0100085F01000810
:100050005F0100085F0100085F0100085F01000800
:100060005F0100085F0100085F0100085F010008F0
:100070005F0100085F0100085F0100085F010008E0
:100080005F0100085F0100085F0100085F010008D0
:100090005F0100085F0100085F0100085F010008C0
:1000A0005F0100085F0100085F0100085F010008B0
:1000B0005F0100085F0100085F0100085F010008A0
:1000C0005F0100085F0100085F0100085F01000890
:1000D0005F0100085F0100085F0100085F01000880
:1000E0005F0100085F0100085F0100085F01000870
:1000F0005F0100085F0100085F0100085F01000860
:100100005F0100085F0100085F0100085F0100084F
:100110005F0100085F0100085F0100085F0100083F
:100120005F0100085F0100085F0100085F0100082F
:10013000DFF80CD000F008FB004800471D15000850
:10014000A00400200648804706480047FEE7FEE777
:10015000FEE7FEE7FEE7FEE7FEE7FEE7FEE7FEE777
:10016000D1070008310100082DE9FE4F804681EAE1
:100170000300C00F0C46009021F0004123F0004521
:10018000B8EB0200A94105D24046214690461C46E4
:100190000B46024623F00040104347D0270DC7F31B
:1001A0000A00C3F30A510290401A019040286BDA0A
:1001B000C3F3130040F4801B0098924620B1002343
:1001C000D2EB030A63EB0B0B01985946C0F14002D6
:1001D000504600F0D4F906460D4650465946019A5D
:1001E00000F0DCF910EB08006141002487EA1152AD
:1001F00084EAE7731A4340D0009A62B3019A012A55
:100200004FEA075215DC001B61EB02014FF0004280
:1002100002EA0752CDE90042001C41F58011324646
:100220002B4600F013FA03B0BDE8F08F404621469C
:10023000F9E7001B61EB0201001C41F58013001877
:100240005B412018A2F5001747EB030140EAD57087
:10025000B6196D4111E06D084FEA360645EAC075E2
:100260004FEA0752001B61EB0201001C41F58011AF
:1002700049084FEA30000019514132462B4603B07D
:10028000BDE8F04F00F0D3B90098012240000023F0
:10029000D0EB020263EBE073009821464FEAE07472
:1002A000B8EB000061EB0401E9E783F000435BE792
:1002B00081F0004158E72DE9FE4F81EA030404F084
:1002C000004421F0004100944FF0000B23F0004364
:1002D00050EA01045ED052EA03045BD0C3F30A542F
:1002E000C1F30A552C44A4F2F3340194A0FB025448
:1002F000C1F3130141F48011C3F3130343F48013DA
:1003000001FB024400FB034E840A970A44EA81542D
:1003100047EA8357A4FB076802958D0A05FB07850A
:100320004FEA932C04FB0C542705029D4FEA065814
:1003300047EA1637B5EB08056EEB070C870E920EF1
:1003400047EA811742EA8312A7FB0201B6EB0B01D1
:1003500064EB00042B0D43EA0C335E1844EB1C5095
:10036000DA465146E7FB0201C5F313044FEA0B33AB
:1003700043EA14534FEA0432019C43EA0603A4F112
:100380000C040294009CCDE900B400F05FF903B0C6
:10039000BDE8F08F00200146F9E72DE9F04D81EA34
:1003A000030404F0004B21F0004514464FF0000A0E
:1003B00023F0004150EA050220D054EA01021DD08A
:1003C000C5F30A570246C5F31303C1F31300C1F383
:1003D0000A5640F4801543F48013A7EB0608101B5F
:1003E000D64608F2FD3873EB050002D308F1010888
:1003F00001E092185B41B8F1000F03DA00200146DA
:10040000BDE8F08D00204FF48011064684460EE0D2
:10041000171B73EB050705D3121B63EB050306439C
:100420004CEA010C49084FEA300092185B4150EA4F
:100430000107EDD152EA030012D082EA040083EAF8
:100440000501084305D0101BAB4106D20122002351
:1004500006E000224FF0004302E06FF0010253106B
:100460001AEB06004CEB085110EB0A0041EB0B01B4
:10047000BDE8F04D00F0DBB80EB540F2334102911B
:100480000021CDE900110A460B4600F0DFF803B069
:1004900000BD00F0004230F000400AD0C10D01F56F
:1004A0006071C0F3160042EA0151C20840071143CF
:1004B000704700200146704701F0004330B421F03E
:1004C000004150EA010206D00A0DA2F56072C1F3A4
:1004D0001301002A02DC30BC00207047440F44EABC
:1004E000C104C100E01830BC00EBC25000F068B895
:1004F00030B50B46014600202022012409E021FAF4
:1005000002F59D4205D303FA02F5491B04FA02F5F0
:100510002844151EA2F10102F1DC30BD2DE9F05F87
:100520000546002092469B46884606468146402462
:100530001BE0284641464746224600F017F953463D
:100540005A46C01A914110D311461846224600F06F
:1005500016F82D1A67EB01084F46224601200021AC
:1005600000F00DF817EB00094E41201EA4F1010424
:10057000DFDC484631462A464346BDE8F09F202A44
:1005800004DB203A00FA02F1002070479140C2F1EA
:10059000200320FA03F3194390407047202A06DB1A
:1005A000CB17203A41FA02F043EAE07306E041FA41
:1005B00002F3D040C2F1200291400843194670472F
:1005C0000029A8BF7047401C490008BF20F0010067
:1005D000704710B4B0FA80FC00FA0CF050EA010445
:1005E00004BF10BC704749B1CCF1200421FA04F4D7
:1005F00011FA0CF118BF012121430843A3EB0C01B0
:10060000CB1D4FEA00614FEA102042BF002010BC12
:10061000704700EBC35010440029A4BF10BC7047C2
:10062000401C490008BF20F0010010BC704710B505
:10063000141E73F1000408DA401C41F10001921805
:100640005B411A4301D120F0010010BD2DE9F04DAE
:1006500092469B4611B1B1FA81F202E0B0FA80F203
:1006600020329046FFF78BFF04460F4640EA0A000F
:1006700041EA0B0153465A46084313D0114653EA48
:10068000010019D0C8F14002504600F06FF805464D
:100690000E46504659464246FFF771FF084305D0C3
:1006A000012004E020463946BDE8F08D00200543D6
:1006B00046EAE0762C4337430A986305E40AA0EB48
:1006C00008000022FD0A44EA47540A3002D50020FF
:1006D0000146E9E7010510196941DDE908450019FE
:1006E0006941BDE8F04DA2E7C1F30A52C1F313011D
:1006F00040F2FF3341F480119A4202DA00200146B1
:10070000704740F233439A42A2F2334202DC524233
:1007100000F02CB8FFF733BF30B5041E71F10004B0
:1007200004DB4FF00044404264EB0101141E73F1FE
:10073000000405DB1C464FF00043524263EB040308
:10074000994208BF904230BD064C074D06E0E06874
:1007500040F0010394E8070098471034AC42F6D308
:10076000FFF7EAFCDC1B0008FC1B0008202A04DB66
:10077000203A21FA02F00021704721FA02F3D0401A
:10078000C2F12002914008431946704700BFFEE7BE
:10079000704700BFFEE700BFFEE7704710B50028B6
:1007A00007DA0A07140E054A00F00F031B1FD45482
:1007B00003E00A07130E024A135410BD18ED00E0BF
:1007C00000E400E07047704710B500F0EBFD10BD8D
:1007D00010B51048006840F470000E4908600E48DB
:1007E000006840F001000C49086000204860C862C1
:1007F0000846006809490840074908604FF41F008F
:1008000088600846006820F48020086001F000F944
:1008100010BD000088ED00E000100240FFFFF6FE72
:1008200000BFFEE70FB4054B10B503A9044A0298B8
:1008300000F0CAF810BC5DF814FB0000BD130008FE
:100840009C00002002E008C8121F08C1002AFAD14B
:1008500070477047002001E001C1121F002AFBD140
:10086000704700002DE9FF5FDDE90220010DDDF892
:1008700038B0024318D044F61050A1F2FF31414382
:100880000D140F98012820D0A5EB0B00401C5FEA47
:10089000000A4FF00004474EDFF81C91A046504676
:1008A00016D5CAF1000728E00F98012443A20128B9
:1008B00008D0002100980F9BC0E90021C0E9024345
:1008C000BDE8FF9F6FEA0B01F4E7CBF10000DEE724
:1008D000074612E0F80707D022463346404649460D
:1008E000FFF7E9FC80468946224633461046194602
:1008F000FFF7E1FC04460E467F10002FEAD1DDE948
:100900000201BAF1000F42464B4602DAFFF7D3FC70
:1009100001E0FFF742FD04460E460022284BFFF798
:10092000FBFE03D84FF0FF30014607E00022254BC5
:1009300020463146FFF718FCFFF7D6FE102409E0E9
:10094000002C0ADB0A220023FFF7E8FD019B30326E
:100950001A55641E50EA0102F2D1641C019AC4F1D6
:10096000110314440F9A012A03D0012208430DD128
:100970000AE0084304D000204FF0110B0F9080E7ED
:10098000A3EB0B056D1E0DE05B4504DD4FF000028F
:1009900005F1010504E003DA4FF00002A5F10105BD
:1009A000002AECD000980F99C0E90231C0E9004557
:1009B00086E70000000024400000F03F3000000007
:1009C0000000F0430000E03F2DE9FF4F95B09B464B
:1009D0008946064600250FE2252877D100242746C0
:1009E000F84A0121059400E0044316F8013F203B3A
:1009F00001FA03F01042F7D130782A2811D06FF0B5
:100A00002F033078A0F13002092A16D8059A44F055
:100A1000020402EB820203EB42021044761C0590B2
:100A2000EFE759F8042B0592002A03DA504244F408
:100A30000054059044F00204761C30782E2816D11C
:100A400016F8010F44F004042A280DD06FF02F028D
:100A50003078A0F13003092B09D807EB870302EBAC
:100A60004303C718761CF3E759F8047B761C3078EB
:100A70006C280FD006DC4C2817D068280DD06A28C7
:100A800014D104E0742810D07A280FD10DE044F47A
:100A900000140AE044F4801401E044F44014727835
:100AA000824202D104F58014761C761C30786628C8
:100AB0000BD013DC582877D009DC002875D04528E6
:100AC000F6D04628F4D047281AD19DE118E06328D3
:100AD00035D0642879D0652812D195E1702873D07B
:100AE00008DC6728F1D069286FD06E280DD06F28F8
:100AF00006D1B5E073282CD0752875D0782874D02D
:100B00005A46179990476D1C75E1C4F302500228AC
:100B100009D003280DD0D9F8001004280DD00D609D
:100B200009F1040967E1D9F80010EA17C1E9005298
:100B3000F6E7D9F800100D80F2E70D70F0E719F82C
:100B4000041B8DF8001000208DF80100EA460120FA
:100B500003E059F804AB4FF0FF3061074FF000019C
:100B600002D40DE008F101018846B9420FDA804550
:100B7000F8DB1AF808100029F4D108E008F10101A7
:100B800088468142FADB1AF808100029F6D1059848
:100B90005B46A0EB080721463846179A00F094FA06
:100BA000284400EB080507E04DE029E10DE01AF8C4
:100BB000010B5A4617999047B8F10108F7D25B46E6
:100BC00021463846179A13E142E00A220092C4F304
:100BD00002524FF0000A022A08D059F804CB032A27
:100BE0004FEAEC710AD00DE029E02AE009F1070193
:100BF00021F00702F2E802C1914609E00FFA8CFCED
:100C00004FEAEC71042A03D14FFA8CFC4FEAEC71E5
:100C1000002907DA0A460021DCF1000C61EB020131
:100C20002D2202E0220504D52B228DF8042001227A
:100C300003E0E20701D02022F7E7904659E00A21BD
:100C400002E010220DE010214FF0000A00910BE0AD
:100C500010224FF0000A44F004040827009203E039
:100C600008224FF0000A0092C4F30252022A05D073
:100C700059F804CB0021032A08D009E009F1070143
:100C800021F00702F2E802C1914605E01FFA8CFC50
:100C9000042A01D10CF0FF0C4FF00008220728D5E0
:100CA000702806D0009B83F0100353EA0A0305D096
:100CB0000EE040228DF80420012208E05CEA0102E7
:100CC00006D030228DF804208DF8050002229046CF
:100CD000009B83F0080353EA0A030AD15CEA01028D
:100CE00001D1620705D530228DF804204FF00108AC
:100CF0007F1E582804D034A003900EA802900DE067
:100D000036A0F9E753466046009AFFF707FC844691
:100D10000398825C0298401E029002705CEA010017
:100D2000F0D1029806A9081A00F1200A600702D53E
:100D300024F4803400E00127574502DDA7EB0A00C8
:100D400000E0002000EB0A01009005984144401AA1
:100D50000590E00306D45B462146179A059800F0FB
:100D6000B3F90544002706E001A85A46C05D17996B
:100D700090476D1C7F1C4745F6DBE0030CD55B46B6
:100D80002146179A059800F09FF9054404E03020A9
:100D90005A46179990476D1C0099481E00900029EB
:100DA000F5DC08E0029802995A460078491C029145
:100DB000179990476D1CBAF10001AAF1010AF1DC04
:100DC00065E100000928010030313233343536370F
:100DD0003839616263646566000000003031323387
:100DE0003435363738394142434445460000000027
:100DF00000F058F90544761C307800287FF4ECADFB
:100E000019B02846BDE8F08F620700D4062709F123
:100E1000070222F0070CFCE80223E14603F0004839
:100E20005FEA080C02D00FF2702C0DE05FEA045C60
:100E300002D50FF2682C07E05FEAC47C02D00FF203
:100E4000602C01E0AFF2700C4FF0FF3823F000434C
:100E5000CDF850C065280CD006DC452809D04628BE
:100E60001DD047283DD13DE0662818D067287ED1A7
:100E700038E00021112F01DB112000E0781CCDE9C2
:100E8000000106A90EA8FFF7EDFCDDE90F010E9A9F
:100E900003910021009207F1010A04914DE04FF007
:100EA00000400097CDE9011006A90EA8FFF7DAFC73
:100EB000DDE90F0203920E9B11990022DDF80CA0D0
:100EC0000093049211B9791C00EB010AB7EB0A00F8
:100ED00004D4C0F1FF3007F1010A0490AAEB070027
:100EE000019044E0012F00DA01270021112F01DDDC
:100EF000112000E03846CDE9000106A90EA8FFF751
:100F0000B1FCDDE90F010E9A0391002104910092DA
:100F1000BA4621070CD40399514500DA8A46BAF142
:100F2000010F05DD009AAAF10101515C302908D0BA
:100F3000B84202DA10F1040F06DA0121CDE90110FE
:100F400015E0AAF10101E9E7002805DC0499014454
:100F50000491AAEB000102E0411C514500DD8A46E4
:100F60000499401A401C01904FF000400290200765
:100F700004D40198504501DBCDF8048000208DF8A1
:100F80004F0002980DF14F07B0F1004F25D02B20F4
:100F90000E9002984FF0020800280CDA40420290AE
:100FA0002D200E9007E00A210298FFF7A1FA3031B8
:100FB000029007F8011DB8F10001A8F10108F2DC68
:100FC00002980028EFD1791E0E980870307800F052
:100FD000200040F0450007F8020D12A8C01B00F1E8
:100FE00007081498007800B1012000EB0A0101986D
:100FF00001EBE07105984144401A401E0590E00362
:1010000006D45B462146179A059800F05DF8054422
:101010001498007818B15A46179990476D1CE00350
:1010200024D55B462146179A059800F04DF80544F3
:101030001CE00498002807DBDDE90301884203DD9A
:101040000098405C179901E0179930205A46904764
:10105000049805F10105401C04900198401E019080
:1010600004D12E205A46179990476D1CBAF1000101
:10107000AAF1010ADDDC05E017F8010B5A461799C1
:1010800090476D1CB8F10001A8F10108F4DC5B4643
:101090002146179A0598ABE62D0000002B000000B2
:1010A000200000002DE9F041044600251E461746A9
:1010B000880404D405E039462020B0476D1C641E26
:1010C000F9D52846BDE8F0812DE9F0410446002518
:1010D0001E469046C80301D5302700E0202788042B
:1010E00004D505E041463846B0476D1C641EF9D56D
:1010F0002846BDE8F081816841F00801816000BFA9
:10110000816801F008010029FAD1816841F00401E9
:10111000816000BF816801F004010029FAD17047A5
:1011200030B5012902D002291AD10CE0C36A23F498
:101130007003C362C36A541E4FF4700505EA045479
:101140002343C3620DE0836B23F440138363836BFB
:10115000541E4FF4401505EA04542343836300E012
:1011600000BF00BF30BD000010B5012211021948B8
:1011700000F0D7F84FF4E0420221164800F05FF883
:101180000021144800F028F8002000F0ADF80222F9
:1011900011461048FFF7C4FF0723102200210D4815
:1011A00000F065F80723112201210A4800F05FF8DA
:1011B00001220221074800F023F800F0DFF805487B
:1011C00000F015F8012000F0E3F80248FFF793FF64
:1011D00010BD00000024014021B1826842F4006289
:1011E000826003E0826822F4006282607047816856
:1011F00001F0010119B9816841F001018160704776
:1012000072B101F001031BB1836843F48013836062
:1012100001F0020393B1836843F4004383600DE05F
:1012200001F001031BB1836823F48013836001F094
:1012300002031BB1836823F40043836070470129D4
:1012400002D0022910D107E0836823F46023836071
:1012500083681343836008E0836823F4E04383607A
:1012600083681343836000E000BF00BF7047F0B5A0
:101270000C46876BC7F30156856B371B07EB870757
:10128000C7F10F0C1F2707FA0CF7BD43371B07EBFD
:101290008707C7F10F0702FA07F73D4385630A2A5C
:1012A0000DD2016902EB420C072707FA0CF7B9438C
:1012B00002EB420703FA07F73943016112E0122AF1
:1012C00010D2C168A2F10A0707EB470C072707FAFB
:1012D0000CF7B943A2F10A0707EB470703FA07F730
:1012E0003943C160F0BD00000549096821F470214F
:1012F000034A1160114609680143116070470000FC
:101300000424014001F001021AB1826842F4800213
:10131000826001F002021AB1826842F40012826017
:101320007047AAB101F480731BB1436843F4807322
:10133000436001F480631BB1436843F480634360FE
:1013400001F00203CBB1836843F00203836014E031
:1013500001F480731BB1436823F48073436001F48C
:1013600080631BB1436823F48063436001F0020390
:101370001BB1836823F00203836070470348006851
:1013800040F4000001490860704700000824014053
:101390000349086000BF024909680029FBD1704772
:1013A000080000200448006820B103480068401E7F
:1013B00001490860704700000800002070B504462D
:1013C0000D46E1B2054800F099FB00BF0721034834
:1013D00000F0E5FB0028F9D0204670BD0038014040
:1013E00070B5054600241D48854200D103E01C4825
:1013F000854200D101241B4931F8140000F050FA55
:10140000194931F8140000F04BFA184951F824300A
:10141000174951F824000322182100F02DF815492E
:1014200051F82430124951F824000322042100F01D
:1014300023F8284600F066FB4FF4E131284600F01F
:1014400013FB0421284600F0B9FB0821284600F0D0
:10145000BDFB284600F09EFB70BD00000038014037
:10146000004400404C0000203000002034000020E8
:10147000440000203C000020F0B50C461646002534
:10148000002204F00F0504F0100747B1042E05D127
:1014900045F00305C76B1F43C76300E035430021D8
:1014A00018E001278F401F4097B102684FEA810C76
:1014B0000F2707FA0CF7BA438F0005FA07F73A43EC
:1014C000282C01D1436102E0482C00D10361026065
:1014D0004F1CB9B20829E4D308211CE001278F4032
:1014E0001F40B7B14268A1F108074FEA870C0F27E8
:1014F00007FA0CF7BA43A1F10807BF0005FA07F78E
:101500003A43282C01D1436102E0482C00D1036109
:1015100042604F1CB9B21029E0D3F0BD2DED0E8B07
:1015200000F0B4F900F078FAFFF71EFE3D48FFF72F
:1015300057FF76E002213C48FFF7E4FE4FF4FA60E3
:10154000FFF726FF38493C310868FEF795FF41EC6C
:101550001E0B9FED360B53EC102BFEF7ACFE41EC4F
:101560001D0B9FED340B53EC102BFEF716FF41ECD7
:101570001C0B9FED320B53EC102BFEF799FE41EC48
:101580001B0B9FED300B53EC102BFEF794FE41EC40
:101590001A0B9FED2E0B53EC102BFEF7FEFE41ECC9
:1015A000190B9FED2C0B53EC102BFEF7DDFD41ECDE
:1015B000180BFEF781FF294908601B494031086874
:1015C000FEF75AFF41EC1A0B9FED180B53EC102B52
:1015D000FEF771FE41EC190B9FED160B53EC102B2F
:1015E000FEF7DBFE41EC180BFEF766FF1C490860B6
:1015F0001A480068FEF74DFF41EC180B53EC182B0E
:1016000018A0FFF70FF916480068FEF742FF41ECFB
:10161000180B53EC182B20A0FFF704F929A0FFF7B3
:1016200001F987E7003801400024014066666666DC
:1016300066660A40000000000000B040E17A14AE87
:1016400047E1F63F0000000000408F403333333362
:10165000333311400000000000003940000000203A
:1016600004000020207468652074656D70657261E7
:101670007475726520646174612069732025322E4F
:10168000306620646567726565732043656C7369B5
:1016900075730D0A0000000020746865207265668D
:1016A0006572656E636520766F6C74616765206432
:1016B0006174612069732025352E336656200D0A2A
:1016C00000000000200D0A00184B5968184B194003
:1016D000164BDA6A22F000520C2820D2DFE800F024
:1016E000060708091F0C1F0D1516171800BF00BFAD
:1016F00000BF41EA803113E000BF20F004004FF04A
:10170000805343EA803319430AE000BF00BF00BFA3
:1017100020F00C0041EA803142F0005200E000BFAE
:1017200000BF024B5960DA627047000000100240AF
:10173000FF3FFFEF2DE9F04F8CB0074600200A90E5
:101740004AA090E8004CC068CDE905BECDF810A0D5
:1017500007900FF21C1ADAE9000ACDE9020A0FF22B
:10176000101ADAE9000ACDE9000A44484068C0F3DB
:1017700081000B900B9820B1012804D002283FD1A2
:1017800003E03F4A3EE03E4A3CE03C48406800F40B
:10179000803CBCF5803F12D13848C06A00F08048D8
:1017A000B8F1000F01D1364C00E0364C33484068A8
:1017B00000F40039B9F5003F02D1334C00E0324C5F
:1017C0002E484068C0F383412C48406800F0006018
:1017D00008B141F010012948406800F0804008B18C
:1017E00041F020010F2901D2891C06E00F2903D303
:1017F0003E2901D8491C00E03F2104FB01F201E031
:101800001F4A00BF00BF1D484068C0F3031504A86D
:10181000465D22FA06F319484068C0F3022502A883
:10182000465D23FA06F0099014484068C0F3C225CB
:101830001DF8056023FA06F0089037B1012F06D095
:10184000022F06D0032F0AD106E00A9208E00A937D
:1018500006E009980A9003E008980A9000E000BFAB
:1018600000BF0A980CB0BDE8F08F00000000000037
:1018700000000000010203040607080900100240EE
:1018800000127A00006CDC0200093D0010B540F245
:10189000096000F005F80220FFF716FF10BD0000F8
:1018A000064A02EB9011096800F01F0301229A40DA
:1018B0001143024B03EB901211607047001002407D
:1018C000064A02EB9011096800F01F0301229A40BA
:1018D0009143024B03EB90121160704700100240DD
:1018E000064A02EB9011096800F01F0301229A409A
:1018F0001143024B03EB901211607047001002403D
:10190000002000213E4A126842F480323C4B1A60AB
:1019100000BF401C3A4A126802F4003111B9B0F518
:10192000006FF6D1364A126802F400320AB900BFDD
:10193000FEE7334AD26942F08052314BDA61314AD4
:10194000126842F440422F4B1A602D4A52682C4BC9
:101950005A601A4652685A601A46526842F48062C7
:101960005A601A46526822F440325A601A46526847
:1019700042F440325A601A465268234B1A40204BB8
:101980005A601A465268214B1A431D4B5A601A4638
:10199000126842F080721A6000BF194A126802F0A1
:1019A0000072002AF9D0174A126842F48032154BAF
:1019B0001A6000BF134A526802F48032002AF9D03C
:1019C000104A126842F400320E4B1A6000BF0D4AF2
:1019D000526802F40032002AF9D0094A526822F013
:1019E0000302074B5A601A46526842F002025A60DC
:1019F00000BF034A526802F00802002AF9D070477B
:101A00000010024000700040FFFFC3B70000340820
:101A100010B5FFF775FF10BD10B5124800684FF400
:101A20007A71B0FBF1F4601EB0F1807F01D3012028
:101A30000FE0601E4FF0E02148610F214FF0FF30B2
:101A4000FEF7ACFE00204FF0E0218861072008611E
:101A5000002008B100BFFEE70021481EFEF79EFEF1
:101A600010BD00000C0000202DE9F04704460D4693
:101A70000027B946B84600261E49601A8C421CD081
:101A800006DC1D48204470B1B0F5806F1FD10FE017
:101A9000B0F5806F16D0B0F56C4F18D10320FFF76A
:101AA00049FE074614E00220FFF744FE07460FE018
:101AB0000220FFF73FFE07460AE00220FFF73AFE4A
:101AC000074605E00220FFF735FE074600E000BFAD
:101AD00000BF07EB5500B0FBF5F64FF6F07006EAD5
:101AE000000906F00F08A16849EA08000143A16057
:101AF000BDE8F087004C004000BCFFBFC1F3080206
:101B00004260704710B504462049601A8C4228D0C4
:101B100006DC1F48204490B1B0F5806F33D117E048
:101B2000B0F5806F26D0B0F56C4F2CD140F20E305E
:101B3000FFF7D6FE40F20E30FFF7C2FE24E040F27F
:101B40001140FFF7CDFE40F21140FFF7B9FE1BE058
:101B500040F21240FFF7C4FE40F21240FFF7B0FE21
:101B600012E040F21340FFF7BBFE40F21340FFF7D4
:101B7000A7FE09E040F21440FFF7B2FE40F2144025
:101B8000FFF79EFE00E000BF00BF10BD004C00400C
:101B900000BCFFBFC16841F40051C160704710B57F
:101BA000024602EB9110006801F01F040123A340DC
:101BB000184008B1012010BD0020FCE70A460021B2
:101BC000C16821F004011143C16070470A46002139
:101BD000C16821F008011143C1607047FC1B000877
:101BE00000000020A0000000440800089C1C000821
:101BF000A0000020000400005408000800000000BD
:101C00000000000000000000000E2707001C01403B
:101C1000001C0140001C0140001C014001000000AC
:101C20000200000004000000080000000E0611077A
:101C30000002000004000000000400000800000092
:101C400000080140000801400206020607060706D8
:101C5000070607060008014000100140001C014073
:101C6000001C0140010000000020000020000000D6
:101C70001000000002060406070607060100000027
:101C800000200000200000001000000000020505F8
:0C1C9000000D05040628170A00000000E3
:0400000508000131BD
:00000001FF
